:040000005AEF2DF096
:1000080000C015F0F2A416D00001964B972B000EF5
:10001800975D02E1C80E965D08E3966B976B010E3B
:100028003526000E362237223822630ED76EC00ED0
:0A003800D66EF29415C000F011001E
:1000420054C4C9FFC7B002D00000FCD7C9CF00F02A
:0200520012009A
:10005400F250026EF29E0500FF6A0150FE6E0050DF
:08006400FD6E02BEF28E1200D7
:10006C008998400E04015111006ED4C0E1FFD5C037
:10007C00E2FF00C0E6FFD2C000F0D3C001F0E4DF25
:10008C00D4C0E1FFD5C0E2FF52C4E6FFD2C000F0FD
:10009C00D3C001F0D9DFD4C0E1FFD5C0E2FF53C417
:1000AC00E6FFD2C000F0D3C001F0CEDF8988120089
:1000BC008998D4C0E1FFD5C0E2FF7A0EE66ED2C0BB
:1000CC0000F0D3C001F0C0DFD4C0E1FFD5C0E2FF27
:1000DC004EC4E6FFD2C000F0D3C001F0B5DF898872
:0200EC00120000
:1000EE00020E0401516F4EC452F44FC453F4B7DFE5
:1000FE008998D4C0E1FFD5C0E2FF7A0EE66ED2C079
:10010E0000F0D3C001F09FDFD4C0E1FFD5C0E2FF05
:10011E0050C4E6FFD2C000F0D3C001F094DF89884E
:02012E001200BD
:100130008998D4C0E1FFD5C0E2FF4EC4E6FFD2C02B
:1001400000F0D3C001F086DFD4C0E1FFD5C0E2FFEC
:10015000E66AD2C000F0D3C001F07CDF89881200CB
:100160000401516B4EC452F44FC453F47FDF89989D
:10017000D4C0E1FFD5C0E2FF3A0EE66ED2C000F077
:10018000D3C001F067DFD4C0E1FFD5C0E2FFE66A6B
:0E019000D2C000F0D3C001F05DDF89881200FC
:10019E008998A00E04014E11006ED4C0E1FFD5C0A7
:1001AE00E2FF00C0E6FFD2C000F0D3C001F04BDF8B
:1001BE00D4C0E1FFD5C0E2FF4FC4E6FFD2C000F0CD
:0A01CE00D3C001F040DF8988120061
:1001D8008998800E04014E11006ED4C0E1FFD5C08D
:1001E800E2FF00C0E6FFD2C000F0D3C001F02EDF6E
:1001F800D4C0E1FFD5C0E2FF4FC4E6FFD2C000F093
:0A020800D3C001F023DF8988120043
:100212000B6A0A6A096A00500402F4CF09F0F3CFAC
:1002220008F001500502F4CF0BF0F3CF0AF00050B2
:100232000502F3500926F4500A22E86A0B22015003
:100242000402F3500926F4500A22E86A0B2208C07D
:1002520000F009C001F00AC002F00BC003F0120066
:100262008998D4C0E1FFD5C0E2FF7A0EE66ED2C013
:1002720000F0D3C001F0EDDE49C400F04AC401F041
:10028200010E0401495F000E4A5B0050011013E0A9
:10029200D4C0E1FFD5C0E2FF47C4E9FF48C4EAFF8A
:1002A200EECFE6FFD2C000F0D3C001F0D2DE0401EF
:0A02B200474B482BE1D78988120062
:1002BC000401495147254B6F4A5148214C6F010E9F
:1002CC004B5F000E4C5B100E516F47C452F448C488
:1002DC0053F4C6DE120E0401516F4BC452F44CC4DD
:1002EC0053F4BEDE1F0E04014E6F300E4F6F6EDFE7
:1002FC001F0E04014E6F16DF00AA01D0F9D71200B1
:10030C00AE0E04014E6F190E4F6F506BEADEAE0E3F
:10031C0004014725006E190E4821016E00C047F4F8
:10032C0001C048F4060E516F00C052F401C053F4E2
:10033C0097DE1F0E04014E6F800E4F6F47DF1F0EAE
:10034C0004014E6F800E4F6F24DF00019851050A97
:10035C0004E09851070A01E006D01C0E04014E6F10
:10036C000A0E4F6F16DF1F0E04014E6F080E4F6FF3
:10037C002DDF00019851050A04E09851070A01E0AD
:10038C0080D004014C6B4D6B1C0E4E6FCBDE0A0EF5
:10039C00001600520AE104014C4B4D2B030E4D5D2F
:1003AC0002E1E80E4C5D01E2EFD704011C0E4E6F2A
:1003BC00B9DE00B208D0030E04014D5D02E1E80E77
:1003CC004C5D01E25DD004011F0E4E6F080E4F6FA5
:1003DC00E0DE040E040147254E6F000E48214F6FDE
:1003EC00B9DE00C04BF40401496B100E495D48E2C4
:1003FC001C0E4E6F97DE00A23FD004014BAB3CD0DD
:10040C001F0E4E6F800E4F6FE1DE1F0E04014E6FFC
:10041C00800E4F6FBEDE1C0E04014E6F0A0E4F6F26
:10042C00B8DE1F0E04014E6F080E4F6FCFDE0401B5
:10043C004C6B4D6B1C0E4E6F75DE0A0E0016005287
:10044C000AE104014C4B4D2B030E4D5D02E1E80E0D
:10045C004C5D01E2EFD704011F0E4E6F080E4F6F7B
:10046C0098DE040E040147254E6F000E48214F6F95
:10047C0071DE00C04BF401D003D00401492BB5D779
:10048C0007D004011F0E4E6F4DDE00A601D0F9D728
:10049C001D0E04014E6F46DE060E0016005203E0E0
:1004AC0004014A6B03D00401010E4A6F4AC400F0E8
:0204BC0012002C
:1004BE0047C44EF448C44FF449C450F411DE4AC444
:0604CE004EF4F5DD120002
:1004D400020E04013715016E0150000A05E01C0EDE
:1004E4003B6F000E3C6F04D0140E3B6F000E3C6F4C
:1004F400500E436F446B330E006E000E016E38C411
:1005040004F0000E056E83DE5F0E0026030E01224A
:100514002E0E0024E96E000E0120EA6EEECF01F0EB
:10052400EECF02F0000E006E0250005C02E10150BA
:10053400000802E2080E446F010E3715016E0150E7
:10054400000AD8A44481100E3715016E0150000A28
:10055400D8A44489020E3715016E0150000A03E045
:10056400700E436F4483040E3715016E0150000A68
:10057400D8A44485AF0E4E6F190E4F6F330E006E24
:10058400000E016E38C404F0000E056E40DE5F0EEE
:100594000026030E0122040E0024E96E000E012041
:1005A400EA6EEECF50F4A1DD330E006E000E016E44
:1005B40038C404F0000E056E2ADE5F0E0024040128
:1005C400476F030E0120486F040E4727000E48238F
:1005D400474B482B050E496F000E4A6F40DEC80E8C
:1005E400476F000E486F060E496F000E4A6F37DEE4
:1005F400080E4E6F61DD04014E6B5EDD450E040195
:100604004E6F5ADD04014E6B57DD330E006E000E43
:10061400016E38C404F0000E056EF9DD5F0E00268D
:10062400030E01222E0E0024D96E000E0120DA6E74
:10063400DE5004013B253D6FDE503C213E6F140E1D
:100644003D27000E3E233EC44EF436DD3DC44EF439
:1006540033DD330E006E000E016E38C404F0000E5C
:10066400056ED5DD5F0E0026030E0122200E002646
:10067400000E0122010E0024E96E000E0120EA6E34
:10068400EECF4EF419DD330E006E000E016E38C449
:1006940004F0000E056EBBDD5F0E0026030E012282
:1006A400200E00240401456F000E0120466F45C44E
:1006B400E9FF46C4EAFFEECF4EF4FEDC45C4E9FF91
:1006C40046C4EAFF010EEE24006E000EEE20016E19
:1006D40045C4E1FF46C4E2FF00C0E6FF01C0E6FFF7
:1006E400400E04014E6FE8DC04014E6BE5DC800E25
:1006F40004014E6FE1DC060E04014E6FDDDC0401E3
:100704004E6BDADC04014E6BD7DCCE0E0401476F6E
:10071400000E486F040E496F000E4A6FA0DD330EC1
:10072400006E000E016E38C404F0000E056E6FDD1D
:100734005F0E0024476F030E0120486F040E496FBB
:10074400000E4A6F8CDDBD0E476F190E486F140EF4
:10075400496F000E4A6FB0DD160E04014E6FE6DCE1
:1007640000C045F4170E04014E6FE0DC00C049F4EC
:10077400C70E0401476F190E486F45C44AF49DDE45
:10078400D10E04014E6F190E4F6F330E006E000E22
:10079400016E38C404F0000E056E39DD5F0E0026CC
:1007A400030E01220C0E0026000E0122010E00246D
:1007B400E96E000E0120EA6EEECF50F496DC330EA3
:1007C400006E000E016E38C404F0000E056E1FDDCD
:1007D4005F0E0026030E01220C0E0024E96E000EAB
:1007E4000120EA6EEECF4EF467DC330E006E000E8D
:1007F400016E38C404F0000E056E09DD5F0E00269C
:10080400030E01220A0E0026000E0122010E00240E
:10081400E96E000E0120EA6EEECF4EF44DDC330E8D
:10082400006E000E016E38C404F0000E056EEFDC9D
:100834005F0E0026030E01220A0E0024E96E000E4C
:100844000120EA6EEECF4EF437DC330E006E000E5C
:10085400016E38C404F0000E056ED9DC5F0E00266C
:10086400030E0122160E0026000E0122030E0024A0
:10087400E96E000E0120EA6EEECF4EF41DDC330E5D
:10088400006E000E016E38C404F0000E056EBFDC6D
:100894005F0E0026030E0122160E0026000E012212
:1008A400020E0024E96E000E0120EA6EEECF4EF433
:1008B40003DC330E006E000E016E38C404F0000E2B
:1008C400056EA5DC5F0E0026030E0122160E00261F
:1008D400000E0122010E0024E96E000E0120EA6ED2
:1008E400EECF4EF45EEC00F0330E006E000E016E9F
:1008F40038C404F0000E056E8ADC5F0E0026030E79
:100904000122160E0024E96E000E0120EA6EEECFDD
:100914004EF45EEC00F0330E006E000E016E38C42F
:1009240004F0000E056E73DC5F0E0026030E012238
:100934001A0E0026000E0122030E0024E96E000E9A
:100944000120EA6EEECF4EF45EEC00F0330E006E42
:10095400000E016E38C404F0000E056E58DC5F0E04
:100964000026030E01221A0E0026000E0122020E9A
:100974000024E96E000E0120EA6EEECF4EF45EEC28
:1009840000F0330E006E000E016E38C404F0000E49
:10099400056E3DDC5F0E0026030E01221A0E0026B2
:1009A400000E0122010E0024E96E000E0120EA6E01
:1009B400EECF4EF45EEC00F0330E006E000E016ECE
:1009C40038C404F0000E056E22DC5F0E0026030E10
:1009D40001221A0E0024E96E000E0120EA6EEECF09
:1009E4004EF45EEC00F043C44EF45EEC00F044C4FC
:1009F4004EF45EEC00F0330E006E000E016E38C44F
:100A040004F0000E056E03DC5F0E0026030E0122C7
:100A1400120E0026000E0122010E0024E96E000EC3
:100A24000120EA6EEECF4EF45EEC00F0330E006E61
:100A3400000E016E38C404F0000E056E09EC01F0DE
:100A44005F0E0026030E0122120E0024E96E000E32
:100A54000120EA6EEECF4EF45EEC00F004014E6B22
:100A64005EEC00F004014E6B5EEC00F004014E6B92
:100A74005EEC00F004014E6B5EEC00F0020E04012B
:100A84003715016E0150000A51E0020E4E6F5EEC04
:100A940000F0040E04014E6F5EEC00F0330E006EA5
:100AA400000E016E38C404F0000E056E09EC01F06E
:100AB4005F0E0026030E0122140E0026000E0122F2
:100AC400010E0024E96E000E0120EA6EEECF4EF412
:100AD4005EEC00F0330E006E000E016E38C404F0BC
:100AE400000E056E09EC01F05F0E0026030E0122D4
:100AF400140E0024E96E000E0120EA6EEECF4EF4CF
:100B04005EEC00F0010E04014E6F5EEC00F0010E8D
:100B140004014E6F5EEC00F0040E04014E6F5EECB7
:100B240000F0020E04014E6F5EEC00F0330E006E16
:100B3400000E016E38C404F0000E056E09EC01F0DD
:100B44005F0E0026030E01222E0E0024E96E000E15
:100B54000120EA6EEECF01F0EECF02F0000E006E3F
:100B64000250005C02E10150000861E20401416BA3
:100B7400426B330E006E000E016E38C404F0000E9A
:100B8400056E09EC01F05F0E0026030E01222E0E05
:100B94000024D96E000E0120DA6EDECF01F0DECF24
:100BA40002F00250425D02E10150415D40E2330E29
:100BB400006E000E016E38C404F0000E056E09ECE0
:100BC40001F05F0E0024046E030E0120056E260E54
:100BD4000424E96E000E0520EA6E4151EE24026EF3
:100BE4004251EE20036E000E006E020E016E010EE5
:100BF400005E000E015A0050021601500316310E19
:100C04000424E96E000E0520EA6EEECF00F0EECF6C
:100C140001F002500024E96E03500120EA6EEECF89
:100C24004EF45EEC00F00401414B422BA2D70401C8
:100C3400D10E3B25456F190E3C21466F330E006ED5
:100C4400000E016E38C404F0000E056E09EC01F0CC
:100C54005F0E0026030E01222E0E0024026E000EEB
:100C64000120036E02C0D9FF03C0DAFFDE50452520
:100C7400006EDE504621016E00C039F401C03AF422
:100C840002C0E9FF03C0EAFF010EEE143F6FEECF8E
:100C940040F4000E401700C04EF401C04FF4506BF6
:100CA40077EC00F004013F513925476F40513A2158
:100CB400486FCEC049F4CFC04AF45FEC02F004019F
:100CC4003F513925476F40513A21486F020E47275B
:100CD400000E4823D0C049F4D1C04AF45FEC02F0BE
:100CE40004013F513925476F40513A21486F040EA2
:100CF4004727000E4823330E006E000E016E38C4E1
:100D040004F0000E056E09EC01F05F0E0026030EE0
:100D1400012200C0E9FF01C0EAFFEECF49F4010E51
:100D24000024E96E000E0120EA6EEECF4AF45FEC77
:100D340002F004013F513925476F40513A21486F71
:100D4400060E4727000E4823330E006E000E016E78
:100D540038C404F0000E056E09EC01F05F0E0026A5
:100D6400030E0122020E0024E96E000E0120EA6E39
:100D7400EECF49F4030E0024E96E000E0120EA6E62
:100D8400EECF4AF45FEC02F0080E04013925476FF8
:100D9400000E3A21486F3F51472740514823496B81
:100DA400060E4A6F5FEC02F00A0E04013925476F04
:100DB400000E3A21486F3F51472740514823330ED4
:100DC400006E000E016E38C404F0000E056E09ECCE
:100DD40001F05F0E0026030E01222E0E0024E96EA0
:100DE400000E0120EA6EEECF05F0EECF06F00550BE
:100DF4003B25036E06503C21046E04C000F0016ADA
:100E040000C049F405503B254A6F5FEC02F0D10E57
:100E14000401476F190E486F330E006E000E016E09
:100E240038C404F0000E056E09EC01F05F0E0026D4
:100E3400030E01222E0E0024D96E000E0120DA6E5C
:100E4400DE503B25496FDE503C214A6F0C0E49278A
:100E5400000E4A233F51492740514A235EEC01F0DA
:100E6400160E04014E6F98EC00F000C045F4170E06
:100E740004014E6F98EC00F000C049F4E10E040147
:100E8400476F190E486F45C44AF45FEC02F0220E16
:100E940004013B25476F000E3C21486F330E006E62
:100EA400000E016E38C404F0000E056E09EC01F06A
:100EB4005F0E0026030E01222E0E0024D96E000EB2
:100EC4000120DA6EDE504727DE50482386EC01F01D
:020ED40012000A
:100ED6008998D4C0E1FFD5C0E2FF7A0EE66ED2C093
:100EE60000F0D3C001F02AEC00F0D4C0E1FFD5C079
:100EF600E2FF2AC4E6FFD2C000F0D3C001F02AEC1C
:100F060000F0D4C0E1FFD5C0E2FF29C4E6FFD2C09D
:0E0F160000F0D3C001F02AEC00F08988120030
:100F24002BC404F02CC405F029C402F02AC403F035
:100F34002DC400F02EC401F0010E04012D5F000E3B
:100F44002E5B005001100FE004C0E9FF05C0EAFF6A
:100F540002C0E1FF03C0E2FFEECFE6FF024A032A2C
:100F6400044A052AE5D729C400F02AC401F0120076
:100F74000401366B010E2B5F000E2C5B2F530DE02A
:100F84002C51190802E12B51AD0807E2362BAD0EA6
:100F94002B5D346F190E2C59356F365305E0AD0EA9
:100FA400306F190E316F04D02BC430F42CC431F4DB
:100FB4002A51311902E1305129190FE129C44EF4A3
:100FC4002AC44FF4B0EC00F000C050F42DC44EF429
:100FD4002EC44FF477EC00F03CD0100E0401516F96
:100FE40029C452F42AC453F436EC00F0120E04015E
:100FF400516F365305E0AD0E326F190E336F04D0C6
:101004002BC432F42CC433F432C452F433C453F436
:1010140036EC00F0140E0401516F2DC452F42EC4AA
:1010240053F436EC00F01F0E04014E6F100E4F6F98
:10103400CFEC00F01F0E04014E6F200E4F6FECEC4E
:1010440000F01F0E04014E6F98EC00F000AA01D0CE
:10105400F8D7040136531AE029512B5D006E2A514A
:101064002C59016E3451005E3551015A004A012A4F
:1010740000502D2701502E23010E345D2B6F000EDE
:0E10840035592C6F296B2A6B366B87D71200FB
:1010920004012A51020AD8B497D0330E006E000E12
:1010A200016E2BC404F0000E056E09EC01F05F0E18
:1010B2000024066E030E0120076E2C0E0624E96E34
:1010C200000E0720EA6E010EEE24026E000EEE20E4
:1010D200036E000E006E020E016E010E005E000E27
:1010E200015A00500214046E03500114056E04C02C
:1010F2002CF405C02DF4280E0624D96E000E07200C
:10110200DA6EDECF01F0DECF02F00550021802E106
:101112000150041819E1330E006E000E016E2BC44B
:1011220004F0000E056E09EC01F05F0E0026030EBE
:101132000122300E0024E16E000E0120E26E010E4B
:10114200E66E020E006EACD1330E006E000E016E22
:101152002BC404F0000E056E09EC01F05F0E0024B2
:10116200026E030E0120036E310E0224006E000E89
:101172000320016E2C0E0224D96E000E0320DA6EBB
:1011820000C0E9FF01C0EAFFDE50EE24E16EDE504E
:10119200EE20E26E29C4E6FF330E006E000E016EF1
:1011A2002BC404F0000E056E09EC01F05F0E002660
:1011B200030E01222C0E0024E16E000E0120E26ECD
:1011C2002CC4E6FF2DC4E6FF2A510008D8B066D130
:1011D200330E006E000E016E2BC404F0000E056E7D
:1011E20009EC01F05F0E0026030E01222C0E0024F2
:1011F200E96E000E0120EA6EEECF03F0EECF04F0AE
:101202002A0E0024D96E000E0120DA6EDECF01F024
:10121200DECF02F00250045C02E10150035C25E2E1
:10122200330E006E000E016E2BC404F0000E056E2C
:1012320009EC01F05F0E0026030E01222C0E0024A1
:10124200E96E000E0120EA6E000EEE242C6F020EF3
:10125200EE202D6F2A0E0024D96E000E0120DA6EC8
:10126200DE502C5FDE502D5B20D0330E006E000E60
:10127200016E2BC404F0000E056E09EC01F05F0E46
:101282000026030E01222C0E0024E96E000E01201E
:10129200EA6E2A0E0024D96E000E0120DA6EDE50AC
:1012A200EE5C2C6FDE50EE582D6F330E006E000E8A
:1012B200016E2BC404F0000E056E09EC01F05F0E06
:1012C2000026030E0122100E0024D96E000E01200A
:1012D200DA6EDECF01F0DECF02F02D51025C02E1C8
:1012E2002C51015C18E2330E006E000E016E2BC40D
:1012F20004F0000E056E09EC01F05F0E0026030EED
:101302000122100E0024E96E000E0120EA6EEECFDB
:101312002CF4EECF2DF4330E006E000E016E2BC4B2
:1013220004F0000E056E09EC01F05F0E0026030EBC
:1013320001222E0E0024E16E000E0120E26E2CC46A
:10134200E6FF2DC4E6FF330E006E000E016E2BC4C5
:1013520004F0000E056E09EC01F05F0E0026030E8C
:101362000122260E0024E16E000E0120E26E2A0EFA
:101372000024E96E000E0120EA6EEECFE6FFEECF0A
:10138200E6FF330E006E000E016E2BC404F0000E59
:10139200056E09EC01F05F0E0026030E01222A0EF3
:1013A2000024046E000E0120056E04C0E9FF05C092
:1013B200EAFF2C51EE24026E2D51EE20036E000E38
:1013C200006E020E016E010E005E000E015A025006
:1013D20000160350011604C0E1FF05C0E2FF00C081
:1013E200E6FF01C0E6FF330E006E000E016E2BC455
:1013F20004F0000E056E09EC01F05F0E0026030EEC
:1014020001222A0E0024E96E000E0120EA6EEECFC0
:1014120003F0EECF04F02C0E0024D96E000E012052
:10142200DA6EDECF01F0DECF02F00450021802E1E4
:101432000150031816E0330E006E000E016E2BC42D
:1014420004F0000E056E09EC01F05F0E0026030E9B
:101452000122300E0024E16E000E0120E26E010E28
:10146200E66E330E006E000E016E2BC404F0000E09
:10147200056E09EC01F05F0E0026030E01221F0E1D
:101482000024E16E000E0120E26E030EE66E100EE5
:10149200376F2BC438F46AEC02F002D0030E006EF0
:0214A200120036
:1014A400020E0401516F29C452F42AC453F436ECD9
:1014B40000F08998D4C0E1FFD5C0E2FF7A0EE66E51
:1014C400D2C000F0D3C001F02AEC00F004012D5189
:1014D4002E1118E0D4C0E1FFD5C0E2FF2BC4E9FF10
:1014E4002CC4EAFFEECFE6FFD2C000F0D3C001F077
:1014F4002AEC00F004012B4B2C2B010E2D5F000E67
:081504002E5BE4D78988120078
:10150C001BC429F41CC42AF4CE0E04012B6F000E4C
:10151C002C6F040E2D6F000E2E6FFEDC1D6B1D51FB
:10152C00030821E31D511B25026E000E1C21036EC6
:10153C0002C0E9FF03C0EAFFEECF01F0000EE96E36
:10154C00010EEA6E1D51E926D8B0EA2AFF0EEE18FC
:10155C00006E0150001202C0E1FF03C0E2FF00C0A8
:08156C00E6FF1D2BDCD7120085
:10157400086A096A100E0C6E0134083609360450E4
:10158400085E0550D8A0053C095ED8B007D00450C9
:1015940008260550D8B0053C0926D89000360136F7
:0615A4000C2EEAD7120034
:1015AA00086A080E0C6E003408360450085ED8B07B
:0E15BA0002D00826D89000360C2EF5D712006D
:1015C8001FC401F020C402F0010E04011F5F000EC9
:1015D800205B000E021802E1000E01181FE01BC478
:1015E800E9FF1CC4EAFF1DC4D9FF1EC4DAFFEE5090
:1015F800DE180FE01BC4E9FF1CC4EAFF1DC4D9FFB5
:101608001EC4DAFFDE50EE5C006E016A000E015A5D
:1016180007D01B4B1C2B1D4B1E2BD2D7006A016A0F
:021628001200AE
:10162A00AF0E0401296F190E2A6F1BC42BF41CC4B8
:10163A002CF4060E2D6F000E2E6F2FDFC80E476F8B
:10164A00000E486F060E496F000E4A6F31EC01F02A
:10165A00000E296F080E2A6F39DC1C0E040123259F
:10166A00266F000E2421276F000E296F450E2A6F60
:10167A002DDC26C429F427C42AF428DC08C129F45D
:10168A0009C12AF423DC0101084B092B0401296B47
:10169A002A6B1CDC110E0401296F800E2A6F16DCDE
:1016AA000401296B2A6B12DCCE0E0401476F000E6F
:1016BA00486F040E496F000E4A6F31EC01F01DC4E9
:1016CA0047F41EC448F4040E496F000E4A6F31EC09
:1016DA0001F0080E2325266F000E2421276F1FC450
:1016EA0029F420C42AF46BEC07F021C429F422C49B
:1016FA002AF46BEC07F026C429F427C42AF46BEC0D
:10170A0007F00401296B2A6B6BEC07F0BD0E04018C
:10171A00476F190E486F140E496F000E4A6F5EEC40
:10172A0001F0160E04014E6F98EC00F000C028F488
:10173A00170E04014E6F98EC00F000C049F4C70E72
:10174A000401476F190E486F28C44AF45FEC02F08F
:10175A00010E04012615256FD90E23254E6F190E89
:10176A0024214F6F506B77EC00F0C90E0401296FEA
:10177A00190E2A6FD10E2B6F190E2C6FD90E232535
:10178A002D6F190E24212E6F25512D27000E2E2381
:10179A002F6BBAEC07F0D90E2325476F190E2421B7
:1017AA00486F25514727000E4823080E4727000E89
:1017BA004823496B110E4A6F5FEC02F027C44EF4BE
:1017CA005EEC00F026C44EF45EEC00F0D10E04018B
:1017DA00476F190E486F0C0E2625496F000E2721F8
:1017EA004A6F25514927000E4A235EEC01F0160E76
:1017FA0004014E6F98EC00F000C028F4170E0401A3
:10180A004E6F98EC00F000C049F4D70E0401476F00
:10181A00190E486F28C44AF45FEC02F02A0E04013C
:10182A002325476F000E2421486F86EC01F0000E35
:04183A00016E120029
:10183E008998D4C0E1FFD5C0E2FF7A0EE66ED2C021
:10184E0000F0D3C001F02AEC00F01EC400F01FC45B
:10185E0001F0010E04011E5F000E1F5B005001100F
:10186E001CE0D4C0E1FFD5C0E2FF1BC4F6FF1CC4D0
:10187E00F7FF1DC4F8FF0900F5CF00F000C0E6FF2A
:10188E00D2C000F0D3C001F02AEC00F0010E04012A
:0E189E001B27000E1C231D23D8D7898812009B
:1018AC0004011E51FF0A02E1FF0E1D1907E0516BE6
:1018BC001DC452F41EC453F436EC00F08998D4C005
:1018CC00E1FFD5C0E2FF3A0EE66ED2C000F0D3C005
:1018DC0001F02AEC00F01FC400F020C401F0010E4E
:1018EC0004011F5F000E205B0050011015E0D4C0F6
:1018FC00E1FFD5C0E2FFE66AD2C000F0D3C001F030
:10190C002AEC00F01BC4E1FF1CC4E2FF00C0E6FFA0
:0C191C0004011B4B1C2BDFD78988120034
:101928008998D4C0E1FFD5C0E2FF3A0EE66ED2C076
:1019380000F0D3C001F02AEC00F0D4C0E1FFD5C01C
:10194800E2FFE66AD2C000F0D3C001F02AEC00F052
:041958008988120068
:10195C001BC429F404012A6B230E1C25E96E000E0E
:10196C001D21EA6EEECF2BF449EC08F0020E005E5E
:02197C00120057
:10197E001BC402F01CC403F002C000F003C001F04F
:10198E00024A032A00C0E9FF01C0EAFFEE5201E05D
:10199E00F3D704011B51025C006E1C510358016EFB
:0A19AE00010E005E000E015A120047
:1019B800000E0401296F010E2A6F13C42BF414C4FE
:1019C8002CF4040E2D6F000E2E6F92EC07F0040E0F
:1019D800296F010E2A6F15C42BF416C42CF4040EBB
:1019E8002D6F000E2E6F92EC07F0FC0E296F000E83
:1019F8002A6F17C42BF418C42CF4040E2D6F000E94
:101A08002E6F92EC07F0900E1B6F000E1C6F7ADDA4
:021A18001200BA
:101A1A00060E0C6E2B0E0D6E0D2EFED70C2EFCD75D
:021A2A001200A8
:101A2C0017C401F018C402F0010E0401175F000E78
:101A3C00185B000E021802E1000E01181FE013C41F
:101A4C00E9FF14C4EAFF15C4D9FF16C4DAFFEE503F
:101A5C00DE180FE013C4E9FF14C4EAFF15C4D9FF64
:101A6C0016C4DAFFDE50EE5C006E016A000E015AFD
:101A7C0007D0134B142B154B162BD2D7006A016AC7
:021A8C00120046
:101A8E000401176B050E175D0AE217511525E16E5D
:101A9E00000E1621E26E200EE66E172BF3D71751AD
:101AAE001525E16E000E1621E26EE66A1707175134
:101ABE001525186F000E1621196F0A0E046E000EF2
:101ACE00056E13C400F014C401F04DDD08C000F023
:101ADE0009C001F0300E002618C4E1FF19C4E2FF60
:101AEE0000C0E6FF0A0E046E000E056E13C400F071
:101AFE0014C401F038DD00C013F401C014F4000E5C
:101B0E00011802E1000E001801E102D01707CFD72D
:021B1E001200B3
:101B20000401166B030E165D0AE216511425E16ED0
:101B3000000E1521E26E200EE66E162BF3D716511D
:101B40001425E16E000E1521E26EE66A16071651A5
:101B50001425176F000E1521186F0A0E046E13C49A
:101B600000F023DD08C000F0300E002617C4E1FFAE
:101B700018C4E2FF00C0E6FF0A0E046E13C400F0B2
:101B800014DD00C013F40050000A01E102D0160772
:041B9000DED712008A
:101B9400280E04011325E96E000E1421EA6EEECF1F
:101BA40003F0EECF04F02C0E1325D96E000E142191
:101BB400DA6EDECF01F0DECF02F00450021802E14B
:101BC4000150031803E1010E006E01D0006A1200F7
:101BD4000401156B3C0E0301126F000E136F146F9A
:101BE400156FA0DE00C013F40050020AD8A419D166
:101BF4000401146B0F0E145D04E294DE0401142B33
:101C0400F9D7340E1B6F030E1C6FFF0E1D6FFF0EF2
:101C14001E6F040E1F6F000E206F46DE146B080E3D
:101C2400145D04E27FDE0401142BF9D7146B060E55
:101C3400145D12E277DE00C013F4C80ED96E000EF4
:101C4400DA6E04011451D926D8B0DA2A0050DE180D
:101C540001E013D1142BEBD7146BCE0E145D04E208
:101C640061DE0401142BF9D7166B5CDE00C013F49B
:101C7400B9D058DE00C013F40050010A04E152DE6A
:101C840000C015F401D0F9D0C8D04CDE00C013F464
:101C94000050040A0FE1380E04011B6F030E1C6F81
:101CA400FF0E1D6FFF0E1E6F040E1F6F000E206FC0
:101CB400FBDD01D0E2D0B1D035DE00C013F4040E58
:101CC400005C0FE3300E04011B6F030E1C6FFF0E4C
:101CD4001D6FFF0E1E6F040E1F6F000E206FE4DDDC
:101CE40001D0CBD00401040E135F040113C400F02F
:101CF4001307005202E016DEF8D78FD013DE00C0BF
:101D040013F4040E005C0FE3280E04011B6F030E92
:101D14001C6FFF0E1D6FFF0E1E6F040E1F6F000E53
:101D2400206FC2DD01D0A9D00401040E135F0401A9
:101D340013C400F01307005202E0F4DDF8D76DD0AD
:101D4400F1DD00C013F40050040A0FE1170E040182
:101D54001B6F040E1C6FFF0E1D6FFF0E1E6F040E13
:101D64001F6F000E206FA0DD01D087D056D0040174
:101D7400010E166F52D0D6DD00C013F40050040AD1
:101D840023E1120E04011B6F030E1C6FFF0E1D6F67
:101D9400FF0E1E6F040E1F6F000E206F85DD030102
:101DA4001551000808E11451000805E11351070812
:101DB40002E11251080807E2080E125F070E135BD6
:101DC400000E145B155B01D058D027D0ABDD00C0EA
:101DD40013F413C400F004011307005202E0A2DD5F
:101DE400F8D71BD004011351350AD8B442D7135184
:101DF400010AD8B44AD71351030AD8B45DD7135192
:101E0400060AD8B47BD71351360A9AE01351FF0A55
:101E1400AEE01351330AAFE0D9D704011653D8B456
:101E240024D704011551020A0FE12C0E296F030E69
:101E34002A6F170E2B6F040E2C6F040E2D6F000EDD
:101E44002E6F92EC07F016D02C0E1B6F030E1C6F36
:101E5400170E1D6F040E1E6F040E1F6F000E206FF1
:101E6400E4EC0AF0000E011802E1000E001802E092
:0E1E74000401156B15C400F001D0006A1200C5
:101E820013C402F014C403F016C400F017C401F026
:101E9200010E0401165F000E175B0050011009E0ED
:101EA20002C0E1FF03C0E2FF15C4E6FF024A032AB3
:0C1EB200EBD713C400F014C401F01200C0
:101EBE00250E04011325E16E000E1421E26E050EAF
:101ECE00E66E1E0E1325E16E000E1421E26E030E59
:101EDE00E66E280E1325E16E000E1421E26EE66A00
:101EEE00E66A2A0E1325E16E000E1421E26EE66AF2
:101EFE00E66A2C0E1325E16E000E1421E26EE66AE0
:101F0E00E66A110E376F230E1325E96E000E1421AB
:0C1F1E00EA6EEECF38F46AEC02F012001C
:101F2A00F90E0401166F000E176F020E516FD90ECB
:101F3A00526F190E536F36EC00F0140E04011B6F2A
:101F4A006F0E1C6F000E1D6F0C0E1E6F000E1F6FA2
:101F5A0071DC1351030A0DE114530BE0340E476F81
:101F6A00030E486F040E496F000E4A6F31EC01F000
:101F7A000AD0156B040E155D06E24E6B5EEC00F09E
:101F8A000401152BF7D7156B0C0E155D06E24E6B87
:101F9A005EEC00F00401152BF7D7C80E476F000E50
:101FAA00486F060E496F000E4A6F31EC01F0156B4F
:101FBA00CA0E155D06E24E6B5EEC00F00401152BAD
:101FCA00F7D7200E1B6F6F0E1C6F000E1D6F060ECB
:101FDA001E6F000E1F6F2EDC13C44EF45EEC00F071
:101FEA0004011351030A1AE1145318E1360E4E6F15
:101FFA005EEC00F0040E04014E6F5EEC00F02C0E55
:10200A000401476F030E486F040E496F000E4A6FB2
:10201A0031EC01F0060E1627000E1723260E1B6F51
:10202A006F0E1C6F000E1D6F050E1E6F000E1F6FC8
:10203A0001DC1351030A23E1145321E1320E4E6FDE
:10204A005EEC00F0040E04014E6F5EEC00F0040139
:10205A00156B040E155D0FE2340EE96E030EEA6E7F
:10206A001551E926D8B0EA2AEECF4EF45EEC00F01C
:10207A000401152BEED7060E1627000E1723FF0EA6
:10208A004E6F5EEC00F0160E04011B6F000E1C6F03
:10209A00160E1D6F000E1E6F440E1F6F000E206F6E
:1020AA00430E216F000E226F16C423F417C424F4C2
:0620BA0015EC0BF0120012
:1020C000040113517A0804E3610E135DD8B0139B29
:0620D00013C400F0120031
:1020D60027C0D6F028C0D7F017C41BF418C41CF4C8
:1020E6004BDC800E0001D719026E800E0118025CCF
:1020F60002E10050D65DD8B07BD0D6510401172539
:10210600E96E0001D75104011821EA6EEECF92F371
:10211600230E1525E96E000E1621EA6EEECF03F0AA
:1021260003C000F0000E016E0036009001363C0E32
:102136000024026E030E0120036E02C0E9FF03C0F5
:10214600EAFFEECF13F4EECF14F402C000F003C0A2
:1021560001F000C0E9FF01C0EAFF010EEE24006EA7
:10216600000EEE20016E02C0E1FF03C0E2FF00C0D8
:10217600E6FF01C0E6FF92C31BF415C41CF416C4A7
:102186001DF4AEEC0CF00050000A2EE1230E1525CE
:10219600E96E000E1621EA6EEECF03F003C000F0E2
:1021A600000E016E0036009001363C0E0024026ED1
:1021B600030E0120036E02C0E9FF03C0EAFF010E11
:1021C600EE5C006E000EEE58016E02C0E1FF03C029
:1021D600E2FF00C0E6FF01C0E6FFD6C027F0D7C089
:1021E60028F0010E496E06D00001D64BD72B74D7C6
:0621F600276A286A1200AE
:1021FC000401176B186B13C403F014C404F08A0E9B
:10220C000324F66E5B0E0420F76E000EF86E000EC3
:10221C0004BEFF0EF8220900F5CF01F00150000AB0
:10222C005BE08A0E0324F66E5B0E0420F76E000E44
:10223C00F86E000E04BEFF0EF8220900F5CF01F077
:10224C0015C4D9FF16C4DAFF0150DE183BE103C0F8
:10225C0005F004C006F00350055C006E04500658EF
:10226C00016E00501525E96E01501621EA6EEE50F4
:10227C00000A05E1010E176F000E186F23D08A0EAD
:10228C000524F66E5B0E0620F76E000EF86E000E3F
:10229C0006BEFF0EF8220900F5CF02F00350055CD4
:1022AC00006E04500658016E00501525D96E015071
:1022BC001621DA6E0250DE1801E101D003D0054A76
:1022CC00062AC9D7000E181902E1010E171901E1EF
:1022DC0003D0034A042A93D705C000F006C001F0CE
:0222EC001200DE
:1022EE00B50E0401296F190E2A6FBB0E2B6F190E36
:1022FE002C6FAF0E2D6F190E2E6F2F6BBAEC07F0E1
:10230E00B50E296F190E2A6FC80E2B6F000E2C6F8B
:0E231E00060E2D6F000E2E6F52EC0AF012000C
:10232C0094EC0CF094EC0CF094EC0CF000C008F471
:10233C0094EC0CF000C007F494EC0CF000C00AF420
:10234C0094EC0CF000C009F494EC0CF000C00CF40C
:10235C0094EC0CF000C00BF494EC0CF094EC0CF03E
:10236C0094EC0CF094EC0CF009C400F00AC401F0ED
:10237C00010E0401095F000E0A5B005001100EE013
:10238C0094EC0CF0005201E0FBD794EC0CF094ECC4
:10239C000CF094EC0CF094EC0CF0E6D70BC400F0C1
:1023AC000CC401F0010E04010B5F000E0C5B00501D
:1023BC00011048E094EC0CF094EC0CF094EC0CF064
:1023CC0000C010F494EC0CF000C00FF494EC0CF082
:1023DC0094EC0CF094EC0CF094EC0CF094EC0CF001
:1023EC0094EC0CF094EC0CF000C00EF494EC0CF0AB
:1023FC0000C00DF4000E0401101902E1010E0F19BA
:10240C0011E194EC0CF000C0F8F094EC0CF000C06E
:10241C00F9F094EC0CF000C0FAF094EC0CF000C065
:10242C00FBF010D00DC400F00EC401F0010E04013D
:10243C000D5F000E0E5B0050011003E094EC0CF0ED
:06244C00F1D7ACD712002D
:1024520004010851190802E10751AD0808E2AD0E66
:10246200075F190E085B010E075F000E085B516BD8
:0E24720007C452F408C453F436EC00F0120014
:102480000401006BC80E005D06E20DEC0DF00DECD2
:082490000DF0002BF7D712003C
:1024980004014E6B98EC00F000C00CF4010E04012E
:1024A8004E6F98EC00F000C00DF40401516B07C4A6
:1024B80052F408C453F436EC00F08998D4C0E1FF14
:1024C800D5C0E2FF3A0EE66ED2C000F0D3C001F0EC
:1024D8002AEC00F004010B5318E0D4C0E1FFD5C08A
:1024E800E2FFE66AD2C000F0D3C001F02AEC00F0A7
:1024F80009C4D9FF0AC4DAFF0050DE1801E005D08C
:102508000401094B0A2B0B07E5D704018988516B95
:102518000CC452F40DC453F436EC00F00BC400F0B4
:0225280012009F
:10252A008998400E04010711006ED4C0E1FFD5C09E
:10253A00E2FF00C0E6FFD2C000F0D3C001F02AECEF
:10254A0000F0D4C0E1FFD5C0E2FF08C4E6FFD2C064
:0E255A0000F0D3C001F02AEC00F089881200D6
:10256800330E006E000E016E00C404F0000E056EFE
:1025780009EC01F05F0E0026030E0122220E002452
:10258800E16E000E0120E26E010EE66E330E006E63
:10259800000E016E00C404F0000E056E09EC01F097
:1025A8005F0E0026030E0122230E0024E16E000EAA
:1025B8000120E26E00C4E6FF330E006E000E016ECD
:1025C80000C404F0000E056E09EC01F05F0E002651
:1025D800030E0122260E0024E16E000E0120E26E99
:1025E800E66AE66A330E006E000E016E00C404F05F
:1025F800000E056E09EC01F05F0E0026030E0122A5
:10260800280E0024E16E000E0120E26EE66AE66AFA
:10261800330E006E000E016E00C404F0000E056E4D
:1026280009EC01F05F0E0026030E01222A0E002499
:10263800E16E000E0120E26EE66AE66A330E006E75
:10264800000E016E00C404F0000E056E09EC01F0E6
:102658005F0E0026030E01222C0E0024E16E000EF0
:102668000120E26EE66AE66A330E006E000E016E25
:1026780000C404F0000E056E09EC01F05F0E0026A0
:10268800030E01222E0E0024E16E000E0120E26EE0
:10269800E66AE66A330E006E000E016E00C404F0AE
:1026A800000E056E09EC01F05F0E0026030E0122F4
:1026B800200E0024E16E000E0120E26E010EE66E8F
:1026C800010EE66E330E006E000E016E00C404F0BB
:1026D800000E056E09EC01F05F0E0026030E0122C4
:1026E8000A0E0024E16E000E0120E26EE66AE66A38
:1026F800330E006E000E016E00C404F0000E056E6D
:1027080009EC01F05F0E0026030E01220C0E0024D6
:10271800E16E000E0120E26EE66AE66A330E006E94
:10272800000E016E00C404F0000E056E09EC01F005
:102738005F0E0026030E01221F0E0024E16E000E1C
:102748000120E26EE66A330E006E000E016E00C4D0
:1027580004F0000E056E09EC01F05F0E0026030E72
:1027680001221E0E0024E16E000E0120E26EE66AD0
:10277800330E006E000E016E00C404F0000E056EEC
:1027880009EC01F05F0E0026030E0122250E00243D
:10279800E16E000E0120E26EE66A330E006E000E56
:1027A800016E00C404F0000E056E09EC01F05F0E26
:1027B8000026030E01221A0E0024E16E000E0120ED
:1027C800E26EE66AE66AE66AE66A330E006E000EB4
:1027D800016E00C404F0000E056E09EC01F05F0EF6
:1027E8000026030E0122160E0024E16E000E0120C1
:1027F800E26EE66AE66AE66AE66A330E006E000E84
:10280800016E00C404F0000E056E09EC01F05F0EC5
:102818000026030E0122140E0024E16E000E012092
:10282800E26E1E0EE66E000EE66E330E006E000EB1
:10283800016E00C404F0000E056E09EC01F05F0E95
:102848000026030E0122120E0024E16E000E012064
:10285800E26E1E0EE66E000EE66E330E006E000E81
:10286800016E00C404F0000E056E09EC01F05F0E65
:102878000026030E0122240E0024E16E000E012022
:06288800E26EE66A120098
:10288E000C0E04010725E96E000E0821EA6EEECF4C
:10289E0001F0EECF02F0000E021802E1500E011808
:1028AE0001E012D2096B0A6B000E0A5D02E10A0EFC
:1028BE00095D12E2500E0925116F030E0A21126FE7
:1028CE0094EC0CF011C4E1FF12C4E2FF00C0E6FF6D
:1028DE000401094B0A2BE8D7500E0925E16E030EB1
:1028EE000A21E26EE66A096B0A6B500E136F030E35
:1028FE00146F6F0E156F000E166F050E176F000E0C
:10290E00186F16EC0DF0005001100BE0250E0401AF
:10291E000725E96E000E0821EA6EEE50030A01E06B
:10292E00D3D100016E51000A28E1010E6E6F040131
:10293E00136B146B850E156F000E166F58DC00C0EE
:10294E000BF401C00CF400C013F401C014F47E0E9D
:10295E00156F000E166F4BDC00C00DF401C00EF4A7
:10296E0000C013F401C014F4750E156F000E166F2F
:10297E003EDC00C00FF401C010F400016E51010ADC
:10298E00D8A4A2D1230E04010725E96E000E08215A
:10299E00EA6EEECF03F003C000F0000E016E0036BB
:1029AE00009001363C0E0024E96E030E0120EA6E03
:1029BE00EECF01F0EECF02F04B50025C02E14A5036
:1029CE00015CD8B01FD1230E0725E96E000E082139
:1029DE00EA6EEECF03F003C000F0000E016E00367B
:1029EE00009001363C0E0024E96E030E0120EA6EC3
:1029FE00EECF01F0EECF02F002500C1902E10B51B6
:102A0E00011804E04950010A01E017D04950010AAB
:102A1E00D8B4496A0BC413F40CC414F407C415F4E7
:102A2E0008C416F4680E176F000E186F6BEC10F0DA
:102A3E004950010A01E1E6D0E4D0230E0401072536
:102A4E00E96E000E0821EA6EEECF03F003C000F02F
:102A5E00000E016E0036009001363C0E0024E96E29
:102A6E00030E0120EA6EEECF01F0EECF02F002501F
:102A7E000E1902E10D51011804E04950010A01E05E
:102A8E0018D04950010AD8B4496A04010DC413F490
:102A9E000EC414F407C415F408C416F4600E176FB0
:102AAE00000E186F6BEC10F04950010A01E1AAD02C
:102ABE00A8D0230E04010725E96E000E0821EA6E48
:102ACE00EECF03F003C000F0000E016E0036009052
:102ADE0001363C0E0024E96E030E0120EA6EEECFA5
:102AEE0001F0EECF02F00250101902E10F51011861
:102AFE0004E04950010A01E018D04950010AD8B447
:102B0E00496A04010FC413F410C414F407C415F475
:102B1E0008C416F44C0E176F000E186F6BEC10F005
:102B2E004950010A01E16ED06CD0230E0401072535
:102B3E00E96E000E0821EA6EEECF03F003C000F03E
:102B4E00000E016E0036009001363C0E0024026E1F
:102B5E00030E0120036E02C0D9FF03C0DAFF8A0EF6
:102B6E00DE24F66E5B0EDE20F76E000EF86E000EA3
:102B7E00F8220900F5CF92F302C0E9FF03C0EAFF85
:102B8E00010EEE24006E000EEE20016E02C0E1FF7B
:102B9E0003C0E2FF00C0E6FF01C0E6FF92C31BF4D4
:102BAE0007C41CF408C41DF4AEEC0CF00050000A6F
:102BBE0028E1230E0725E96E000E0821EA6EEECFFE
:102BCE0003F003C000F0000E016E003600900136D7
:102BDE003C0E0024026E030E0120036E02C0E9FFBC
:102BEE0003C0EAFF010EEE5C006E000EEE58016EA1
:102BFE0002C0E1FF03C0E2FF00C0E6FF01C0E6FF36
:102C0E0001D0C0D607C413F408C414F4CAEC0DF0F6
:102C1E0000525AE0230E0725E96E000E0821EA6ED7
:102C2E00EECF03F003C000F0000E016E00360090F0
:102C3E0001363C0E0024E96E030E0120EA6EEECF43
:102C4E0001F0EECF02F04B50025C02E14A50015C03
:102C5E003BE307C413F408C414F45FEC0FF0230E27
:102C6E000725D96E000E0821DA6EDECF00F0000EB9
:102C7E00016E330E046E000E056E09EC01F05F0E50
:102C8E000026030E0122250E0024E16E000E012007
:102C9E00E26EE66A00016E6B230E04010725E96EF3
:102CAE00000E0821EA6EEECF03F003C000F0000E16
:102CBE00016E0036009001363C0E0024E16E030ECC
:0A2CCE000120E26EE66AE66A1200D9
:102CD80007C4E9FF08C4EAFFEECF13F4D90E0401D4
:102CE800146F000E156F90EC0DF02E0E0001DC6FC6
:102CF800010E04010725E96E000E0821EA6EEECFE9
:102D080013F4DD0E146F000E156F90EC0DF02E0EFF
:102D18000001E06F020E04010725E96E000E08218C
:102D2800EA6EEECF13F4E10E146F000E156F90ECFF
:102D38000DF02E0E0001E46F030E04010725E96E65
:102D4800000E0821EA6EEECF13F4E50E146F000EA4
:102D5800156F90EC0DF03A0E0001E86F0A0E0401B1
:102D68000725E96E000E0821EA6EEECF13F4EECFC8
:102D780014F4E90E156F000E166F47EC0DF05B0E9C
:102D88000001EE6F0C0E04010725E96E000E082104
:102D9800EA6EEECF13F4EECF14F4EF0E156F000EBB
:102DA800166F47EC0DF05D0E0001F46FF56B0E0E1B
:102DB80004010725D96E000E0821DA6E1C0EDE24E8
:102DC800096F000EDE200A6FD90E476F000E486F9C
:102DD8001C0E496F000E4A6F31EC01F004010E0E13
:102DE8000725046E000E0821056E04C0E9FF05C022
:102DF800EAFFEECF02F0EECF03F0010E025C006EA8
:102E0800000E0358016E04C0E1FF05C0E2FF00C0D8
:102E1800E6FF01C0E6FF025003100BE094EC0CF053
:102E280000C013F460EC10F000C04EF45EEC00F04B
:0C2E3800D5D709C400F00AC401F0120054
:102E440007C41BF408C41CF4160E04011D6F000E05
:102E54001E6F040E1F6F000E206FE4EC0AF0000ECC
:102E6400011802E1000E001803E1020E006E19D0F1
:102E740007C41BF408C41CF4900E04011D6F000E5B
:102E84001E6F040E1F6F000E206FE4EC0AF0000E9C
:102E9400011802E1000E001803E1010E006E01D0DA
:042EA400006A1200AE
:102EA800B2D0CE0E0401136F000E146F156B040E12
:102EB800166F000E176F41EC0FF0010E136F146BB5
:102EC80095EC0FF035C00EF136C00FF137C010F198
:102ED80038C011F1030E396EA7D0050E01010E2579
:102EE800016E000E0F21026E000E1021036E000EFF
:102EF8001121046E3850045C08E13750035C05E189
:102F08003650025C02E13550015C02E2020E396E75
:102F1800EAEC0DF00050020A03E1040E396E01D00C
:102F280083D0030E0401136F3CC014F495EC0FF02A
:102F380035C00EF136C00FF137C010F138C011F1AD
:102F4800050E396E71D0EAEC0DF000C000F40050A7
:102F5800060A03E1040E396E2CD004010051050A5B
:102F680028E135C00EF136C00FF137C010F138C076
:102F780011F1060E396ECE0E296F000E2A6F340E2F
:102F88002B6F030E2C6F040E2D6F000E2E6F92EC1C
:102F980007F0380E136F030E146F300E156F030E03
:102FA800166F280E176F030E186FDCEC0CF03C6AD6
:102FB8003BD03AD0010E01010E25016E000E0F2103
:102FC800026E000E1021036E000E1121046E0450D3
:102FD800385C08E10350375C05E10250365C02E1D9
:102FE8000150355C0FE3010E0301125F000E135B05
:102FF800145B155B35C00EF136C00FF137C010F108
:1030080038C011F111D03950020AD8B44AD7395012
:10301800030AD8B462D73950040A83E03950050A44
:0A30280092E03950060AC6E01200DB
:103032001F0E04014E6F010E4F6FCFEC00F01F0EFA
:1030420004014E6F020E4F6FECEC00F0140E0401FF
:10305200076FA4C308F495EC12F040EC12F0160EC0
:10306200076FA6C308F495EC12F040EC12F0170EAD
:10307200076FA5C308F495EC12F040EC12F01200B1
:103082001F0E04014E6F010E4F6FCFEC00F01F0EAA
:1030920004014E6F020E4F6FECEC00F0140E0401AF
:1030A200076FA4C308F495EC12F0120E04014E6FE0
:1030B200010E4F6FECEC00F040EC12F0120E4E6F6E
:1030C200010E4F6FCFEC00F0160E04014E6F98EC1C
:1030D20000F0A7C3E1FFA8C3E2FF00C0E6FF170E9E
:1030E20004014E6F98EC00F0A5C3E1FFA6C3E2FF16
:0630F20000C0E6FF120021
:1030F8000301F26BFB6B0401016B026B036B046B46
:10310800F70E1B6F030E1C6F0E0E0301A42504019E
:103118001D6F000E0301A52104011E6F100E1D274F
:10312800000E1E23040E1F6F000E206F56EC0CF0CD
:10313800F30E1B6F030E1C6F0E0E0301A425040172
:103148001D6F000E0301A52104011E6F0C0E1D2723
:10315800000E1E23040E1F6F000E206F56EC0CF09D
:10316800A8C34EF4A9C34FF4B0EC00F000C0B7F305
:1031780094EC0CF000C0B6F394EC0CF000C0B9F37A
:1031880094EC0CF000C0B8F30301FC6BFD6B800EEF
:10319800FD19006E000E800A005C02E1010EFC5D64
:1031A800D8B0CCD0330E006E000E016EFCC304F014
:1031B800FDC305F009EC01F05F0E0026030E0122A5
:1031C800220E0024E96E000E0120EA6EEE50000A7D
:1031D80010E1000E0401041902E1000E031908E1D0
:1031E800FCC3FEF3FDC3FFF3010E036F000E046F73
:1031F800A1D0330E006E000E016EFCC304F0FDC3B7
:1032080005F009EC01F05F0E0024D96E030E0120D1
:10321800DA6EDECF01F00301F3510118D8A48AD089
:10322800330E006E000E016EFCC304F0FDC305F002
:1032380009EC01F05F0E0026030E0122010E0024A6
:10324800D96E000E0120DA6EF451DE18D8A472D0BF
:10325800330E006E000E016EFCC304F0FDC305F0D2
:1032680009EC01F05F0E0026030E0122020E002475
:10327800D96E000E0120DA6EF551DE185BE1330ECF
:10328800006E000E016EFCC304F0FDC305F009ECEE
:1032980001F05F0E0026030E0122030E0024D96EF2
:1032A800000E0120DA6EF651DE1844E1330E006E8E
:1032B800000E016EFCC304F0FDC305F009EC01F03B
:1032C8005F0E0026030E01220A0E0024D96E000E9E
:1032D8000120DA6EDECF01F0DECF02F0B75102181E
:1032E80002E10150B61926E1330E006E000E016EA0
:1032F800FCC304F0FDC305F009EC01F05F0E0026E5
:10330800030E01220C0E0024D96E000E0120DA6E85
:10331800DECF01F0DECF02F0B951021802E1015010
:10332800B81908E1FCC3FBF3010E0401016F000E9C
:10333800026F04D00301FC4BFD2B29D7000E0401BA
:10334800021902E1000E0119D8A491D0000E041947
:1033580002E1010E0319D8A48AD0FEC300F4B4EC2C
:1033680012F0FEC3FBF3330E006E000E016EFEC3B7
:1033780004F0000E056E09EC01F05F0E0024E16E0A
:10338800030E0120E26EF3C3E6FF330E006E000E5B
:10339800016EFBC304F0000E056E09EC01F05F0E30
:1033A8000026030E0122010E0024E16E000E01200A
:1033B800E26EF4C3E6FF330E006E000E016EFBC32F
:1033C80004F0000E056E09EC01F05F0E0026030EF6
:1033D8000122020E0024E16E000E0120E26EF5C308
:1033E800E6FF330E006E000E016EFBC304F0000E04
:1033F800056E09EC01F05F0E0026030E0122030E94
:103408000024E16E000E0120E26EF6C3E6FF330EE3
:10341800006E000E016EFBC304F0000E056E09EC91
:1034280001F05F0E0026030E01220C0E0024E16E4F
:10343800000E0120E26EB8C3E6FFB9C3E6FF330E03
:10344800006E000E016EFBC304F0000E056E09EC61
:1034580001F05F0E0026030E01220A0E0024E16E21
:10346800000E0120E26EB6C3E6FFB7C3E6FF000E0A
:10347800021902E1000E01190AE1000E041902E125
:10348800000E031904E1060E006E78EF23F0330EE8
:10349800006E000E016EFBC304F0000E056E09EC11
:1034A80001F05F0E0026030E0122240E0024056F92
:1034B800000E0120066FF70E076F030E086FBEDCC3
:1034C80005C4E1FF06C4E2FF00C0E6FF330E006E4C
:1034D800000E016EFBC304F0000E056E09EC01F04E
:1034E8005F0E002404011B6F030E01201C6F040EE5
:1034F8001B27000E1C23060E0301A42504011D6FC3
:10350800000E0301A52104011E6F060E1F6F000E99
:10351800206F56EC0CF0040E0301A82504014E6F31
:10352800000E0301A92104014F6FB0EC00F000C0A8
:10353800BDF394EC0CF000C0BCF394EC0CF000C0AC
:10354800BBF394EC0CF000C0BAF394EC0CF000C0A0
:10355800C1F394EC0CF000C0C0F394EC0CF000C084
:10356800BFF394EC0CF000C0BEF30C0E0301A825C9
:1035780004014E6F000E0301A92104014F6FB0EC46
:1035880000F000C0C2F300C0ACF3000E0301AD6F41
:10359800AC33AC9FAC33AC9F000EAD6FFC0EAC17D8
:1035A800FF0EAD170D0EA82504014E6F000E030186
:1035B800A92104014F6FB0EC00F03F0E001600C0C7
:1035C800C3F30E0E0301A82504014E6F000E03017C
:1035D800A92104014F6FB0EC00F000C0C5F394ECD2
:1035E8000CF000C0C4F394EC0CF000C0C7F394ECEA
:1035F8000CF000C0C6F394EC0CF000C0C9F394ECD6
:103608000CF000C0C8F3330E006E000E016EFBC351
:1036180004F0000E056E09EC01F05F0E0026030EA3
:1036280001220E0E0024E16E000E0120E26E0E0E45
:103638000001945D006E000E9559016E0301A651BC
:10364800005EA751015AAC51005EAD51015A00C04D
:10365800E6FF01C0E6FF000E006EAD51005C02E11E
:10366800AC51140823E2FC6BFD6B140EAC5D016ECB
:10367800000EAD59026E0250FD5D02E10150FC5D85
:1036880015E2CA0EFC250401056F030E0301FD2196
:103698000401066F94EC0CF005C4E1FF06C4E2FFD8
:1036A80000C0E6FF0301FC4BFD2BDFD7C351020A24
:1036B800D8A45CD1330E006E000E016EFBC304F07B
:1036C800000E056E09EC01F05F0E0026030E0122C4
:1036D800250E0024E96E000E0120EA6EEE50000A65
:1036E8001FE1330E006E000E016EFBC304F0000EE6
:1036F800056E09EC01F05F0E0026030E01220E0E86
:103708000024E96E000E0120EA6EEECF01F0EECF44
:1037180002F0000E021802E1000E011801E103D0C8
:10372800006A78EF23F0CA51020A1FE1330E006ED7
:10373800000E016EFBC304F0000E056E09EC01F0EB
:103748005F0E0026030E0122100E0024E16E000E0B
:103758000120E26ECCC301F0006ACD510026000EB4
:10376800012200C0E6FF01C0E6FF330E006E000E26
:10377800016EFBC304F0000E056E09EC01F05F0E4C
:103788000026030E01221A0E0024E16E000E01200D
:10379800E26E010EBA25006E000EBB21016E000E0E
:1037A800BC21026E000EBD21036E00C0E6FF01C001
:1037B800E6FF02C0E6FF03C0E6FF330E006E000E10
:1037C800016EFBC304F0000E056E09EC01F05F0EFC
:1037D8000026030E0122160E0024E16E000E0120C1
:1037E800E26E340EE66E120EE66E000EE66EE66EC1
:1037F800330E006E000E016EFBC304F0000E056E62
:1038080009EC01F05F0E0026030E0122280E0024A9
:10381800E16E000E0120E26EE66AE66A330E006E83
:10382800000E016EFBC304F0000E056E09EC01F0FA
:103838005F0E0026030E01222A0E0024E16E000E00
:103848000120E26EE66AE66A330E006E000E016E33
:10385800FBC304F0000E056E09EC01F05F0E0026B4
:10386800030E01222C0E0024E16E000E0120E26EF0
:10387800E66AE66A330E006E000E016EFBC304F0C2
:10388800000E056E09EC01F05F0E0026030E012202
:103898002E0E0024E16E000E0120E26EE66AE66A52
:1038A800120E0401376FFBC338F46AEC02F0330ED2
:1038B800006E000E016EFBC304F0000E056E09ECED
:1038C80001F05F0E0026030E0122250E0024E16E92
:1038D800000E0120E26E010EE66E330E006E000E41
:1038E800016EFBC304F0000E056E09EC01F05F0EDB
:1038F8000026030E01221E0E0024E16E000E012098
:10390800E26E030EE66E330E006E000E016EFBC310
:1039180004F0000E056E09EC01F05F0E0026030EA0
:103928000122160E0024046E000E0120056E04C04C
:10393800E9FF05C0EAFF010EEE24006E000EEE203E
:10394800016E000EEE20026E000EEE20036E04C023
:10395800E1FF05C0E2FF00C0E6FF01C0E6FF02C0CC
:10396800E6FF03C0E6FF006A78EF23F00301C351C6
:10397800120AD8A42DD1330E006E000E016EFBC3BF
:1039880004F0000E056E09EC01F05F0E0026030E30
:103998000122250E0024E96E000E0120EA6EEE5089
:1039A800040A1FE1330E006E000E016EFBC304F023
:1039B800000E056E09EC01F05F0E0026030E0122D1
:1039C8000E0E0024E96E000E0120EA6EEECF01F023
:1039D800EECF02F0000E021802E1000E011801E11C
:1039E80003D0006A78EF23F00301CA51020A1FE1ED
:1039F800330E006E000E016EFBC304F0000E056E60
:103A080009EC01F05F0E0026030E0122100E0024BF
:103A1800E16E000E0120E26ECCC301F0006ACD51C8
:103A28000026000E012200C0E6FF01C0E6FF330EAB
:103A3800006E000E016EFBC304F0000E056E09EC6B
:103A480001F05F0E0026030E01221A0E0024E16E1B
:103A5800000E0120E26E010EBA25006E000EBB2199
:103A6800016E000EBC21026E000EBD21036E00C067
:103A7800E6FF01C0E6FF02C0E6FF03C0E6FF330E23
:103A8800006E000E016EFBC304F0000E056E09EC1B
:103A980001F05F0E0026030E0122160E0024E16ECF
:103AA800000E0120E26EBEC3E6FFBFC3E6FFC0C33F
:103AB800E6FFC1C3E6FF330E006E000E016EFBC3C6
:103AC80004F0000E056E09EC01F05F0E0026030EEF
:103AD8000122280E0024E16E000E0120E26EE66A43
:103AE800E66A330E006E000E016EFBC304F0000E92
:103AF800056E09EC01F05F0E0026030E01222A0E66
:103B08000024E16E000E0120E26EE66AE66A330EDA
:103B1800006E000E016EFBC304F0000E056E09EC8A
:103B280001F05F0E0026030E01222C0E0024E16E28
:103B3800000E0120E26EE66AE66A330E006E000EA1
:103B4800016EFBC304F0000E056E09EC01F05F0E78
:103B58000026030E01222E0E0024E16E000E012025
:103B6800E26EE66AE66A100E0401376FFBC338F4AA
:103B78006AEC02F0330E006E000E016EFBC304F017
:103B8800000E056E09EC01F05F0E0026030E0122FF
:103B9800250E0024E16E000E0120E26E030EE66E93
:103BA800330E006E000E016EFBC304F0000E056EAE
:103BB80009EC01F05F0E0026030E01221E0E002400
:103BC800E16E000E0120E26EE66A006A78EF23F0EB
:103BD800010E0301C315016E0150000AD8B4A5D027
:103BE800330E006E000E016EFBC304F0000E056E6E
:103BF80009EC01F05F0E0026030E01221A0E0024C4
:103C0800E16E000E0120E26E010EBA25006E000E74
:103C1800BB21016E000EBC21026E000EBD21036E99
:103C280000C0E6FF01C0E6FF02C0E6FF03C0E6FFF2
:103C3800330E006E000E016EFBC304F0000E056E1D
:103C480009EC01F05F0E0026030E01222E0E00245F
:103C5800E16E000E0120E26EE66AE66A100E0401CB
:103C6800376FFBC338F46AEC02F0330E006E000EB7
:103C7800016EFBC304F0000E056E09EC01F05F0E47
:103C88000026030E0122250E0024E96E000E0120F5
:103C9800EA6EEE50060A07E0110E376FFBC338F4E0
:103CA8006AEC02F015D0330E006E000E016EFBC3F5
:103CB80004F0000E056E09EC01F05F0E0026030EFD
:103CC80001221E0E0024E16E000E0120E26EE66A5B
:103CD800330E006E000E016EFBC304F0000E056E7D
:103CE80009EC01F05F0E0026030E0122250E0024C8
:103CF800E16E000E0120E26EE66A330E006E000EE1
:103D0800016EFBC304F0000E056E09EC01F05F0EB6
:103D18000026030E0122220E0024E16E000E01206F
:103D2800E26EE66A006A78EF23F0040E0301C31519
:103D3800016E0150000A2DE0330E006E000E016E78
:103D4800FBC304F0000E056E09EC01F05F0E0026BF
:103D5800030E0122250E0024E16E000E0120E26E02
:103D6800E66A330E006E000E016EFBC304F0000E0F
:103D7800056E09EC01F05F0E0026030E0122220EEB
:103D88000024E16E000E0120E26EE66A006A78EF18
:103D980023F0330E006E000E016EFBC304F0000E1C
:103DA800056E09EC01F05F0E0026030E0122250EB8
:103DB8000024E96E000E0120EA6EEE50000A18E1B8
:103DC800330E006E000E016EFBC304F0000E056E8C
:103DD80009EC01F05F0E0026030E0122220E0024DA
:103DE800E16E000E0120E26EE66A006A78EF23F0C9
:103DF800010EF26F100EC315016E0150000AD8B4FF
:103E0800E6D3330E006E000E016EFBC304F0000E05
:103E1800056E09EC01F05F0E0026030E0122250E47
:103E28000024E96E000E0120EA6EEE50010A56E108
:103E3800330E006E000E016EFBC304F0000E056E1B
:103E480009EC01F05F0E0026030E01221A0E002471
:103E5800D96E000E0120DA6EDECF01F0DECF02F05F
:103E6800DECF03F0DECF04F0BD51041808E1BC51E9
:103E7800031805E1BB51021802E1BA5101182BE100
:103E8800330E006E000E016EFBC304F0000E056ECB
:103E980009EC01F05F0E0026030E01221E0E00241D
:103EA800E16E000E0120E26EE66A330E006E000E2F
:103EB800016EFBC304F0000E056E09EC01F05F0E05
:103EC8000026030E0122250E0024E16E000E0120BB
:103ED800E26E030EE66E006A78EF23F0330E006E92
:103EE800000E016EFBC304F0000E056E09EC01F034
:103EF8005F0E0026030E01221A0E0024D96E000E52
:103F08000120DA6EDECF01F0DECF02F0DECF03F063
:103F1800DECF04F0BD51041808E1BC51031805E1D7
:103F2800BB51021802E1BA51011802E0006ADCD361
:103F3800330E006E000E016EFBC304F0000E056E1A
:103F480009EC01F05F0E0026030E0122250E002465
:103F5800E96E000E0120EA6EEE50050A56E1330EB6
:103F6800006E000E016EFBC304F0000E056E09EC36
:103F780001F05F0E0026030E01221A0E0024D96EEE
:103F8800000E0120DA6EDECF01F0DECF02F0DECFC8
:103F980003F0DECF04F0BD51041808E1BC5103184A
:103FA80005E1BB51021802E1BA5101182CE1330EA8
:103FB800006E000E016EFBC304F0000E056E09ECE6
:103FC80001F05F0E0026030E01221E0E0024E16E92
:103FD800000E0120E26E030EE66E330E006E000E38
:103FE800016EFBC304F0000E056E09EC01F05F0ED4
:103FF8000026030E0122250E0024E16E000E01208A
:10400800E26E060EE66E006A6FD3330E006E000E87
:10401800016EFBC304F0000E056E09EC01F05F0EA3
:104028000026030E0122250E0024E96E000E012051
:10403800EA6EEE50060A18E1330E006E000E016EAD
:10404800FCC304F0FDC305F009EC01F05F0E002687
:10405800030E01221E0E0024E16E000E0120E26E06
:10406800030EE66E006A40D3330E006E000E016E3A
:10407800FBC304F0000E056E09EC01F05F0E00268C
:10408800030E0122250E0024E96E000E0120EA6EBF
:10409800EE50030A19E0330E006E000E016EFBC3EA
:1040A80004F0000E056E09EC01F05F0E0026030E09
:1040B8000122250E0024E96E000E0120EA6EEE5062
:1040C800070A02E0006A10D3330E006E000E016E7C
:1040D800FBC304F0000E056E09EC01F05F0E00262C
:1040E800030E0122280E0024E96E000E0120EA6E5C
:1040F800EECF03F0EECF04F02A0E0024D96E000EA6
:104108000120DA6EDECF01F0DECF02F00450021893
:1041180002E101500318D8B438D2330E006E000EF5
:10412800016EFBC304F0000E056E09EC01F05F0E92
:104138000026030E01222A0E0024E96E000E01203B
:10414800EA6EEECF03F0EECF04F0280E0024D96E0D
:10415800000E0120DA6EDECF01F0DECF02F0025051
:10416800045C02E10150035C25E2330E006E000E90
:10417800016EFBC304F0000E056E09EC01F05F0E42
:104188000026030E01222A0E0024E96E000E0120EB
:10419800EA6E000EEE24AA6F020EEE20AB6F280E18
:1041A8000024D96E000E0120DA6EDE50AA5FDE50C0
:1041B800AB5B20D0330E006E000E016EFBC304F023
:1041C800000E056E09EC01F05F0E0026030E0122B9
:1041D8002A0E0024E96E000E0120EA6E280E002443
:1041E800D96E000E0120DA6EDE50EE5CAA6FDE504A
:1041F800EE58AB6FBEC3AEF3BFC3AFF3C0C3B0F3EB
:10420800C1C3B1F3330E006E000E016EFBC304F0A0
:10421800000E056E09EC01F05F0E0026030E012268
:10422800160E0024D96E000E0120DA6EDECF01F0E2
:10423800DECF02F0DECF03F0DECF04F0C151045C24
:1042480008E1C051035C05E1BF51025C02E1BE51C7
:10425800015CD8B005D1330E006E000E016EFBC3B1
:1042680004F0000E056E09EC01F05F0E0026030E47
:104278000122160E0024E96E000E0120EA6EAA51F2
:10428800EE24016EAB51EE20026E000EEE20036E9E
:10429800000EEE20046EB151045C08E1B051035CDD
:1042A80005E1AF51025C02E1AE51015CD8A0D8D063
:1042B800330E006E000E016EFBC304F0000E056E97
:1042C80009EC01F05F0E0026030E0122250E0024E2
:1042D800E96E000E0120EA6EEE50070A16E1330E71
:1042E800006E000E016EFBC304F0000E056E09ECB3
:1042F80001F05F0E0026030E0122250E0024E16E58
:10430800000E0120E26E030EE66E330E006E000E04
:10431800016EFBC304F0000E056E09EC01F05F0EA0
:104328000026030E01221F0E0024E16E000E01205C
:10433800E26EE66A330E006E000E016EFBC304F0F7
:10434800000E056E09EC01F05F0E0026030E012237
:10435800160E0026000E012200C0D9FF01C0DAFFA8
:10436800AEC3B2F3AFC3B3F3B0C3B4F3B1C3B5F3E1
:10437800DE50B25FDE50B35BDE50B45BDE50B55B3F
:1043880000C0E1FF01C0E2FFAEC3E6FFAFC3E6FF36
:10439800B0C3E6FFB1C3E6FF330E006E000E016E38
:1043A800FBC304F0000E056E09EC01F05F0E002659
:1043B800030E0122280E0024046E000E0120056E53
:1043C80004C0E9FF05C0EAFFB251EE24026EB35102
:1043D800EE20036E000E006E020E016E010E005EEE
:1043E800000E015A025000160350011604C0E1FFE6
:1043F80005C0E2FF00C0E6FF01C0E6FF330E006E15
:10440800000E016EFBC304F0000E056E09EC01F00E
:104418005F0E0026030E01222E0E0024E16E000E10
:104428000120E26EE66AE66A330E006E000E016E47
:10443800FBC304F0000E056E09EC01F05F0E0026C8
:10444800030E0122300E0024E96E000E0120EA6EF0
:10445800EE50010A03E1010EF26F01D0F26B95D024
:10446800330E006E000E016EFBC304F0000E056EE5
:1044780009EC01F05F0E0026030E0122160E00243F
:10448800D96E000E0120DA6EDECF01F0DECF02F029
:10449800DECF03F0DECF04F0B151041808E1B051CB
:1044A800031805E1AF51021802E1AE51011839E1D4
:1044B800330E006E000E016EFBC304F0000E056E95
:1044C80009EC01F05F0E0026030E01222A0E0024DB
:1044D800E16E000E0120E26E280E0024E96E000E47
:1044E8000120EA6EEECFE6FFEECFE6FF330E006E58
:1044F800000E016EFBC304F0000E056E09EC01F01E
:104508005F0E0026030E01222E0E0024E16E000E1F
:104518000120E26EAAC3E6FFABC3E6FF010EF26F0D
:1045280034D0330E006E000E016EFBC304F0000E93
:10453800056E09EC01F05F0E0026030E0122160E2F
:104548000024E16E000E0120E26EAEC3E6FFAFC3A9
:10455800E6FFB0C3E6FFB1C3E6FF330E006E000E00
:10456800016EFBC304F0000E056E09EC01F05F0E4E
:104578000026030E01222E0E0024E16E000E0120FB
:10458800E26EE66AE66A010EF26F330E006E000E06
:10459800016EFBC304F0000E056E09EC01F05F0E1E
:1045A8000026030E01220E0E0024E96E000E0120E3
:1045B800EA6EEECF01F0EECF02F0000E006E025070
:1045C800005C02E10150000802E2010EF26F330EB6
:1045D800006E000E016EFBC304F0000E056E09ECC0
:1045E80001F05F0E0026030E0122300E0024E16E5A
:1045F800000E0120E26EE66A330E006E000E016EB8
:10460800FBC304F0000E056E09EC01F05F0E0024F8
:104618000401076F030E0120086F47EC14F0330EF6
:10462800006E000E016EFBC304F0000E056E09EC6F
:1046380001F05F0E0026030E01220E0E0024E96E23
:10464800000E0120EA6EEECF01F0EECF02F0000E70
:10465800006E0250005C02E10150000839E2330E9E
:10466800006E000E016EFBC304F0000E056E09EC2F
:1046780001F05F0E0026030E01221A0E0024046EBC
:10468800000E0120056E0E0E0024E96E000E0120BA
:10469800EA6EEECF00F0EECF01F0000E026E036E70
:1046A80004C0E9FF05C0EAFFEE500026EE500122E3
:1046B800EE500222EE50032204C0E1FF05C0E2FFE3
:1046C80000C0E6FF01C0E6FF02C0E6FF03C0E6FF48
:1046D8000301F25308E00401296B020E2A6FFBC3A1
:0A46E8002BF449EC08F0006A120000
:1046F200A7C34EF4A8C34FF4B0EC00F000C0B2F36D
:1047020094EC0CF000C0B1F394EC0CF000C0B0F3E8
:1047120094EC0CF000C0AFF3000E0301B01902E1FB
:10472200000EAF1901E1E3D094EC0CF000C0B4F339
:1047320094EC0CF000C0B3F3B90E04011B6F030E2E
:104742001C6FCD0E1D6F190E1E6F040E1F6F000E13
:10475200206F56EC0CF0B50E1B6F030E1C6FC90ECA
:104762001D6F190E1E6F040E1F6F000E206F56EC88
:104772000CF0020E516F080E0301A7250401526FBF
:10478200000E0301A8210401536F36EC00F00E0E57
:104792000301A4250401076F000E0301A5210401F2
:1047A200086F0301A65104010727000E0823080E13
:1047B2000727000E082329EC12F0000E0301B2199C
:1047C20002E1350EB11903E196EC11F090D0000E22
:1047D2000301B01902E1440EAF1903E154EC17F0E2
:1047E20086D0A90E04011B6F030E1C6FB50E1D6F40
:1047F200190E1E6F060E1F6F000E206F56EC0CF086
:104802000E0E0301A4250401076F000E0301A5216A
:104812000401086F0301A65104010727000E0823B3
:10482200080E0727000E082329EC12F0160E0401C9
:10483200296F030E2A6FB50E2B6F030E2C6F040E19
:104842002D6F000E2E6F92EC07F01A0E296F030ED9
:104852002A6FA90E2B6F030E2C6F060E2D6F000E02
:104862002E6F92EC07F0B1C320F3B2C321F3AFC3B2
:1048720022F3B0C323F3080E0301B35D006E000EF2
:10488200B459016E00C024F301C025F3B90E04012E
:10489200076F030E086F22EC17F000C026F3000E1C
:1048A2000301276F160E0401076F030E086F6CECED
:1048B20016F000C0B3F301C0B4F30050011017E0CA
:1048C200A90E04011B6F030E1C6FB50E1D6F030EA4
:1048D2001E6FAFC31FF4B0C320F4B1C321F4B2C33F
:1048E20022F4B3C323F4B4C324F415EC0BF0120086
:1048F200C40E04014E6F190E4F6FB0EC00F000C0F1
:10490200A4F3E8D0D50E0401076F190E086FCE0E7E
:10491200096F000E0A6F040E0B6F4CEC12F0005080
:10492200000A4BE1C40E04014E6F190E4F6F020EC6
:10493200506F77EC00F077EC11F0CB0E296F190E67
:104942002A6FCF0E2B6F190E2C6FD50E2D6F190EED
:104952002E6F2F6BBAEC07F0CB0E296F190E2A6F50
:10496200CE0E2B6F000E2C6F040E2D6F000E2E6FCD
:1049720052EC0AF0C50E296F190E2A6FCB0E2B6F5F
:10498200190E2C6FCF0E2D6F190E2E6F2F6BBAECE6
:1049920007F0C50E296F190E2A6FC80E2B6F000E75
:1049A2002C6F060E2D6F000E2E6F52EC0AF03C0E8D
:1049B200476F000E486F86EC01F095D00401AF0EF0
:1049C200076F190E086FC80E096F000E0A6F060EE8
:1049D2000B6F4CEC12F00050000A7BE1CB0E04018D
:1049E200076F190E086FC6C009F4C7C00AF4040E97
:1049F2000B6F4CEC12F00050000A6BE10F0E006ED0
:104A0200000E016E1CC004F0000E056E09EC01F0F0
:104A1200990E002404011B6F000E01201C6F090E69
:104A22001B27000E1C23C50E1D6F190E1E6F060ECE
:104A32001F6F000E206F56EC0CF00F0E006E000E72
:104A4200016E1CC004F0000E056E09EC01F0990E17
:104A52000024296F000E01202A6F050E2927000E5F
:104A62002A23C6C02BF4C7C02CF4040E2D6F000EEF
:104A72002E6F92EC07F00F0E006E000E016E1CC03E
:104A820004F0000E056E09EC01F0990E0024E16EAF
:104A9200000E0120E26E010EE66E0F0E006E000E99
:104AA200016E1CC004F0000E056E09EC01F0990EB7
:104AB2000026000E0122010E0024E16E000E0120EC
:104AC200E26E35C0E6FF36C0E6FF37C0E6FF38C00B
:104AD200E6FF09D00301A451010AD8B413D7A451A7
:084AE200020AD8B46BD71200E0
:104AEA00C90E0401296F190E2A6FCD0E2B6F190EEC
:104AFA002C6FCD0E2D6F190E2E6F2F6BBAEC07F09F
:104B0A00C90E296F190E2A6FCE0E2B6F000E2C6F4D
:0E4B1A00040E2D6F000E2E6F52EC0AF01200EA
:104B28000401076B0301985303E00D0E996F02D03F
:104B3800050E996F99C308F495EC12F0020E040162
:104B4800076F0301985303E0310E9A6F02D0300EBD
:104B58009A6F9AC308F495EC12F00A0E0401516F8B
:104B6800EE0E526F050E536F36EC00F0040E040182
:104B7800076F0301985303E0150E9B6F02D0120EC6
:104B88009B6F9BC308F495EC12F0060E0401076FA7
:104B9800120E086F95EC12F00301985307E1070E07
:104BA8000401076F0C0E086F95EC12F0030198537F
:104BB80007E1090E0401076F3F0E086F95EC12F02C
:104BC8001F0E04014E6F010E4F6FECEC00F01F0E2C
:104BD80004014E6F020E4F6FECEC00F0040E04015E
:104BE800076FC8C008F495EC12F0050E0401076FB2
:104BF800C9C008F495EC12F0020E0401076FCAC090
:104C080008F495EC12F0030E0401076FCBC008F40A
:104C180095EC12F00401076BCCC008F495EC12F087
:104C2800010E0401076FCDC008F495EC12F0150EC3
:104C38000401076F086B95EC12F0120E04014E6F19
:104C480098EC00F000C098F00301A46B9D0EA56FCE
:104C5800030EA66F9E0EA76F030EA86F41EC18F007
:104C68000301A46BFE0E9D15A56F985303E0010E7A
:104C78009C6F01D09C6B9C51A5139EC3A6F319ECA5
:104C880018F0100E0301A46F010EA56FA66B19ECA6
:104C980018F01F0E4E6F040E4F6FECEC00F040EC56
:104CA80012F0990E136F000E146F156B166B176BBD
:104CB80041EC0FF01F0E4E6F010E4F6FCFEC00F05E
:104CC8001F0E04014E6F020E4F6FCFEC00F0120062
:104CD8000301A16B1F0E04014E6F010E4F6FCFEC45
:104CE80000F01F0E04014E6F020E4F6FCFEC00F064
:104CF8000401516B3AC052F43BC053F436EC00F057
:104D08008998D4C0E1FFD5C0E2FF3A0EE66ED2C062
:104D180000F0D3C001F02AEC00F0D4C0E1FFD5C008
:104D2800E2FFE66AD2C000F0D3C001F02AEC00F03E
:104D380000C03AF0D4C0E1FFD5C0E2FFE66AD2C0B5
:104D480000F0D3C001F02AEC00F000C03BF0D4C062
:104D5800E1FFD5C0E2FFE66AD2C000F0D3C001F09F
:104D68002AEC00F000C094F0D4C0E1FFD5C0E2FF07
:104D7800E66AD2C000F0D3C001F02AEC00F000C00F
:104D880095F0D4C0E1FFD5C0E2FFE66AD2C000F0DA
:104D9800D3C001F02AEC00F000C09FF3D4C0E1FFBB
:104DA800D5C0E2FFE66AD2C000F0D3C001F02AEC19
:104DB80000F000C0A0F38988040E0001945F000E83
:104DC800955B3B50190802E13A50AD0810E33AB040
:104DD8000ED00301A0BF0BD000019551050802E1D8
:104DE8009451EE0804E303019FAF01D003D0010EF4
:104DF800006EDCD104014E6B98EC00F000C09DF30E
:104E0800010E04014E6F98EC00F000C09EF39DC3A4
:104E180029F49EC32AF40001945103019D2504013D
:104E28002B6F0001955103019E2104012C6FAF0ED9
:104E38002D6F190E2E6F010E2F6FBAEC07F0BB0EF7
:104E48004E6F190E4F6FB0EC00F000C0A0F394EC59
:104E58000CF000C09FF30301A051080A02E1060EFE
:104E68009F1912E1BD0E0401076F190E086F410E5C
:104E7800096F000E0A6F070E0B6F4CEC12F0005012
:104E8800000A01E132DD68D10301A051080A02E1FC
:104E9800000E9F19D8A45DD1CD0E0401076F190E1D
:104EA800086FCE0E096F000E0A6F040E0B6F4CECE4
:104EB80012F0005222E0CD0E0401076F190E086FA0
:104EC800160E096F000E0A6F040E0B6F4CEC12F0F1
:104ED800005213E0CD0E0401076F190E086F900EF3
:104EE800096F000E0A6F040E0B6F4CEC12F00052A3
:104EF80004E0020E0301A16F2BD1BD0E04014E6F19
:104F0800190E4F6FB0EC00F0F00E0014016E015056
:104F1800400A04E0030E0301A16F1AD1BD0E04017B
:104F28004E6F190E4F6FB0EC00F000C09BF3000EEF
:104F380003019C6F0F0E9B17000E9C179B379B91CC
:104F48009C379B379B919C37C30E04014E6F190EFB
:104F58004F6FB0EC00F0BF0E0014016E0150000A54
:104F6800D8A4F6D0C40E04014E6F190E4F6FB0ECE2
:104F780000F00050000AD8A4EBD0BD0E03019B2519
:104F8800996F190E9C219A6FC60E04014E6F190E67
:104F98004F6FB0EC00F000C098F30050010AD8A49D
:104FA80095D099C34EF49AC34FF4B0EC00F000507A
:104FB800080AD8A48AD0010E0301992504014E6F6E
:104FC800000E03019A2104014F6FB0EC00F000506D
:104FD800000A7BE199C34EF49AC34FF40401506B65
:104FE80077EC00F077EC11F07CDDC70E476F190EF7
:104FF800486F496B4A6B5FEC02F0BD0E0401476FC6
:10500800190E486F9BC349F49CC34AF45EEC01F047
:10501800160E04014E6F98EC00F000C0A2F3170EB4
:1050280004014E6F98EC00F000C049F4C70E04016B
:10503800476F190E486FA2C34AF45FEC02F0020EE4
:10504800030199250401476F000E03019A21040109
:10505800486F496B4A6B5FEC02F099C347F49AC3F7
:1050680048F403019B510001945D0401496F030159
:105078009C510001955904014A6F0E0E495F000EBC
:105088004A5B5EEC01F0160E04014E6F98EC00F0DE
:1050980000C0A2F3170E04014E6F98EC00F000C098
:1050A80049F4020E030199250401476F000E03011C
:1050B8009A210401486FA2C34AF45FEC02F094C03D
:1050C80047F495C048F486EC01F042D003019851AA
:1050D800110A0DE19DC3A4F39EC3A5F39BC3A6F3D8
:1050E80099C3A7F39AC3A8F379EC23F031D003014D
:1050F8009851060A2DE1100E9D2504014E6F000EF1
:1051080003019E2104014F6FB0EC00F000C0A3F32F
:105118000301A26B94EC0CF000500301A2250001DE
:10512800946F000E0301A3210001956F0E0E9427C2
:10513800000E95239DC3A4F39EC3A5F39BC3A6F3BA
:105148009CC3A7F399C3A8F39AC3A9F37CEC18F0FE
:1051580003D0040E0301A16F1E0E04014E6F400E12
:105168004F6FECEC00F0010E3A5C016E000E3B58FC
:10517800026E0250190802E10150AD080AE20C0E55
:105188000401516FAD0E526F190E536F36EC00F0DB
:105198000BD00C0E0401516F010E3A5C526F000ED9
:0E51A8003B58536F36EC00F0A1C300F012002C
:1051B60003019A6B010E9A5DD8B036D3330E006E9A
:1051C600000E016E9AC304F0000E056E09EC01F0A4
:1051D6005F0E0026030E0122220E0024E96E000E49
:1051E6000120EA6EEE50000A01E11BD3330E006E79
:1051F600000E016E9AC304F0000E056E09EC01F074
:105206005F0E0026030E01221E0E0024E96E000E1C
:105216000120EA6EEE50000A01E1DAD0330E006E8C
:10522600000E016E9AC304F0000E056E09EC01F043
:105236005F0E0026030E01221E0E0024026E000ED3
:105246000120036E02C0E9FF03C0EAFFEE04006E10
:1052560002C0E1FF03C0E2FF00C0E6FF330E006EAE
:10526600000E016E9AC304F0000E056E09EC01F003
:105276005F0E0026030E01221E0E0024E96E000EAC
:105286000120EA6EEE50000AD8A4A2D0330E006EBA
:10529600000E016E9AC304F0000E056E09EC01F0D3
:1052A6005F0E0026030E0122250E0024E96E000E75
:1052B6000120EA6EEE50010A2FE0330E006E000E5A
:1052C600016E9AC304F0000E056E09EC01F05F0E44
:1052D6000026030E0122250E0024E96E000E012091
:1052E600EA6EEE50040A18E0330E006E000E016EF0
:1052F6009AC304F0000E056E09EC01F05F0E00265D
:10530600030E0122250E0024E96E000E0120EA6E2E
:10531600EE50060A01E05CD0330E006E000E016E00
:105326009AC304F0000E056E09EC01F05F0E00262C
:10533600030E0122250E0024E16E000E0120E26E0E
:10534600E66A330E006E000E016E9AC304F0000E7C
:10535600056E09EC01F05F0E0026030E0122220EF7
:105366000024E16E000E0120E26EE66A330E006E46
:10537600000E016E9AC304F0000E056E09EC01F0F2
:105386005F0E0026030E01222E0E0024E16E000E93
:105396000120E26EE66AE66A040E0401376F330EF8
:1053A600006E000E016E9AC304F0000E056E09EC45
:1053B60001F05F0E0026030E0122230E0024E96E83
:1053C600000E0120EA6EEECF38F46AEC02F029D224
:1053D600330E006E000E016E9AC304F0000E056EC9
:1053E60009EC01F05F0E0026030E0122250E0024B3
:1053F600E96E000E0120EA6EEE50000A01E111D2BC
:10540600330E006E000E016E9AC304F0000E056E98
:1054160009EC01F05F0E0026030E01221F0E002488
:10542600E96E000E0120EA6EEE50000A01E1F9D1A4
:10543600330E006E000E016E9AC304F0000E056E68
:1054460009EC01F05F0E0026030E01221F0E002458
:10545600026E000E0120036E02C0E9FF03C0EAFFE0
:10546600EE04006E02C0E1FF03C0E2FF00C0E6FFEB
:10547600330E006E000E016E9AC304F0000E056E28
:1054860009EC01F05F0E0026030E01221F0E002418
:10549600E96E000E0120EA6EEE50000AD8A4C1D1D2
:1054A600330E006E000E016E9AC304F0000E056EF8
:1054B60009EC01F05F0E0026030E01222A0E0024DD
:1054C600E96E000E0120EA6EEECF03F0EECF04F097
:1054D600280E0024D96E000E0120DA6EDECF01F010
:1054E600DECF02F00450021802E101500318D8B4CE
:1054F60098D1330E006E000E016E9AC304F0000EB2
:10550600056E09EC01F05F0E0026030E0122260E41
:105516000024E16E000E0120E26E280E0024E96EE2
:10552600000E0120EA6EEECFE6FFEECFE6FF330E69
:10553600006E000E016E9AC304F0000E056E09ECB3
:1055460001F05F0E0026030E01222C0E0024E96EE8
:10555600000E0120EA6EEECF03F0EECF04F0280E27
:105566000024D96E000E0120DA6EDECF01F0DECF08
:1055760002F00250045C02E10150035C26E2330EA5
:10558600006E000E016E9AC304F0000E056E09EC63
:1055960001F05F0E0026030E01222A0E0024E96E9A
:1055A600000E0120EA6E000EEE240301986F020E33
:1055B600EE20996F280E0024D96E000E0120DA6EB7
:1055C600DE50985FDE50995B21D00301330E006EEA
:1055D600000E016E9AC304F0000E056E09EC01F090
:1055E6005F0E0026030E01222A0E0024E96E000E2D
:1055F6000120EA6E280E0024D96E000E0120DA6E14
:10560600DE50EE5C986FDE50EE58996F330E006EEA
:10561600000E016E9AC304F0000E056E09EC01F04F
:105626005F0E0026030E0122100E0024D96E000E16
:105636000120DA6EDECF01F0DECF02F09951025C76
:1056460002E19851015C18E2330E006E000E016E05
:105656009AC304F0000E056E09EC01F05F0E0026F9
:10566600030E0122100E0024E96E000E0120EA6EE0
:10567600EECF98F3EECF99F3330E006E000E016E67
:105686009AC304F0000E056E09EC01F05F0E0026C9
:10569600030E01222E0E0024E16E000E0120E26EA2
:1056A60098C3E6FF99C3E6FF330E006E000E016E47
:1056B6009AC304F0000E056E09EC01F05F0E002699
:1056C600030E0122250E0024E96E000E0120EA6E6B
:1056D600EE50070A47E1330E006E000E016E9AC3C4
:1056E60004F0000E056E09EC01F05F0E0026030EB5
:1056F6000122250E0024E16E000E0120E26EE66A0C
:10570600330E006E000E016E9AC304F0000E056E95
:1057160009EC01F05F0E0026030E0122220E002482
:10572600E16E000E0120E26EE66A330E006E000E98
:10573600016E9AC304F0000E056E09EC01F05F0ECF
:105746000026030E01222E0E0024E16E000E01201B
:10575600E26EE66AE66A040E0401376F9AC338F40D
:105766006AEC02F0330E006E000E016E9AC304F06E
:10577600000E056E09EC01F05F0E0026030E0122F5
:10578600250E0024E96E000E0120EA6EEE50030A93
:1057960047E10401330E006E000E016E9AC304F059
:1057A600000E056E09EC01F05F0E0026030E0122C5
:1057B600250E0024E16E000E0120E26E070EE66E55
:1057C600330E006E000E016E9AC304F0000E056ED5
:1057D60009EC01F05F0E0026030E01221F0E0024C5
:1057E600E16E000E0120E26E030EE66E100E376FBC
:1057F600330E006E000E016E9AC304F0000E056EA5
:1058060009EC01F05F0E0026030E0122230E002490
:10581600E96E000E0120EA6EEECF38F46AEC02F073
:0A58260000D003019A2BC6D4120033
:105830000301936B010E935D45E293C300F4B4EC56
:1058400012F0330E006E000E016E93C304F0000ED2
:10585000056E09EC01F05F0E0026030E0122220EF8
:105860000024E16E000E0120E26EE66A330E006E47
:10587000000E016E93C304F0000E056E09EC01F0FA
:105880005F0E0026030E0122310E0024946F000EDD
:105890000120956F93C300F0000E016E000E046EA0
:1058A000020E056E09EC01F0120E0026010E012217
:1058B00094C3E1FF95C3E2FF00C0E6FF01C0E6FF2D
:0658C000932BB8D7120083
:1058C6000001966B976B936AFF0E816E880ED56EFC
:1058D600630ED76EC00ED66EC00EF26EF28A12003E
:1058E6000900F5CFE6FF0006FBE10106F9E112002B
:1058F6000301936B1F0E04014E6F010E4F6FECEC0C
:1059060000F01F0E04014E6F020E4F6FCFEC00F039
:10591600190E04014E6F98EC00F00050000804E2E6
:105926006CEC26F000C093F31F0E04014E6F010EBF
:105936004F6FCFEC00F01F0E04014E6F020E4F6F3B
:10594600CFEC00F04050381808E13F50371805E119
:105956003E50361802E13D50351809E035C03DF09D
:1059660036C03EF037C03FF038C040F021DC93C36C
:0459760000F012002B
:10597A00929A898A9298898840EC12F0898A40EC36
:10598A0012F0899A40EC12F0898A40EC12F0899858
:10599A00D4C0E1FFD5C0E2FFFF0EE66ED2C000F030
:1059AA00D3C001F02AEC00F0898840EC12F0C80E4E
:1059BA00296F000E2A6F93C32BF494C32CF4060E9E
:1059CA002D6F000E2E6F92EC07F0CE0E296F000E8F
:1059DA002A6F95C32BF496C32CF4040E2D6F000E78
:1059EA002E6F92EC07F01F0E4E6F010E4F6FCFEC29
:1059FA0000F01F0E04014E6F020E4F6FCFEC00F045
:105A0A00080E0401516F526B536B36EC00F00A0E0C
:105A1A000401516FAD0E526F190E536F36EC00F040
:105A2A000C0E0401516FAD0E526F190E536F36EC06
:105A3A0000F00401516B526B536B36EC00F0040E0C
:105A4A000401516FAE0E526F190E536F36EC00F00F
