:040000005FEF2BF093
:1000080000C015F0F2A416D00401714B722B000E3B
:10001800725D02E1C80E715D08E3716B726B010ECF
:100028003926000E3A223B223C22630ED76EC00EC0
:0A003800D66EF29415C000F011001E
:10004200E6C9C9FFC7B002D00000FCD7C9CF00F093
:0200520012009A
:10005400F250026EF29E0500FF6A0150FE6E0050DF
:08006400FD6E02BEF28E1200D7
:10006C008998400E0901E311006E2AC4E1FF2BC4EC
:10007C00E2FF00C0E6FF28C400F029C401F0E4DF71
:10008C002AC4E1FF2BC4E2FFE4C9E6FF28C400F058
:10009C0029C401F0D9DF2AC4E1FF2BC4E2FFE5C972
:1000AC00E6FF28C400F029C401F0CEDF89881200D5
:1000BC008998800E0901E011006E2AC4E1FF2BC45F
:1000CC00E2FF00C0E6FF28C400F029C401F0BCDF49
:1000DC002AC4E1FF2BC4E2FFE1C9E6FF28C400F00B
:0A00EC0029C401F0B1DF8988120079
:1000F60089982AC4E1FF2BC4E2FFE0C9E6FF28C4C1
:1001060000F029C401F0A3DF2AC4E1FF2BC4E2FFFB
:10011600E66A28C400F029C401F099DF8988120034
:10012600020E0901E36FE0C9E4F9E1C9E5F99BDFD5
:1001360089982AC4E1FF2BC4E2FF7A0EE66E28C432
:1001460000F029C401F083DF2AC4E1FF2BC4E2FFDB
:10015600E2C9E6FF28C400F029C401F078DF8988E7
:02016600120085
:1001680089982AC4E1FF2BC4E2FF7A0EE66E28C400
:1001780000F029C401F06ADF2AC4E1FF2BC4E2FFC2
:10018800E0C9E6FF28C400F029C401F05FDF8988D0
:02019800120053
:10019A000901E36BE0C9E4F9E1C9E5F962DF89988D
:1001AA002AC4E1FF2BC4E2FF3A0EE66E28C400F02F
:1001BA0029C401F04ADF2AC4E1FF2BC4E2FFE66A40
:0E01CA0028C400F029C401F040DF898812002B
:1001D8008998A00E0901E011006E2AC4E1FF2BC422
:1001E800E2FF00C0E6FF28C400F029C401F02EDFBA
:1001F8002AC4E1FF2BC4E2FFE1C9E6FF28C400F0EE
:0A02080029C401F023DF89881200E9
:1002120089982AC4E1FF2BC4E2FF7A0EE66E28C455
:1002220000F029C401F015DFDBC900F0DCC901F0E0
:10023200010E0901DB5F000EDC5B0050011013E0D0
:100242002AC4E1FF2BC4E2FFD9C9E9FFDAC9EAFFF8
:10025200EECFE6FF28C400F029C401F0FADE09015E
:0A026200D94BDA2BE1D7898812008E
:10026C000901DB51D925DD6FDC51DA21DE6F010E7E
:10027C00DD5F000EDE5B100EE36FD9C9E4F9DAC95D
:10028C00E5F9EEDE120E0901E36FDDC9E4F9DEC912
:10029C00E5F9E6DE1F0E0901E06F300EE16F08DFB5
:1002AC001F0E0901E06F21DF00AA01D0F9D712005F
:1002BC00D9C9E0F9DAC9E1F9DBC9E2F92EDFDCC909
:0602CC00E0F94CDF120016
:1002D200AE0E0901E06F190EE16FE26B23DFAE0E85
:1002E2000901D925006E190EDA21016E00C0D9F973
:1002F20001C0DAF9060EE36F00C0E4F901C0E5F9C6
:10030200B4DE1F0E0901E06F800EE16FD6DE1F0E14
:100312000901E06F800EE16F5EDF04012C51050AD6
:1003220004E02C51070A01E006D01C0E0901E06F1F
:100332000A0EE16F50DF1F0E0901E06F080EE16F38
:10034200BCDE04012C51050A04E02C51070A01E02D
:1003520080D00901DE6BDF6B1C0EE06FCBDE0A0E74
:10036200001600520AE10901DE4BDF2B030EDF5DAE
:1003720002E1E80EDE5D01E2EFD709011C0EE06F3B
:10038200B9DE00B208D0030E0901DF5D02E1E80E1A
:10039200DE5D01E25DD009011F0EE06F080EE16F24
:1003A2001ADF040E0901D925E06F000EDA21E16F90
:1003B200F3DE00C0DDF90901DB6B100EDB5D48E204
:1003C2001C0EE06F97DE00A23FD00901DDAB3CD0EE
:1003D2001F0EE06F800EE16F70DE1F0E0901E06FED
:1003E200800EE16FF8DE1C0E0901E06F0A0EE16F6C
:1003F200F2DE1F0E0901E06F080EE16F5EDE0901F9
:10040200DE6BDF6B1C0EE06F75DE0A0E001600520B
:100412000AE10901DE4BDF2B030EDF5D02E1E80E8C
:10042200DE5D01E2EFD709011F0EE06F080EE16FFA
:10043200D2DE040E0901D925E06F000EDA21E16F48
:10044200ABDE00C0DDF901D003D00901DB2BB5D74B
:1004520007D009011F0EE06F4DDE00A601D0F9D7CB
:100462001D0E0901E06F46DE060E0016005203E083
:100472000901DC6B03D00901010EDC6FDCC900F05D
:02048200120066
:100484000B6A0A6A096A00500402F4CF09F0F3CF38
:1004940008F001500502F4CF0BF0F3CF0AF000503E
:1004A4000502F3500926F4500A22E86A0B2201508F
:1004B4000402F3500926F4500A22E86A0B2208C009
:1004C40000F009C001F00AC002F00BC003F01200F2
:1004D400CBC904F0CCC905F0C9C902F0CAC903F0FC
:1004E400CDC900F0CEC901F0010E0901CD5F000EA7
:1004F400CE5B005001100FE004C0E9FF05C0EAFF25
:1005040002C0E1FF03C0E2FFEECFE6FF024A032A86
:10051400044A052AE5D7C9C900F0CAC901F0120086
:100524000901D66B010ECB5F000ECC5BCF530DE0FF
:10053400CC51190802E1CB51AD0807E2D62BAD0E20
:10054400CB5DD46F190ECC59D56FD65305E0AD0EE3
:10055400D06F190ED16F04D0CBC9D0F9CCC9D1F961
:10056400CA51D11902E1D051C9190DE1C9C9E0F943
:10057400CAC9E1F910DE00C0E2F9CDC9E0F9CEC97B
:10058400E1F9CFDD36D0100E0901E36FC9C9E4F9F2
:10059400CAC9E5F969DD120E0901E36FD65305E016
:1005A400AD0ED26F190ED36F04D0CBC9D2F9CCC91A
:1005B400D3F9D2C9E4F9D3C9E5F956DD140E09011A
:1005C400E36FCDC9E4F9CEC9E5F94EDD1F0E09018B
:1005D400E06F100EE16FFEDD1F0E0901E06F200ECB
:1005E400E16F6ADD1F0E0901E06F83DD00AA01D00F
:1005F400F9D70901D6531AE0C951CB5D006ECA512F
:10060400CC59016ED451005ED551015A004A012AD9
:100614000050CD270150CE23010ED45DCB6F000EC8
:0E062400D559CC6FC96BCA6BD66B8FD712003D
:1006320089982AC4E1FF2BC4E2FF7A0EE66E28C431
:1006420000F029C401F005DD2AC4E1FF2BC4E2FF5A
:10065200CAC9E6FF28C400F029C401F0FADC2AC4A2
:10066200E1FF2BC4E2FFC9C9E6FF28C400F029C498
:0806720001F0EFDC89881200A1
:10067A00020E0901C915016E0150000A05E01C0E9F
:10068A00CD6F000ECE6F04D0140ECD6F000ECE6F5C
:10069A00500ED56FD66B330E006E000E016ECAC9AE
:1006AA0004F0000E056EE9DED00E0026080E0122C7
:1006BA002E0E0024E96E000E0120EA6EEECF01F044
:1006CA00EECF02F0000E006E0250005C02E1015013
:1006DA00000802E2080ED66F010EC915016E01501C
:1006EA00000AD8A4D681100EC915016E0150000A5D
:1006FA00D8A4D689020EC915016E0150000A03E07A
:10070A00700ED56FD683040EC915016E0150000A0A
:10071A00D8A4D685AF0EE06F190EE16F330E006EC6
:10072A00000E016ECAC904F0000E056EA6DED00ED8
:10073A000026080E0122040E0024E96E000E012094
:10074A00EA6EEECFE2F9EADC330E006E000E016EBD
:10075A00CAC904F0000E056E90DED00E002409010D
:10076A00D96F080E0120DA6F040ED927000EDA239A
:10077A00D94BDA2B050EDB6F000EDC6F45DD310E2F
:10078A00D96F040EDA6F060EDB6F000EDC6F3CDDEC
:10079A00080EE06FE4DC0901E06BE1DC450E0901BB
:1007AA00E06FDDDC0901E06BDADC330E006E000E6F
:1007BA00016ECAC904F0000E056E5FDED00E002677
:1007CA00080E01222E0E0024D96E000E0120DA6EC8
:1007DA00DE500901CD25CF6FDE50CE21D06F140E29
:1007EA00CF27000ED023D0C9E0F9B9DCCFC9E0F990
:1007FA00B6DC330E006E000E016ECAC904F0000E9C
:10080A00056E3BDED00E0026080E0122200E0026C1
:10081A00000E0122010E0024E96E000E0120EA6E8C
:10082A00EECFE0F99CDC330E006E000E016ECAC9F1
:10083A0004F0000E056E21DED00E0026080E0122FD
:10084A00200E00240901D76F000E0120D86FD7C9E6
:10085A00E9FFD8C9EAFFEECFE0F981DCD7C9E9FFA1
:10086A00D8C9EAFF010EEE24006E000EEE20016EDA
:10087A00D7C9E1FFD8C9E2FF00C0E6FF01C0E6FF21
:10088A00400E0901E06F6BDC0901E06B68DC800E49
:10089A000901E06F64DC060E0901E06F60DC090102
:1008AA00E06B5DDC0901E06B5ADC640E0901D96F6B
:1008BA00040EDA6F040EDB6F000EDC6FA5DC330E5C
:1008CA00006E000E016ECAC904F0000E056ED5DD79
:1008DA00D00E0024D96F080E0120DA6F040EDB6FE8
:1008EA00000EDC6F91DCBD0ED96F190EDA6F140E93
:1008FA00DB6F000EDC6FB5DC160E0901E06F7BECD6
:10090A0000F000C0D7F9170E0901E06F7BEC00F088
:10091A0000C0DBF9C70E0901D96F190EDA6FD7C902
:10092A00DCF9C7DCD10E0901E06F190EE16F330E55
:10093A00006E000E016ECAC904F0000E056E9DDD40
:10094A00D00E0026080E01220C0E0026000E0122EF
:10095A00010E0024E96E000E0120EA6EEECFE2F9E4
:10096A0093EC00F0330E006E000E016ECAC904F05B
:10097A00000E056E82DDD00E0026080E01220C0E36
:10098A000024E96E000E0120EA6EEECFE0F9B4EC25
:10099A0000F0330E006E000E016ECAC904F0000E9C
:1009AA00056E6BDDD00E0026080E01220A0E002607
:1009BA00000E0122010E0024E96E000E0120EA6EEB
:1009CA00EECFE0F9B4EC00F0330E006E000E016ECB
:1009DA00CAC904F0000E056E50DDD00E0026080EBE
:1009EA0001220A0E0024E96E000E0120EA6EEECF03
:1009FA00E0F9B4EC00F0330E006E000E016ECAC9C5
:100A0A0004F0000E056E39DDD00E0026080E012214
:100A1A00160E0026000E0122030E0024E96E000EB7
:100A2A000120EA6EEECFE0F9B4EC00F0330E006E6E
:100A3A00000E016ECAC904F0000E056E1EDDD00E4E
:100A4A000026080E0122160E0026000E0122020EB2
:100A5A000024E96E000E0120EA6EEECFE0F9B4EC54
:100A6A0000F0330E006E000E016ECAC904F0000ECB
:100A7A00056E03DDD00E0026080E0122160E002692
:100A8A00000E0122010E0024E96E000E0120EA6E1A
:100A9A00EECFE0F9B4EC00F0330E006E000E016EFA
:100AAA00CAC904F0000E056EE8DCD00E0026080E56
:100ABA000122160E0024E96E000E0120EA6EEECF26
:100ACA00E0F9B4EC00F0330E006E000E016ECAC9F4
:100ADA0004F0000E056ED1DCD00E0026080E0122AD
:100AEA001A0E0026000E0122030E0024E96E000EE3
:100AFA000120EA6EEECFE0F9B4EC00F0330E006E9E
:100B0A00000E016ECAC904F0000E056EB6DCD00EE6
:100B1A000026080E01221A0E0026000E0122020EDD
:100B2A000024E96E000E0120EA6EEECFE0F9B4EC83
:100B3A0000F0330E006E000E016ECAC904F0000EFA
:100B4A00056E9BDCD00E0026080E01221A0E002626
:100B5A00000E0122010E0024E96E000E0120EA6E49
:100B6A00EECFE0F9B4EC00F0330E006E000E016E29
:100B7A00CAC904F0000E056E80DCD00E0026080EED
:100B8A0001221A0E0024E96E000E0120EA6EEECF51
:100B9A00E0F9B4EC00F0D5C9E0F9B4EC00F0D6C93C
:100BAA00E0F9B4EC00F0330E006E000E016ECAC913
:100BBA0004F0000E056E61DCD00E0026080E01223C
:100BCA00120E0026000E0122010E0024E96E000E0C
:100BDA000120EA6EEECFE0F9B4EC00F0330E006EBD
:100BEA00000E016ECAC904F0000E056E46DCD00E76
:100BFA000026080E0122120E0024E96E000E0120C2
:100C0A00EA6EEECFE0F9B4EC00F00901E06BB4EC67
:100C1A0000F00901E06BB4EC00F00901E06BB4EC00
:100C2A0000F00901E06BB4EC00F0020E0901C915ED
:100C3A00016E0150000A50E0020EE06FB4EC00F0C1
:100C4A00040E0901E06FB4EC00F0330E006E000EE2
:100C5A00016ECAC904F0000E056E0FDCD00E002624
:100C6A00080E0122140E0026000E0122010E002495
:100C7A00E96E000E0120EA6EEECFE0F9B4EC00F066
:100C8A00330E006E000E016ECAC904F0000E056E26
:100C9A0042EC02F0D00E0026080E0122140E0024A7
:100CAA00E96E000E0120EA6EEECFE0F9B4EC00F036
:100CBA00010E0901E06FB4EC00F0010E0901E06FCA
:100CCA00B4EC00F0040E0901E06FB4EC00F0020E7F
:100CDA000901E06FB4EC00F0330E006E000E016EF5
:100CEA00CAC904F0000E056E42EC02F0D00E0026CE
:100CFA00080E01222E0E0024E96E000E0120EA6E73
:100D0A00EECF01F0EECF02F0000E006E0250005C52
:100D1A0002E10150000861E20901D36BD46B330E82
:100D2A00006E000E016ECAC904F0000E056E42EC98
:100D3A0002F0D00E0026080E01222E0E0024D96ED3
:100D4A00000E0120DA6EDECF01F0DECF02F0025093
:100D5A00D45D02E10150D35D40E2330E006E000E15
:100D6A00016ECAC904F0000E056E42EC02F0D00E04
:100D7A000024046E080E0120056E260E0424E96E76
:100D8A00000E0520EA6ED351EE24026ED451EE20F5
:100D9A00036E000E006E040E016E010E005E000E60
:100DAA00015A0050021601500316310E0424E96E4E
:100DBA00000E0520EA6EEECF00F0EECF01F00250F1
:100DCA000024E96E03500120EA6EEECFE0F9B4EC9C
:100DDA0000F00901D34BD42BA2D70901D10ECD259E
:100DEA00D76F190ECE21D86F330E006E000E016E2A
:100DFA00CAC904F0000E056E42EC02F0D00E0026BD
:100E0A00080E01222E0E0024026E000E0120036E2F
:100E1A0002C0D9FF03C0DAFFDE50D725006EDE50CC
:100E2A00D821016E00C0CBF901C0CCF902C0E9FF9C
:100E3A0003C0EAFF010EEE14D16FEECFD2F9000E15
:100E4A00D21700C0E0F901C0E1F9E26B93EC00F0BF
:100E5A000901D151CB25D96FD251CC21DA6F64C4A3
:100E6A00DBF965C4DCF95EEC01F00901D151CB254F
:100E7A00D96FD251CC21DA6F020ED927000EDA23AC
:100E8A0066C4DBF967C4DCF95EEC01F00901D151F3
:100E9A00CB25D96FD251CC21DA6F040ED927000E97
:100EAA00DA23330E006E000E016ECAC904F0000E7A
:100EBA00056E42EC02F0D00E0026080E012200C098
:100ECA00E9FF01C0EAFFEECFDBF9010E0024E96E6B
:100EDA00000E0120EA6EEECFDCF95EEC01F00901AA
:100EEA00D151CB25D96FD251CC21DA6F060ED92731
:100EFA00000EDA23330E006E000E016ECAC904F02A
:100F0A00000E056E42EC02F0D00E0026080E0122F9
:100F1A00020E0024E96E000E0120EA6EEECFDBF924
:100F2A00030E0024E96E000E0120EA6EEECFDCF912
:100F3A005EEC01F0080E0901CB25D96F000ECC2119
:100F4A00DA6FD151D927D251DA23DB6B060EDC6F67
:100F5A005EEC01F00A0E0901CB25D96F000ECC21F7
:100F6A00DA6FD151D927D251DA23330E006E000E2F
:100F7A00016ECAC904F0000E056E42EC02F0D00EF2
:100F8A000026080E01222E0E0024E96E000E012012
:100F9A00EA6EEECF05F0EECF06F00550CD25036ED2
:100FAA000650CE21046E04C000F0016A00C0DBF9CD
:100FBA000550CD25DC6F5EEC01F0D10E0901D96F29
:100FCA00190EDA6F330E006E000E016ECAC904F0F4
:100FDA00000E056E42EC02F0D00E0026080E012229
:100FEA002E0E0024D96E000E0120DA6EDE50CD25B9
:100FFA00DB6FDE50CE21DC6F0C0EDB27000EDC230C
:10100A00D151DB27D251DC2336EC01F0160E09014F
:10101A00E06F7BEC00F000C0D7F9170E0901E06F12
:10102A007BEC00F000C0DBF9E10E0901D96F190E63
:10103A00DA6FD7C9DCF95EEC01F0220E0901CD2581
:10104A00D96F000ECE21DA6F330E006E000E016EDC
:10105A00CAC904F0000E056E42EC02F0D00E00265A
:10106A00080E01222E0E0024D96E000E0120DA6E1F
:0E107A00DE50D927DE50DA2369EC01F01200B7
:10108800020E0901E36FC9C9E4F9CAC9E5F936ECEA
:1010980000F089982AC4E1FF2BC4E2FF7A0EE66EBD
:1010A80028C400F029C401F02AEC00F00901CD5150
:1010B800CE1118E02AC4E1FF2BC4E2FFCBC9E9FF37
:1010C800CCC9EAFFEECFE6FF28C400F029C401F03E
:1010D8002AEC00F00901CB4BCC2B010ECD5F000EA2
:0810E800CE5BE4D789881200F9
:1010F000BBC9C9F9BCC9CAF9640E0901CB6F040E9A
:10110000CC6F040ECD6F000ECE6F6AEC02F0BD6B9B
:10111000BD51030821E3BD51BB25026E000EBC2169
:10112000036E02C0E9FF03C0EAFFEECF01F0770EC5
:10113000E96E040EEA6EBD51E926D8B0EA2AFF0E28
:10114000EE18006E0150001202C0E1FF03C0E2FF82
:0A11500000C0E6FFBD2BDCD7120043
:10115A00086A096A100E0C6E013408360936045002
:10116A00085E0550D8A0053C095ED8B007D00450E7
:10117A0008260550D8B0053C0926D8900036013615
:06118A000C2EEAD7120052
:10119000086A080E0C6E003408360450085ED8B099
:0E11A00002D00826D89000360C2EF5D712008B
:1011AE00BFC901F0C0C902F0010E0901BF5F000EF8
:1011BE00C05B000E021802E1000E01181FE0BBC951
:1011CE00E9FFBCC9EAFFBDC9D9FFBEC9DAFFEE50BF
:1011DE00DE180FE0BBC9E9FFBCC9EAFFBDC9D9FFE4
:1011EE00BEC9DAFFDE50EE5C006E016A000E015AD7
:1011FE0007D0BB4BBC2BBD4BBE2BD2D7006A016AAE
:02120E001200CC
:10121000AF0E0901C96F190ECA6FBBC9CBF9BCC9A2
:10122000CCF9060ECD6F000ECE6F2EDF310ED96FCA
:10123000040EDA6F060EDB6F000EDC6F09EC01F0B6
:10124000000EC96F080ECA6F19EC03F01C0E0901DD
:10125000C325C66F000EC421C76F000EC96F450EAF
:10126000CA6F19EC03F0C6C9C9F9C7C9CAF919ECA4
:1012700003F019C9C9F91AC9CAF919EC03F009012F
:10128000194B1A2BC96BCA6B19EC03F0110E09012B
:10129000C96F800ECA6F19EC03F00901C96BCA6BE4
:1012A00019EC03F0640E0901D96F040EDA6F040E15
:1012B000DB6F000EDC6F09EC01F0BDC9D9F9BEC9C6
:1012C000DAF9040EDB6F000EDC6F09EC01F0080E9A
:1012D000C325C66F000EC421C76FBFC9C9F9C0C9F5
:1012E000CAF919EC03F0C1C9C9F9C2C9CAF919ECA4
:1012F00003F0C6C9C9F9C7C9CAF919EC03F0090155
:10130000C96BCA6B19EC03F0BD0E0901D96F190E38
:10131000DA6F140EDB6F000EDC6F36EC01F0160E88
:101320000901E06F7BEC00F000C0C8F9170E09015D
:10133000E06F7BEC00F000C0DBF9C70E0901D96F4C
:10134000190EDA6FC8C9DCF95EEC01F0010E090173
:10135000C615C56FD90EC325E06F190EC421E16F04
:10136000E26B93EC00F0C90E0901C96F190ECA6F48
:10137000D10ECB6F190ECC6FD90EC325CD6F190EC0
:10138000C421CE6FC551CD27000ECE23CF6B92EC7A
:1013900002F0D90EC325D96F190EC421DA6FC551D9
:1013A000D927000EDA23080ED927000EDA23DB6BCB
:1013B000110EDC6F5EEC01F0C7C9E0F9B4EC00F08F
:1013C000C6C9E0F9B4EC00F0D10E0901D96F190ECD
:1013D000DA6F0C0EC625DB6F000EC721DC6FC5511E
:1013E000DB27000EDC2336EC01F0160E0901E06F5E
:1013F0007BEC00F000C0C8F9170E0901E06F7BEC30
:1014000000F000C0DBF9D70E0901D96F190EDA6FB1
:10141000C8C9DCF95EEC01F02A0E0901C325D96FB9
:10142000000EC421DA6F69EC01F0000E016E1200AB
:1014300089982AC4E1FF2BC4E2FF7A0EE66E28C425
:1014400000F029C401F02AEC00F0BEC900F0BFC9C9
:1014500001F0010E0901BE5F000EBF5B00500110DC
:101460001CE02AC4E1FF2BC4E2FFBBC9F6FFBCC9E4
:10147000F7FFBDC9F8FF0900F5CF00F000C0E6FF97
:1014800028C400F029C401F02AEC00F0010E090183
:0E149000BB27000EBC23BD23D8D789881200CD
:10149E000901BE51FF0A02E1FF0EBD1907E0E36B21
:1014AE00BDC9E4F9BEC9E5F936EC00F089982AC445
:1014BE00E1FF2BC4E2FF3A0EE66E28C400F029C409
:1014CE0001F02AEC00F0BFC900F0C0C901F0010E16
:1014DE000901BF5F000EC05B0050011015E02AC469
:1014EE00E1FF2BC4E2FFE66A28C400F029C401F034
:1014FE002AEC00F0BBC9E1FFBCC9E2FF00C0E6FF69
:0C150E000901BB4BBC2BDFD78988120001
:10151A0089982AC4E1FF2BC4E2FF3A0EE66E28C47A
:10152A0000F029C401F02AEC00F02AC4E1FF2BC420
:10153A00E2FFE66A28C400F029C401F02AEC00F0B0
:04154A00898812007A
:10154E000901BC51020AD8B497D0330E006E000EBA
:10155E00016EBDC904F0000E056E42EC02F0D00E15
:10156E000024066E080E0120076E2C0E0624E96E6E
:10157E00000E0720EA6E010EEE24026E000EEE2023
:10158E00036E000E006E040E016E010E005E000E64
:10159E00015A00500214046E03500114056E04C06B
:1015AE00BEF905C0BFF9280E0624D96E000E07201D
:1015BE00DA6EDECF01F0DECF02F00550021802E146
:1015CE000150041819E1330E006E000E016EBDC9F4
:1015DE0004F0000E056E42EC02F0D00E0026080E4E
:1015EE000122300E0024E16E000E0120E26E010E8B
:1015FE00E66E020E006EACD1330E006E000E016E62
:10160E00BDC904F0000E056E42EC02F0D00E0024AF
:10161E00026E080E0120036E310E0224006E000EC3
:10162E000320016E2C0E0224D96E000E0320DA6EFA
:10163E0000C0E9FF01C0EAFFDE50EE24E16EDE508D
:10164E00EE20E26EBBC9E6FF330E006E000E016E99
:10165E00BDC904F0000E056E42EC02F0D00E00265D
:10166E00080E01222C0E0024E16E000E0120E26E07
:10167E00BEC9E6FFBFC9E6FFBC510008D8B066D1AF
:10168E00330E006E000E016EBDC904F0000E056E25
:10169E0042EC02F0D00E0026080E01222C0E002481
:1016AE00E96E000E0120EA6EEECF03F0EECF04F0ED
:1016BE002A0E0024D96E000E0120DA6EDECF01F064
:1016CE00DECF02F00250045C02E10150035C25E221
:1016DE00330E006E000E016EBDC904F0000E056ED5
:1016EE0042EC02F0D00E0026080E01222C0E002431
:1016FE00E96E000E0120EA6E000EEE24BE6F040E9F
:10170E00EE20BF6F2A0E0024D96E000E0120DA6E75
:10171E00DE50BE5FDE50BF5B20D0330E006E000E7B
:10172E00016EBDC904F0000E056E42EC02F0D00E43
:10173E000026080E01222C0E0024E96E000E012058
:10174E00EA6E2A0E0024D96E000E0120DA6EDE50EB
:10175E00EE5CBE6FDE50EE58BF6F330E006E000EA5
:10176E00016EBDC904F0000E056E42EC02F0D00E03
:10177E000026080E0122100E0024D96E000E012044
:10178E00DA6EDECF01F0DECF02F0BF51025C02E175
:10179E00BE51015C18E2330E006E000E016EBDC923
:1017AE0004F0000E056E42EC02F0D00E0026080E7C
:1017BE000122100E0024E96E000E0120EA6EEECF1B
:1017CE00BEF9EECFBFF9330E006E000E016EBDC92D
:1017DE0004F0000E056E42EC02F0D00E0026080E4C
:1017EE0001222E0E0024E16E000E0120E26EBEC913
:1017FE00E6FFBFC9E6FF330E006E000E016EBDC9D7
:10180E0004F0000E056E42EC02F0D00E0026080E1B
:10181E000122260E0024E16E000E0120E26E2A0E39
:10182E000024E96E000E0120EA6EEECFE6FFEECF49
:10183E00E6FF330E006E000E016EBDC904F0000E01
:10184E00056E42EC02F0D00E0026080E01222A0E82
:10185E000024046E000E0120056E04C0E9FF05C0D1
:10186E00EAFFBE51EE24026EBF51EE20036E000E53
:10187E00006E040E016E010E005E000E015A025043
:10188E0000160350011604C0E1FF05C0E2FF00C0C0
:10189E00E6FF01C0E6FF330E006E000E016EBDC9FD
:1018AE0004F0000E056E42EC02F0D00E0026080E7B
:1018BE0001222A0E0024E96E000E0120EA6EEECF00
:1018CE0003F0EECF04F02C0E0024D96E000E012092
:1018DE00DA6EDECF01F0DECF02F00450021802E124
:1018EE000150031816E0330E006E000E016EBDC9D6
:1018FE0004F0000E056E42EC02F0D00E0026080E2B
:10190E000122300E0024E16E000E0120E26E010E67
:10191E00E66E330E006E000E016EBDC904F0000EB1
:10192E00056E42EC02F0D00E0026080E01221F0EAC
:10193E000024E16E000E0120E26E030EE66E100E24
:10194E00C96FBDC9CAF93DEC03F002D0030E006E9B
:02195E00120075
:10196000BBC902F0BCC903F002C000F003C001F023
:10197000024A032A00C0E9FF01C0EAFFEE5201E07B
:10198000F3D70901BB51025C006EBC510358016ED4
:0A199000010E005E000E015A120065
:10199A00770E0901C96F040ECA6FABC9CBF9ACC97E
:1019AA00CCF9040ECD6F000ECE6F6AEC02F0830EF6
:1019BA00C96F040ECA6FADC9CBF9AEC9CCF9040E12
:1019CA00CD6F000ECE6F6AEC02F08B0EC96F040E5B
:1019DA00CA6FAFC9CBF9B0C9CCF9040ECD6F000EEE
:1019EA00CE6F6AEC02F02D0EBB6F040EBC6F78EC62
:0419FA0008F01200DF
:1019FE00060E0C6E2B0E0D6E0D2EFED70C2EFCD77A
:021A0E001200C4
:101A10000900F5CFE6FF0006FBE10106F9E112003F
:101A20000901AF6B050EAF5D0AE2AF51AD25E16E66
:101A3000000EAE21E26E200EE66EAF2BF3D7AF5153
:101A4000AD25E16E000EAE21E26EE66AAF07AF5142
:101A5000AD25B06F000EAE21B16F0A0E046E000E00
:101A6000056EABC900F0ACC901F0ADEC08F008C0E0
:101A700000F009C001F0300E0026B0C9E1FFB1C985
:101A8000E2FF00C0E6FF0A0E046E000E056EABC951
:101A900000F0ACC901F0ADEC08F000C0ABF901C03A
:101AA000ACF9000E011802E1000E001801E102D0AD
:061AB000AF07CDD71200C4
:101AB6000901AE6B030EAE5D0AE2AE51AC25E16ED6
:101AC600000EAD21E26E200EE66EAE2BF3D7AE51C0
:101AD600AC25E16E000EAD21E26EE66AAE07AE51B0
:101AE600AC25AF6F000EAD21B06F0A0E046EABC908
:101AF60000F0C8EC08F008C000F0300E0026AFC9B0
:101B0600E1FFB0C9E2FF00C0E6FF0A0E046EABC9F2
:101B160000F0C8EC08F000C0ABF90050000A01E183
:081B260002D0AE07DCD712006B
:101B2E00280E0901AB25E96E000EAC21EA6EEECF50
:101B3E0003F0EECF04F02C0EAB25D96E000EAC21C7
:101B4E00DA6EDECF01F0DECF02F00450021802E1B1
:101B5E000150031803E1010E006E01D0006A12005D
:101B6E000901AD6B3C0E0801AD6F000EAE6FAF6F8D
:101B7E00B06FCCDC00C0ABF90050020AD8A41ED165
:101B8E000901AC6B0F0EAC5D04E2C0DC0901AC2B9D
:101B9E00F9D7A10EBB6F080EBC6FFF0EBD6FFF0E07
:101BAE00BE6F040EBF6F000EC06F72DCAC6B080E02
:101BBE00AC5D04E2ABDC0901AC2BF9D7AC6B060EC5
:101BCE00AC5D12E2A3DC00C0ABF9310ED96E040E8F
:101BDE00DA6E0901AC51D926D8B0DA2A0050DE18D7
:101BEE0001E018D1AC2BEBD7AC6BCE0EAC5D04E2A2
:101BFE008DDC0901AC2BF9D7AE6B88DC00C0ABF9DC
:101C0E00BED084DC00C0ABF90050010A04E17EDCDA
:101C1E0000C0ADF901D0FED0CDD078DC00C0ABF95C
:101C2E000050040A0FE1A50E0901BB6F080EBC6F30
:101C3E00FF0EBD6FFF0EBE6F040EBF6F000EC06FA6
:101C4E0027DC01D0E7D0B6D061DC00C0ABF9040EC2
:101C5E00005C0FE37B0E0901BB6F040EBC6FFF0E21
:101C6E00BD6FFF0EBE6F040EBF6F000EC06F10DC97
:101C7E0001D0D0D00901040EAB5F0901ABC900F051
:101C8E00AB07005202E042DCF8D794D03FDC00C034
:101C9E00ABF9040E005C10E37F0E0901BB6F040E5E
:101CAE00BC6FFF0EBD6FFF0EBE6F040EBF6F000E3A
:101CBE00C06F4FEC0AF001D0ADD00901040EAB5F3E
:101CCE000901ABC900F0AB07005202E01FDCF8D7E8
:101CDE0071D01CDC00C0ABF90050040A10E1AF0E4D
:101CEE000901BB6F090EBC6FFF0EBD6FFF0EBE6FFD
:101CFE00040EBF6F000EC06F4FEC0AF001D08AD0F9
:101D0E0059D00901010EAE6F55D000DC00C0ABF901
:101D1E000050040A24E1AD0E0901BB6F080EBC6F22
:101D2E00FF0EBD6FFF0EBE6F040EBF6F000EC06FB5
:101D3E004FEC0AF00801B051000808E1AF5100085D
:101D4E0005E1AE51070802E1AD51080807E2080EA1
:101D5E00AD5F070EAE5B000EAF5BB05B01D05AD02D
:101D6E0029D08DEC0AF000C0ABF9ABC900F0090127
:101D7E00AB07005203E08DEC0AF0F7D71BD0090138
:101D8E00AB51350AD8B43DD7AB51010AD8B445D7BB
:101D9E00AB51030AD8B458D7AB51060AD8B476D78C
:101DAE00AB51360A96E0AB51FF0AABE0AB51330AAA
:101DBE00ACE0D7D70901AE53D8B41FD70901AD5146
:101DCE00020A0FE1730EC96F040ECA6FAF0ECB6F0E
:101DDE00090ECC6F040ECD6F000ECE6F6AEC02F0C2
:101DEE0016D0730EBB6F040EBC6FAF0EBD6F090E17
:101DFE00BE6F040EBF6F000EC06FD7EC08F0000E62
:101E0E00011802E1000E001802E00901AD6BADC928
:081E1E0000F001D0006A12007F
:101E2600ABC9BBF90901BC6B230EAC25E96E000EEC
:101E3600AD21EA6EEECFBDF9A7EC0AF0020E005E08
:021E4600120088
:101E4800250E0901AB25E16E000EAC21E26E050EF0
:101E5800E66E1E0EAB25E16E000EAC21E26E030E9F
:101E6800E66E280EAB25E16E000EAC21E26EE66A46
:101E7800E66A2A0EAB25E16E000EAC21E26EE66A38
:101E8800E66A2C0EAB25E16E000EAC21E26EE66A26
:101E9800E66A110EC96F230EAB25E96E000EAC2160
:0C1EA800EA6EEECFCAF93DEC03F0120028
:101EB400F90E0901AE6F000EAF6F020EE36FD90E7B
:101EC400E46F190EE56F36EC00F0AF0E0901BB6F3D
:101ED4005B0EBC6F000EBD6F0C0EBE6F000EBF6FAD
:101EE40018EC0AF0AB51030A0DE1AC530BE0A10E60
:101EF400D96F080EDA6F040EDB6F000EDC6F09EC8D
:101F040001F00AD0AD6B040EAD5D06E2E06BB4ECFB
:101F140000F00901AD2BF7D7AD6B0C0EAD5D06E2F9
:101F2400E06BB4EC00F00901AD2BF7D7310ED96F9B
:101F3400040EDA6F060EDB6F000EDC6F09EC01F0A5
:101F4400AD6BCA0EAD5D06E2E06BB4EC00F00901C6
:101F5400AD2BF7D7BB0EBB6F5B0EBC6F000EBD6F16
:101F6400060EBE6F000EBF6F18EC0AF0ABC9E0F9A5
:101F7400B4EC00F00901AB51030A1AE1AC5318E1C7
:101F8400360EE06FB4EC00F0040E0901E06FB4EC1F
:101F940000F0730E0901D96F040EDA6F040EDB6FC3
:101FA400000EDC6F09EC01F0060EAE27000EAF2325
:101FB400C10EBB6F5B0EBC6F000EBD6F050EBE6F16
:101FC400000EBF6F18EC0AF0AB51030A23E1AC53C7
:101FD40021E1320EE06FB4EC00F0040E0901E06F71
:101FE400B4EC00F00901AD6B040EAD5D0FE2A10E7F
:101FF400E96E080EEA6EAD51E926D8B0EA2AEECFB2
:10200400E0F9B4EC00F00901AD2BEED7060EAE27D3
:10201400000EAF23FF0EE06FB4EC00F0160E0901C2
:10202400BB6F000EBC6F160EBD6F000EBE6F440E6C
:10203400BF6F000EC06F430EC16F000EC26FAEC9FA
:0C204400C3F9AFC9C4F908EC09F01200A0
:102050000901AB517A0804E3610EAB5DD8B0AB9BCC
:06206000ABC900F0120004
:10206600ABC902F0ACC903F0AEC900F0AFC901F0CC
:10207600010E0901AE5F000EAF5B0050011009E0D2
:1020860002C0E1FF03C0E2FFADC9E6FF024A032A30
:0C209600EBD7ABC900F0ACC901F01200A0
:1020A2000901B96BBA6BABC9B3F9ACC9B4F9B35195
:1020B200AD25E96EB451AE21EA6EEE50000A49E058
:1020C200B351AD25E96EB451AE21EA6EAFC9D9FF65
:1020D200B0C9DAFFEE50DE1832E1B3C9B5F9B4C9BE
:1020E200B6F9B351B55D006EB451B659016E0050E8
:1020F200AF25E96E0150B021EA6EEE50000A05E10B
:10210200010EB96F000EBA6F1AD0B551AD25E96E46
:10211200B651AE21EA6EB351B55D006EB451B659F7
:10212200016E0050AF25D96E0150B021DA6EEE502B
:10213200DE1801E101D003D0B54BB62BD2D7000E89
:10214200BA1902E1010EB91901E103D0B34BB42B64
:10215200AED7B76BB86BB5C9B3F9B6C9B4F9B1C9E3
:10216200BBF9B2C9BCF9B0EC0CF00050B525026E57
:102172000150B621036E800EB419006E800E031852
:10218200005C02E10250B35D13E2580EB325E16E2A
:10219200000EB421E26EB751B125E96EB851B221F9
:1021A200EA6EEECFE6FFB74BB82BB34BB42BD7D7C3
:0A21B200B5C900F0B6C901F0120033
:1021BC00B50E0901C96F190ECA6FBB0ECB6F190E84
:1021CC00CC6FAF0ECD6F190ECE6FCF6B92EC02F0C1
:1021DC00B50EC96F190ECA6F310ECB6F040ECC6FD2
:0E21EC00060ECD6F000ECE6F44EC08F0120010
:1021FA008DEC0AF08DEC0AF08DEC0AF000C08FF934
:10220A008DEC0AF000C08EF98DEC0AF000C091F94D
:10221A008DEC0AF000C090F98DEC0AF000C093F939
:10222A008DEC0AF000C092F98DEC0AF08DEC0AF000
:10223A008DEC0AF08DEC0AF090C900F091C901F01A
:10224A00010E0901905F000E915B005001100EE033
:10225A008DEC0AF0005201E0FBD78DEC0AF08DEC10
:10226A000AF08DEC0AF08DEC0AF0E6D792C900F07C
:10227A0093C901F0010E0901925F000E935B0050B1
:10228A00011048E08DEC0AF08DEC0AF08DEC0AF0B2
:10229A0000C097F98DEC0AF000C096F98DEC0AF0AF
:1022AA008DEC0AF08DEC0AF08DEC0AF08DEC0AF058
:1022BA008DEC0AF08DEC0AF000C095F98DEC0AF06D
:1022CA0000C094F9000E0901971902E1010E96194E
:1022DA0011E18DEC0AF000C0A9F88DEC0AF000C0FB
:1022EA00AAF88DEC0AF000C0ABF88DEC0AF000C039
:1022FA00ACF810D094C900F095C901F0010E09019B
:10230A00945F000E955B0050011003E08DEC0AF01B
:06231A00F1D7ACD7120060
:1023200009018F51190802E18E51AD0808E2AD0E86
:102330008E5F190E8F5B010E8E5F000E8F5BE36B5D
:0E2340008EC9E4F98FC9E5F936EC00F0120001
:10234E0009018E6BC80E8E5D06E2FFEC0CF0FFEC01
:08235E000CF08E2BF7D71200E2
:102366000901E06B7BEC00F000C093F9010E090156
:10237600E06F7BEC00F000C094F90901E36B8EC9B5
:10238600E4F98FC9E5F936EC00F089982AC4E1FF33
:102396002BC4E2FF3A0EE66E28C400F029C401F011
:1023A6002AEC00F00901925318E02AC4E1FF2BC47D
:1023B600E2FFE66A28C400F029C401F02AEC00F026
:1023C60090C9D9FF91C9DAFF0050DE1801E005D0A7
:1023D6000901904B912B9207E5D709018988E36B98
:1023E60093C9E4F994C9E5F936EC00F092C900F016
:0223F6001200D3
:1023F8008998400E09018E11006E2AC4E1FF2BC492
:10240800E2FF00C0E6FF28C400F029C401F02AEC6E
:1024180000F02AC4E1FF2BC4E2FF8FC9E6FF28C4FD
:0E24280000F029C401F02AEC00F089881200AF
:10243600330E006E000E016E8EC904F0000E056E9E
:1024460042EC02F0D00E0026080E0122220E0024D5
:10245600E16E000E0120E26E010EE66E330E006E96
:10246600000E016E8EC904F0000E056E42EC02F0FD
:10247600D00E0026080E0122230E0024E16E000E67
:102486000120E26E8EC9E6FF330E006E000E016E6D
:102496008EC904F0000E056E42EC02F0D00E002646
:1024A600080E0122260E0024E16E000E0120E26EC7
:1024B600E66AE66A330E006E000E016E8EC904F0FF
:1024C600000E056E42EC02F0D00E0026080E012228
:1024D600280E0024E16E000E0120E26EE66AE66A2E
:1024E600330E006E000E016E8EC904F0000E056EEE
:1024F60042EC02F0D00E0026080E01222A0E00241D
:10250600E16E000E0120E26EE66AE66A330E006EA8
:10251600000E016E8EC904F0000E056E42EC02F04C
:10252600D00E0026080E01222C0E0024E16E000EAD
:102536000120E26EE66AE66A330E006E000E016E58
:102546008EC904F0000E056E42EC02F0D00E002695
:10255600080E01222E0E0024E16E000E0120E26E0E
:10256600E66AE66A330E006E000E016E8EC904F04E
:10257600000E056E42EC02F0D00E0026080E012277
:10258600200E0024E16E000E0120E26E010EE66EC2
:10259600010EE66E330E006E000E016E8EC904F05B
:1025A600000E056E42EC02F0D00E0026080E012247
:1025B6000A0E0024E16E000E0120E26EE66AE66A6B
:1025C600330E006E000E016E8EC904F0000E056E0D
:1025D60042EC02F0D00E0026080E01220C0E00245A
:1025E600E16E000E0120E26EE66AE66A330E006EC8
:1025F600000E016E8EC904F0000E056E42EC02F06C
:10260600D00E0026080E01221F0E0024E16E000ED9
:102616000120E26EE66A330E006E000E016E8EC970
:1026260004F0000E056E42EC02F0D00E0026080EF5
:1026360001221E0E0024E16E000E0120E26EE66A03
:10264600330E006E000E016E8EC904F0000E056E8C
:1026560042EC02F0D00E0026080E0122250E0024C0
:10266600E16E000E0120E26EE66A330E006E000E89
:10267600016E8EC904F0000E056E42EC02F0D00E1B
:102686000026080E01221A0E0024E16E000E01201B
:10269600E26EE66AE66AE66AE66A330E006E000EE7
:1026A600016E8EC904F0000E056E42EC02F0D00EEB
:1026B6000026080E0122160E0024E16E000E0120EF
:1026C600E26EE66AE66AE66AE66A330E006E000EB7
:1026D600016E8EC904F0000E056E42EC02F0D00EBB
:1026E6000026080E0122140E0024E16E000E0120C1
:1026F600E26E1E0EE66E000EE66E330E006E000EE5
:10270600016E8EC904F0000E056E42EC02F0D00E8A
:102716000026080E0122120E0024E16E000E012092
:10272600E26E1E0EE66E000EE66E330E006E000EB4
:10273600016E8EC904F0000E056E42EC02F0D00E5A
:102746000026080E0122240E0024E16E000E012050
:06275600E26EE66A1200CB
:10275C00940EF66E5B0EF76E000EF86E900EE16E38
:10276C00090EE26E1B0E006E010E016E08EC0DF0F0
:10277C004550000A2DE1010E456E0901AB6BAC6BA7
:10278C00580EAD6F000EAE6F980EAF6F090EB06F96
:10279C00900EB16F090EB26F7EDC00C0ABF901C0B8
:1027AC00ACF9580EAD6F000EAE6F460EAF6F000E4B
:1027BC00B06F510EB16F000EB26F6DDC580EBB6F67
:1027CC00000EBC6FB0EC0CF000C003F901C004F9B2
:1027DC004550010AD8A4E5D00901230E8E25E96ED7
:1027EC00000E8F21EA6EEECF03F003C000F0000E56
:1027FC00016E003600900136050E0024E96E090EBC
:10280C000120EA6EEECF01F0EECF02F00451025C33
:10281C0002E10351015C65E2230E8E25E96E000E88
:10282C008F21EA6EEECF03F003C000F0000E016EB4
:10283C00003600900136050E0024046E090E0120AE
:10284C00056E04C0E9FF05C0EAFFEECF02F0EECF43
:10285C0003F0010E0224006E000E0320016E04C072
:10286C00E1FF05C0E2FF00C0E6FF01C0E6FF580E25
:10287C000224E96E000E0320EA6EEECFABF98EC98E
:10288C00ACF98FC9ADF913EC0FF00050000A28E138
:10289C00230E8E25E96E000E8F21EA6EEECF03F02B
:1028AC0003C000F0000E016E003600900136050EDC
:1028BC000024026E090E0120036E02C0E9FF03C062
:1028CC00EAFF010EEE5C006E000EEE58016E02C0C7
:1028DC00E1FF03C0E2FF00C0E6FF01C0E6FF01D04C
:1028EC007BD78EC9ABF98FC9ACF997EC0DF00052C0
:1028FC0058E0230E8E25E96E000E8F21EA6EEECF86
:10290C0003F003C000F0000E016E0036009001369B
:10291C00050E0024E96E090E0120EA6EEECF01F0DF
:10292C00EECF02F00451025C02E10351015C39E389
:10293C008EC9ABF98FC9ACF924EC0FF0230E8E25A0
:10294C00D96E000E8F21DA6EDECF00F0000E016E14
:10295C00330E046E000E056E42EC02F0D00E002613
:10296C00080E0122250E0024E16E000E0120E26EFD
:10297C00E66A456A230E8E25E96E000E8F21EA6EFB
:10298C00EECF03F003C000F0000E016E0036009095
:10299C000136050E0024E16E090E0120E26EE66A96
:0429AC00E66A1200C5
:1029B0008EC9E9FF8FC9EAFFEECFABF9B10E09016D
:1029C000AC6F080EAD6F5BEC0DF02E0E0801B46F0E
:1029D000010E09018E25E96E000E8F21EA6EEECF01
:1029E000ABF9B50EAC6F080EAD6F5BEC0DF02E0EB3
:1029F0000801B86F020E09018E25E96E000E8F21C5
:102A0000EA6EEECFABF9B90EAC6F080EAD6F5BECB2
:102A10000DF02E0E0801BC6F030E09018E25E96E24
:102A2000000E8F21EA6EEECFABF9BD0EAC6F080E33
:102A3000AD6F5BEC0DF03A0E0801C06F0A0E090194
:102A40008E25E96E000E8F21EA6EEECFABF9EECF48
:102A5000ACF9C10EAD6F080EAE6F10EC0DF05B0E51
:102A60000801C66F0C0E09018E25E96E000E8F213C
:102A7000EA6EEECFABF9EECFACF9C70EAD6F080E34
:102A8000AE6F10EC0DF05D0E0801CC6FCD6B0E0E2D
:102A900009018E25D96E000E8F21DA6E1C0EDE2400
:102AA000906F000EDE20916FB10ED96F080EDA6FB5
:102AB0001C0EDB6F000EDC6F09EC01F009010E0E3D
:102AC0008E25046E000E8F21056E04C0E9FF05C03F
:102AD000EAFFEECF02F0EECF03F0010E025C006ED3
:102AE000000E0358016E04C0E1FF05C0E2FF00C004
:102AF000E6FF01C0E6FF025003100BE08DEC0AF088
:102B000000C0ABF928EC10F000C0E0F9B4EC00F024
:0C2B1000D5D790C900F091C901F0120067
:102B1C008EC9BBF98FC9BCF9160E0901BD6F000E29
:102B2C00BE6F040EBF6F000EC06FD7EC08F0000E26
:102B3C00011802E1000E001803E1020E006E19D01C
:102B4C008EC9BBF98FC9BCF92D0E0901BD6F040EDE
:102B5C00BE6F040EBF6F000EC06FD7EC08F0000EF6
:102B6C00011802E1000E001803E1010E006E01D005
:042B7C00006A1200D9
:102B8000B2D0640E0901AB6F040EAC6FAD6B040ED6
:102B9000AE6F000EAF6F33EC10F0010EAB6FAC6B8D
:102BA0005AEC0FF039C087F43AC088F43BC089F47E
:102BB0003CC08AF4030E346EA7D0050E04018725AD
:102BC000016E000E8821026E000E8921036E000E38
:102BD0008A21046E3C50045C08E13B50035C05E133
:102BE0003A50025C02E13950015C02E2020E346E9E
:102BF000B7EC0DF00050020A03E1040E346E01D070
:102C000083D0030E0901AB6F33C0ACF95AEC0FF05F
:102C100039C087F43AC088F43BC089F43CC08AF4D8
:102C2000050E346E71D0B7EC0DF000C08EF9005077
:102C3000060A03E1040E346E2CD009018E51050AF8
:102C400028E139C087F43AC088F43BC089F43CC01D
:102C50008AF4060E346E640EC96F040ECA6FA10E9C
:102C6000CB6F080ECC6F040ECD6F000ECE6F6AECEA
:102C700002F0A50EAB6F080EAC6F7B0EAD6F040EAD
:102C8000AE6F7F0EAF6F040EB06FCDEC0CF0336AF9
:102C90003BD03AD0010E04018725016E000E882139
:102CA000026E000E8921036E000E8A21046E04500C
:102CB0003C5C08E103503B5C05E102503A5C02E1F8
:102CC0000150395C0FE3010E0801AD5F000EAE5BF1
:102CD000AF5BB05B39C087F43AC088F43BC089F47D
:102CE0003CC08AF411D03450020AD8B44AD73450C8
:102CF000030AD8B462D73450040A83E03450050A7A
:0A2D000092E03450060AC6E012000B
:102D0A001F0E0901E06F010EE16FECEC00F01F0EDF
:102D1A000901E06F020EE16F5EEC00F0140E09018A
:102D2A008E6F2CC98FF9FCEC11F0A7EC11F0160E7E
:102D3A008E6F2EC98FF9FCEC11F0A7EC11F0170E6B
:102D4A008E6F2DC98FF9FCEC11F0A7EC11F012006F
:102D5A001F0E0901E06F010EE16FECEC00F01F0E8F
:102D6A000901E06F020EE16F5EEC00F0140E09013A
:102D7A008E6F2CC98FF9FCEC11F0120E0901E06F6D
:102D8A00010EE16F5EEC00F0A7EC11F0120EE06F9D
:102D9A00010EE16FECEC00F0160E0901E06F7BEC1E
:102DAA0000F02FC9E1FF30C9E2FF00C0E6FF170EAD
:102DBA000901E06F7BEC00F02DC9E1FF2EC9E2FFAB
:062DCA0000C0E6FF12004C
:102DD00009017A6B836B886B896B8A6B8B6B7F0EB7
:102DE000BB6F090EBC6F0E0E2C25BD6F000E2D2182
:102DF000BE6F100EBD27000EBE23040EBF6F000E67
:102E0000C06F4FEC0AF07B0EBB6F090EBC6F0E0E4D
:102E10002C25BD6F000E2D21BE6F0C0EBD27000EA0
:102E2000BE23040EBF6F000EC06F4FEC0AF030C916
:102E3000E0F931C9E1F9CDEC00F000C03FF98DECCB
:102E40000AF000C03EF98DEC0AF000C041F98DECAB
:102E50000AF000C040F90901846B856B800E85196A
:102E6000006E000E800A005C02E1010E845DD8B0A5
:102E7000C7D0330E006E000E016E84C904F085C900
:102E800005F042EC02F0D00E0026080E0122220EC0
:102E90000024E96E000E0120EA6EEE50000A0FE1F8
:102EA000000E8B1902E1000E8A1908E184C986F927
:102EB00085C987F9010E8A6F000E8B6F9ED0330E85
:102EC000006E000E016E84C904F085C905F042EC65
:102ED00002F0D00E0024D96E080E0120DA6EDECF8B
:102EE00001F07B510118D8A488D0330E006E000E7B
:102EF000016E84C904F085C905F042EC02F0D00EE1
:102F00000026080E0122010E0024D96E000E0120B9
:102F1000DA6E7C51DE1871E1330E006E000E016E28
:102F200084C904F085C905F042EC02F0D00E0026F9
:102F3000080E0122020E0024D96E000E0120DA6E66
:102F40007D51DE185AE1330E006E000E016E84C909
:102F500004F085C905F042EC02F0D00E0026080E00
:102F60000122030E0024D96E000E0120DA6E7E517C
:102F7000DE1843E1330E006E000E016E84C904F0CA
:102F800085C905F042EC02F0D00E0026080E0122A1
:102F90000A0E0024D96E000E0120DA6EDECF01F099
:102FA000DECF02F03F51021802E101503E1925E147
:102FB000330E006E000E016E84C904F085C905F061
:102FC00042EC02F0D00E0026080E01220C0E002466
:102FD000D96E000E0120DA6EDECF01F0DECF02F0F6
:102FE0004151021802E10150401907E184C983F9F7
:102FF000010E886F000E896F03D0844B852B2ED76E
:10300000000E891902E1000E8819D8A491D0000E93
:103010008B1902E1010E8A19D8A48AD086C98EF9CB
:103020001BEC12F086C983F9330E006E000E016EA0
:1030300086C904F0000E056E42EC02F0D00E0024AA
:10304000E16E080E0120E26E7BC9E6FF330E006ED2
:10305000000E016E83C904F0000E056E42EC02F012
:10306000D00E0026080E0122010E0024E16E000E93
:103070000120E26E7CC9E6FF330E006E000E016E89
:1030800083C904F0000E056E42EC02F0D00E00265B
:10309000080E0122020E0024E16E000E0120E26EF5
:1030A0007DC9E6FF330E006E000E016E83C904F089
:1030B000000E056E42EC02F0D00E0026080E012232
:1030C000030E0024E16E000E0120E26E7EC9E6FFD1
:1030D000330E006E000E016E83C904F0000E056E03
:1030E00042EC02F0D00E0026080E01220C0E002445
:1030F000E16E000E0120E26E40C9E6FF41C9E6FF25
:10310000330E006E000E016E83C904F0000E056ED2
:1031100042EC02F0D00E0026080E01220A0E002416
:10312000E16E000E0120E26E3EC9E6FF3FC9E6FFF8
:10313000000E891902E1000E88190AE1000E8B19B0
:1031400002E1000E8A1904E1060E006EB8EF21F0CC
:10315000330E006E000E016E83C904F0000E056E82
:1031600042EC02F0D00E0026080E0122240E0024AC
:103170008C6F000E01208D6F7F0E8E6F090E8F6F8A
:10318000CDDC8CC9E1FF8DC9E2FF00C0E6FF330E44
:10319000006E000E016E83C904F0000E056E42EC55
:1031A00002F0D00E00240901BB6F080E0120BC6F95
:1031B000040EBB27000EBC23060E2C25BD6F000E8F
:1031C0002D21BE6F060EBF6F000EC06F4FEC0AF0D0
:1031D000040E3025E06F000E3121E16FCDEC00F0E0
:1031E00000C045F98DEC0AF000C044F98DEC0AF0FE
:1031F00000C043F98DEC0AF000C042F98DEC0AF0F2
:1032000000C049F98DEC0AF000C048F98DEC0AF0D5
:1032100000C047F98DEC0AF000C046F90C0E090118
:103220003025E06F000E3121E16FCDEC00F000C0E1
:103230004AF900C034F9000E0901356F3433349F68
:103240003433349F000E356FFC0E3417FF0E3517E4
:103250000D0E3025E06F000E3121E16FCDEC00F056
:103260003F0E001600C04BF90E0E09013025E06F2D
:10327000000E3121E16FCDEC00F000C04DF98DEC76
:103280000AF000C04CF98DEC0AF000C04FF98DEC4B
:103290000AF000C04EF98DEC0AF000C051F98DEC37
:1032A0000AF000C050F9330E006E000E016E83C9A3
:1032B00004F0000E056E42EC02F0D00E0026080E5F
:1032C00001220E0E0024E16E000E0120E26E0E0EB1
:1032D00004016E5D006E000E6F59016E09012E51E2
:1032E000005E2F51015A3451005E3551015A00C021
:1032F000E6FF01C0E6FF000E006E3551005C02E102
:103300003451140820E2846B856B140E345D016E19
:10331000000E3559026E0250855D02E10150845D58
:1033200012E2520E84258C6F090E85218D6F8DEC73
:103330000AF08CC9E1FF8DC9E2FF00C0E6FF090178
:10334000844B852BE2D74B51020AD8A45BD1330EB4
:10335000006E000E016E83C904F0000E056E42EC93
:1033600002F0D00E0026080E0122250E0024E96E80
:10337000000E0120EA6EEE50000A1FE1330E006ECF
:10338000000E016E83C904F0000E056E42EC02F0DF
:10339000D00E0026080E01220E0E0024E96E000E4B
:1033A0000120EA6EEECF01F0EECF02F0000E02181F
:1033B00002E1000E011801E103D0006AB8EF21F02C
:1033C0005251020A1FE1330E006E000E016E83C9D6
:1033D00004F0000E056E42EC02F0D00E0026080E3E
:1033E0000122100E0024E16E000E0120E26E54C98D
:1033F00001F0006A55510026000E012200C0E6FFD0
:1034000001C0E6FF330E006E000E016E83C904F0AA
:10341000000E056E42EC02F0D00E0026080E0122CE
:103420001A0E0024E16E000E0120E26E010E42250C
:10343000006E000E4321016E000E4421026E000E4C
:103440004521036E00C0E6FF01C0E6FF02C0E6FFB3
:1034500003C0E6FF330E006E000E016E83C904F058
:10346000000E056E42EC02F0D00E0026080E01227E
:10347000160E0024E16E000E0120E26E340EE66EA0
:10348000120EE66E000EE66EE66E330E006E000E55
:10349000016E83C904F0000E056E42EC02F0D00EFE
:1034A0000026080E0122280E0024E16E000E0120E5
:1034B000E26EE66AE66A330E006E000E016E83C9A4
:1034C00004F0000E056E42EC02F0D00E0026080E4D
:1034D00001222A0E0024E16E000E0120E26EE66A4F
:1034E000E66A330E006E000E016E83C904F0000E12
:1034F000056E42EC02F0D00E0026080E01222C0EC2
:103500000024E16E000E0120E26EE66AE66A330EE8
:10351000006E000E016E83C904F0000E056E42ECD1
:1035200002F0D00E0026080E01222E0E0024E16EBD
:10353000000E0120E26EE66AE66A120EC96F83C9C8
:10354000CAF93DEC03F0330E006E000E016E83C924
:1035500004F0000E056E42EC02F0D00E0026080EBC
:103560000122250E0024E16E000E0120E26E010E04
:10357000E66E330E006E000E016E83C904F0000E7D
:10358000056E42EC02F0D00E0026080E01221E0E3F
:103590000024E16E000E0120E26E030EE66E330E93
:1035A000006E000E016E83C904F0000E056E42EC41
:1035B00002F0D00E0026080E0122160E0024046E22
:1035C000000E0120056E04C0E9FF05C0EAFF010EF0
:1035D000EE24006E000EEE20016E000EEE20026E54
:1035E000000EEE20036E04C0E1FF05C0E2FF00C044
:1035F000E6FF01C0E6FF02C0E6FF03C0E6FF006A87
:10360000B8EF21F04B51120AD8A42BD1330E006E23
:10361000000E016E83C904F0000E056E42EC02F04C
:10362000D00E0026080E0122250E0024E96E000EA1
:103630000120EA6EEE50040A1FE1330E006E000E08
:10364000016E83C904F0000E056E42EC02F0D00E4C
:103650000026080E01220E0E0024E96E000E012045
:10366000EA6EEECF01F0EECF02F0000E021802E19A
:10367000000E011801E103D0006AB8EF21F05251A9
:10368000020A1FE1330E006E000E016E83C904F0C2
:10369000000E056E42EC02F0D00E0026080E01224C
:1036A000100E0024E16E000E0120E26E54C901F0FC
:1036B000006A55510026000E012200C0E6FF01C03D
:1036C000E6FF330E006E000E016E83C904F0000E9B
:1036D000056E42EC02F0D00E0026080E01221A0EF2
:1036E0000024E16E000E0120E26E010E4225006E04
:1036F000000E4321016E000E4421026E000E452192
:10370000036E00C0E6FF01C0E6FF02C0E6FF03C093
:10371000E6FF330E006E000E016E83C904F0000E4A
:10372000056E42EC02F0D00E0026080E0122160EA5
:103730000024E16E000E0120E26E46C9E6FF47C993
:10374000E6FF48C9E6FF49C9E6FF330E006E000EEA
:10375000016E83C904F0000E056E42EC02F0D00E3B
:103760000026080E0122280E0024E16E000E012022
:10377000E26EE66AE66A330E006E000E016E83C9E1
:1037800004F0000E056E42EC02F0D00E0026080E8A
:1037900001222A0E0024E16E000E0120E26EE66A8C
:1037A000E66A330E006E000E016E83C904F0000E4F
:1037B000056E42EC02F0D00E0026080E01222C0EFF
:1037C0000024E16E000E0120E26EE66AE66A330E26
:1037D000006E000E016E83C904F0000E056E42EC0F
:1037E00002F0D00E0026080E01222E0E0024E16EFB
:1037F000000E0120E26EE66AE66A100EC96F83C908
:10380000CAF93DEC03F0330E006E000E016E83C961
:1038100004F0000E056E42EC02F0D00E0026080EF9
:103820000122250E0024E16E000E0120E26E030E3F
:10383000E66E330E006E000E016E83C904F0000EBA
:10384000056E42EC02F0D00E0026080E01221E0E7C
:103850000024E16E000E0120E26EE66A006AB8EF15
:1038600021F0010E4B15016E0150000AD8B4A4D00E
:10387000330E006E000E016E83C904F0000E056E5B
:1038800042EC02F0D00E0026080E01221A0E00248F
:10389000E16E000E0120E26E010E4225006E000E68
:1038A0004321016E000E4421026E000E4521036E7D
:1038B00000C0E6FF01C0E6FF02C0E6FF03C0E6FF6E
:1038C000330E006E000E016E83C904F0000E056E0B
:1038D00042EC02F0D00E0026080E01222E0E00242B
:1038E000E16E000E0120E26EE66AE66A100EC96F14
:1038F00083C9CAF93DEC03F0330E006E000E016E71
:1039000083C904F0000E056E42EC02F0D00E0026D2
:10391000080E0122250E0024E96E000E0120EA6E39
:10392000EE50060A07E0110EC96F83C9CAF93DECD3
:1039300003F015D0330E006E000E016E83C904F043
:10394000000E056E42EC02F0D00E0026080E012299
:103950001E0E0024E16E000E0120E26EE66A330EB8
:10396000006E000E016E83C904F0000E056E42EC7D
:1039700002F0D00E0026080E0122250E0024E16E72
:10398000000E0120E26EE66A330E006E000E016E3C
:1039900083C904F0000E056E42EC02F0D00E002642
:1039A000080E0122220E0024E16E000E0120E26EBC
:1039B000E66A006AB8EF21F0040E4B15016E015063
:1039C000000A2DE0330E006E000E016E83C904F074
:1039D000000E056E42EC02F0D00E0026080E012209
:1039E000250E0024E16E000E0120E26EE66A330E21
:1039F000006E000E016E83C904F0000E056E42ECED
:103A000002F0D00E0026080E0122220E0024E16EE4
:103A1000000E0120E26EE66A006AB8EF21F0330E74
:103A2000006E000E016E83C904F0000E056E42ECBC
:103A300002F0D00E0026080E0122250E0024E96EA9
:103A4000000E0120EA6EEE50000A18E1330E006EFF
:103A5000000E016E83C904F0000E056E42EC02F008
:103A6000D00E0026080E0122220E0024E16E000E68
:103A70000120E26EE66A006AB8EF21F0010E7A6F6B
:103A8000100E4B15016E0150000AD8B4E6D3330E68
:103A9000006E000E016E83C904F0000E056E42EC4C
:103AA00002F0D00E0026080E0122250E0024E96E39
:103AB000000E0120EA6EEE50010A56E1330E006E50
:103AC000000E016E83C904F0000E056E42EC02F098
:103AD000D00E0026080E01221A0E0024D96E000E08
:103AE0000120DA6EDECF01F0DECF02F0DECF03F090
:103AF000DECF04F04551041808E14451031805E1F4
:103B00004351021802E1425101182BE1330E006EBD
:103B1000000E016E83C904F0000E056E42EC02F047
:103B2000D00E0026080E01221E0E0024E16E000EAB
:103B30000120E26EE66A330E006E000E016E83C94C
:103B400004F0000E056E42EC02F0D00E0026080EC6
:103B50000122250E0024E16E000E0120E26E030E0C
:103B6000E66E006AB8EF21F0330E006E000E016EB3
:103B700083C904F0000E056E42EC02F0D00E002660
:103B8000080E01221A0E0024D96E000E0120DA6EF2
:103B9000DECF01F0DECF02F0DECF03F0DECF04F0A7
:103BA0004551041808E14451031805E14351021836
:103BB00002E14251011802E0006ADAD3330E006ECE
:103BC000000E016E83C904F0000E056E42EC02F097
:103BD000D00E0026080E0122250E0024E96E000EEC
:103BE0000120EA6EEE50050A56E1330E006E000E1B
:103BF000016E83C904F0000E056E42EC02F0D00E97
:103C00000026080E01221A0E0024D96E000E012093
:103C1000DA6EDECF01F0DECF02F0DECF03F0DECFD2
:103C200004F04551041808E14451031805E14351DB
:103C3000021802E1425101182CE1330E006E000E11
:103C4000016E83C904F0000E056E42EC02F0D00E46
:103C50000026080E01221E0E0024E16E000E012037
:103C6000E26E030EE66E330E006E000E016E83C927
:103C700004F0000E056E42EC02F0D00E0026080E95
:103C80000122250E0024E16E000E0120E26E060ED8
:103C9000E66E006A6DD3330E006E000E016E83C9AE
:103CA00004F0000E056E42EC02F0D00E0026080E65
:103CB0000122250E0024E96E000E0120EA6EEE506E
:103CC000060A18E1330E006E000E016E84C904F07E
:103CD00085C905F042EC02F0D00E0026080E012244
:103CE0001E0E0024E16E000E0120E26E030EE66E51
:103CF000006A3ED3330E006E000E016E83C904F0DD
:103D0000000E056E42EC02F0D00E0026080E0122D5
:103D1000250E0024E96E000E0120EA6EEE50030A23
:103D200019E0330E006E000E016E83C904F0000E20
:103D3000056E42EC02F0D00E0026080E0122250E80
:103D40000024E96E000E0120EA6EEE50070A02E040
:103D5000006A0ED3330E006E000E016E83C904F0AC
:103D6000000E056E42EC02F0D00E0026080E012275
:103D7000280E0024E96E000E0120EA6EEECF03F05B
:103D8000EECF04F02A0E0024D96E000E0120DA6E68
:103D9000DECF01F0DECF02F00450021802E1015044
:103DA0000318D8B438D2330E006E000E016E83C9EA
:103DB00004F0000E056E42EC02F0D00E0026080E54
:103DC00001222A0E0024E96E000E0120EA6EEECFD9
:103DD00003F0EECF04F0280E0024D96E000E01206F
:103DE000DA6EDECF01F0DECF02F00250045C02E1B9
:103DF0000150035C25E2330E006E000E016E83C994
:103E000004F0000E056E42EC02F0D00E0026080E03
:103E100001222A0E0024E96E000E0120EA6E000E37
:103E2000EE24326F040EEE20336F280E0024D96E7C
:103E3000000E0120DA6EDE50325FDE50335B20D0A0
:103E4000330E006E000E016E83C904F0000E056E85
:103E500042EC02F0D00E0026080E01222A0E0024A9
:103E6000E96E000E0120EA6E280E0024D96E000EC5
:103E70000120DA6EDE50EE5C326FDE50EE58336FAA
:103E800046C936F947C937F948C938F949C939F92E
:103E9000330E006E000E016E83C904F0000E056E35
:103EA00042EC02F0D00E0026080E0122160E00246D
:103EB000D96E000E0120DA6EDECF01F0DECF02F007
:103EC000DECF03F0DECF04F04951045C08E1485135
:103ED000035C05E14751025C02E14651015CD8B048
:103EE00005D1330E006E000E016E83C904F0000E82
:103EF000056E42EC02F0D00E0026080E0122160ECE
:103F00000024E96E000E0120EA6E3251EE24016EAB
:103F10003351EE20026E000EEE20036E000EEE20F6
:103F2000046E3951045C08E13851035C05E13751F6
:103F3000025C02E13651015CD8A0D8D0330E006E8D
:103F4000000E016E83C904F0000E056E42EC02F013
:103F5000D00E0026080E0122250E0024E96E000E68
:103F60000120EA6EEE50070A16E1330E006E000ED5
:103F7000016E83C904F0000E056E42EC02F0D00E13
:103F80000026080E0122250E0024E16E000E0120FD
:103F9000E26E030EE66E330E006E000E016E83C9F4
:103FA00004F0000E056E42EC02F0D00E0026080E62
:103FB00001221F0E0024E16E000E0120E26EE66A6F
:103FC000330E006E000E016E83C904F0000E056E04
:103FD00042EC02F0D00E0026080E0122160E00263A
:103FE000000E012200C0D9FF01C0DAFF36C93AF93C
:103FF00037C93BF938C93CF939C93DF9DE503A5F58
:10400000DE503B5BDE503C5BDE503D5B00C0E1FFC1
:1040100001C0E2FF36C9E6FF37C9E6FF38C9E6FF4F
:1040200039C9E6FF330E006E000E016E83C904F03D
:10403000000E056E42EC02F0D00E0026080E0122A2
:10404000280E0024046E000E0120056E04C0E9FF56
:1040500005C0EAFF3A51EE24026E3B51EE20036E9A
:10406000000E006E040E016E010E005E000E015A7D
:10407000025000160350011604C0E1FF05C0E2FF24
:1040800000C0E6FF01C0E6FF330E006E000E016EB9
:1040900083C904F0000E056E42EC02F0D00E00263B
:1040A000080E01222E0E0024E16E000E0120E26EA9
:1040B000E66AE66A330E006E000E016E83C904F0F4
:1040C000000E056E42EC02F0D00E0026080E012212
:1040D000300E0024E96E000E0120EA6EEE50010A57
:1040E00003E1010E7A6F01D07A6B95D0330E006E2A
:1040F000000E016E83C904F0000E056E42EC02F062
:10410000D00E0026080E0122160E0024D96E000ED5
:104110000120DA6EDECF01F0DECF02F0DECF03F059
:10412000DECF04F03951041808E13851031805E1D5
:104130003751021802E13651011839E1330E006E91
:10414000000E016E83C904F0000E056E42EC02F011
:10415000D00E0026080E01222A0E0024E16E000E69
:104160000120E26E280E0024E96E000E0120EA6EA6
:10417000EECFE6FFEECFE6FF330E006E000E016ECF
:1041800083C904F0000E056E42EC02F0D00E00264A
:10419000080E01222E0E0024E16E000E0120E26EB8
:1041A00032C9E6FF33C9E6FF010E7A6F34D0330E11
:1041B000006E000E016E83C904F0000E056E42EC25
:1041C00002F0D00E0026080E0122160E0024E16E29
:1041D000000E0120E26E36C9E6FF37C9E6FF38C996
:1041E000E6FF39C9E6FF330E006E000E016E83C98B
:1041F00004F0000E056E42EC02F0D00E0026080E10
:1042000001222E0E0024E16E000E0120E26EE66A0D
:10421000E66A010E7A6F330E006E000E016E83C9DE
:1042200004F0000E056E42EC02F0D00E0026080EDF
:1042300001220E0E0024E96E000E0120EA6EEECF80
:1042400001F0EECF02F0000E006E0250005C02E1C1
:104250000150000802E2010E7A6F330E006E000E6C
:10426000016E83C904F0000E056E42EC02F0D00E20
:104270000026080E0122300E0024E16E000E0120FF
:10428000E26EE66A330E006E000E016E83C904F022
:10429000000E056E42EC02F0D00E00248E6F080E68
:1042A00001208F6FAEEC13F0330E006E000E016E26
:1042B00083C904F0000E056E42EC02F0D00E002619
:1042C000080E01220E0E0024E96E000E0120EA6E97
:1042D000EECF01F0EECF02F0000E006E0250005C57
:1042E00002E10150000839E2330E006E000E016E4B
:1042F00083C904F0000E056E42EC02F0D00E0026D9
:10430000080E01221A0E0024046E000E0120056E14
:104310000E0E0024E96E000E0120EA6EEECF00F0D2
:10432000EECF01F0000E026E036E04C0E9FF05C07F
:10433000EAFFEE500026EE500122EE500222EE502F
:10434000032204C0E1FF05C0E2FF00C0E6FF01C098
:10435000E6FF02C0E6FF03C0E6FF09017A5307E06B
:10436000BB6B020EBC6F83C9BDF9A7EC0AF0006AF3
:02437000120039
:104372002FC9E0F930C9E1F9CDEC00F000C03AF9FB
:104382008DEC0AF000C039F98DEC0AF000C038F962
:104392008DEC0AF000C037F9000E0901381902E16C
:1043A200000E371901E1D2D08DEC0AF000C03CF9C1
:1043B2008DEC0AF000C03BF9410E0901BB6F090EFA
:1043C200BC6FCD0EBD6F190EBE6F040EBF6F000E17
:1043D200C06F4FEC0AF03D0EBB6F090EBC6FC90EE9
:1043E200BD6F190EBE6F040EBF6F000EC06F4FEC93
:1043F2000AF0020EE36F080E2F25E46F000E302143
:10440200E56F36EC00F00E0E09012C258E6F000EC2
:104412002D218F6F2E518E27000E8F23080E8E278F
:10442200000E8F2390EC11F0000E09013A1902E1FF
:10443200350E391903E1FDEC10F088D0000E0901A8
:10444200381902E1440E371903E1C0EC15F07ED0B1
:10445200310E0901BB6F090EBC6FB50EBD6F190E8F
:10446200BE6F060EBF6F000EC06F4FEC0AF00E0E4D
:104472002C258E6F000E2D218F6F2E518E27000E50
:104482008F23080E8E27000E8F2390EC11F08F0ED3
:104492000901C96F040ECA6F3D0ECB6F090ECC6FB6
:1044A200040ECD6F000ECE6F6AEC02F0930EC96F50
:1044B200040ECA6F310ECB6F090ECC6F060ECD6F94
:1044C200000ECE6F6AEC02F039C999F43AC99AF437
:1044D20037C99BF438C99CF4080E3B5D006E000E90
:1044E2003C59016E00C09DF401C09EF4410E8E6FD6
:1044F200090E8F6F8EEC15F000C09FF4000E0401C0
:10450200A06F8F0E09018E6F040E8F6FD8EC14F01E
:1045120000C03BF901C03CF90050011017E0310E18
:104522000901BB6F090EBC6F3D0EBD6F090EBE6F58
:1045320037C9BFF938C9C0F939C9C1F93AC9C2F98D
:0E4542003BC9C3F93CC9C4F908EC09F01200EA
:10455000C40E0901E06F190EE16FCDEC00F000C050
:104560002CF9E8D0D50E09018E6F190E8F6F640EED
:10457000906F040E916F040E926FB3EC11F0005027
:10458000000A4BE1C40E0901E06F190EE16F020E43
:10459000E26F93EC00F0DEEC10F0CB0EC96F190E59
:1045A000CA6FCF0ECB6F190ECC6FD50ECD6F190E13
:1045B000CE6FCF6B92EC02F0CB0EC96F190ECA6FA3
:1045C000640ECB6F040ECC6F040ECD6F000ECE6F59
:1045D00044EC08F0C50EC96F190ECA6FCB0ECB6F35
:1045E000190ECC6FCF0ECD6F190ECE6FCF6B92EC34
:1045F00002F0C50EC96F190ECA6F310ECB6F040ED3
:10460000CC6F060ECD6F000ECE6F44EC08F03C0E62
:10461000D96F000EDA6F69EC01F095D00901AF0E89
:104620008E6F190E8F6F310E906F040E916F060E04
:10463000926FB3EC11F00050000A7BE1CB0E090140
:104640008E6F190E8F6F68C490F969C491F9040ECA
:10465000926FB3EC11F00050000A6BE10F0E006E88
:10466000000E016E1CC004F0000E056E42EC02F05C
:10467000370E00240901BB6F040E0120BC6F090E28
:10468000BB27000EBC23C50EBD6F190EBE6F060EF4
:10469000BF6F000EC06F4FEC0AF00F0E006E000EE1
:1046A000016E1CC004F0000E056E42EC02F0370EE5
:1046B0000024C96F040E0120CA6F050EC927000E21
:1046C000CA2368C4CBF969C4CCF9040ECD6F000EBF
:1046D000CE6F6AEC02F00F0E006E000E016E1CC071
:1046E00004F0000E056E42EC02F0370E0024E16E7D
:1046F000040E0120E26E010EE66E0F0E006E000E3B
:10470000016E1CC004F0000E056E42EC02F0370E84
:104710000026040E0122010E0024E16E000E01208D
:10472000E26E39C0E6FF3AC0E6FF3BC0E6FF3CC0A0
:10473000E6FF09D009012C51010AD8B413D72C5136
:08474000020AD8B46BD7120085
:10474800C90E0901C96F190ECA6FCD0ECB6F190EAC
:10475800CC6FCD0ECD6F190ECE6FCF6B92EC02F0F1
:10476800C90EC96F190ECA6F640ECB6F040ECC6FD9
:0E477800040ECD6F000ECE6F44EC08F0120060
:1047860009018E6B205303E00D0E216F02D0050E3A
:10479600216F21C98FF9FCEC11F0020E09018E6F11
:1047A600205303E0310E226F02D0300E226F22C951
:1047B6008FF9FCEC11F00A0E0901E36FEE0EE46FBF
:1047C600050EE56F36EC00F0040E09018E6F2053DE
:1047D60003E0150E236F02D0120E236F23C98FF943
:1047E600FCEC11F0060E09018E6F120E8F6FFCECB9
:1047F60011F00901205306E1070E8E6F0C0E8F6F24
:10480600FCEC11F00901205306E1090E8E6F3F0EF4
:104816008F6FFCEC11F01F0E0901E06F010EE16FC6
:104826005EEC00F01F0E0901E06F020EE16F5EEC18
:1048360000F0040E09018E6F31C48FF9FCEC11F003
:10484600050E09018E6F32C48FF9FCEC11F0020ED1
:1048560009018E6F33C48FF9FCEC11F0030E0901C8
:104866008E6F34C48FF9FCEC11F009018E6B35C4E0
:104876008FF9FCEC11F0010E09018E6F36C48FF929
:10488600FCEC11F0150E09018E6F8F6BFCEC11F02C
:10489600120E0901E06F7BEC00F000C02CF4090158
:1048A6002C6B250E2D6F090E2E6F260E2F6F090EFF
:1048B600306FADEC16F009012C6BFE0E25152D6F31
:1048C600205303E0010E246F01D0246B24512D13D5
:1048D60026C92EF985EC16F0100E2C6F010E2D6FE1
:1048E6002E6B85EC16F01F0EE06F040EE16F5EEC8A
:1048F60000F0A7EC11F0370EAB6F040EAC6FAD6B8A
:10490600AE6BAF6B33EC10F01F0EE06F010EE16F74
:10491600ECEC00F01F0E0901E06F020EE16FECEC0B
:0449260000F012008B
:10492A000901296B1F0EE06F010EE16FECEC00F03C
:10493A001F0E0901E06F020EE16FECEC00F00901B5
:10494A00E36B56C0E4F957C0E5F936EC00F08998F4
:10495A002AC4E1FF2BC4E2FF3A0EE66E28C400F037
:10496A0029C401F02AEC00F02AC4E1FF2BC4E2FFBB
:10497A00E66A28C400F029C401F02AEC00F000C05D
:10498A0056F02AC4E1FF2BC4E2FFE66A28C400F00D
:10499A0029C401F02AEC00F000C057F02AC4E1FF54
:1049AA002BC4E2FFE66A28C400F029C401F02AEC0D
:1049BA0000F000C06EF42AC4E1FF2BC4E2FFE66AED
:1049CA0028C400F029C401F02AEC00F000C06FF4FA
:1049DA002AC4E1FF2BC4E2FFE66A28C400F029C416
:1049EA0001F02AEC00F000C027F92AC4E1FF2BC429
:1049FA00E2FFE66A28C400F029C401F02AEC00F0BC
:104A0A0000C028F98988040E04016E5F000E6F5BEE
:104A1A005750190802E15650AD0810E356B00ED0AF
:104A2A00090128BF0BD004016F51050802E16E513C
:104A3A00EE0804E3090127AF01D003D0010E006E8E
:104A4A00C9D10901E06B7BEC00F000C025F9010E29
:104A5A000901E06F7BEC00F000C026F925C9C9F90D
:104A6A0026C9CAF904016E5109012525CB6F040133
:104A7A006F5109012621CC6FAF0ECD6F190ECE6F83
:104A8A00010ECF6F92EC02F0BB0EE06F190EE16FD0
:104A9A00CDEC00F000C028F98DEC0AF000C027F92F
:104AAA0009012851080A02E1060E271911E1BD0E73
:104ABA008E6F190E8F6F3D0E906F000E916F070E5D
:104ACA00926FB3EC11F00050000A01E13CDD58D1BD
:104ADA0009012851080A02E1000E2719D8A44DD16C
:104AEA00CD0E8E6F190E8F6F640E906F040E916F3C
:104AFA00040E926FB3EC11F0005222E0CD0E0901C0
:104B0A008E6F190E8F6F160E906F000E916F040E36
:104B1A00926FB3EC11F0005213E0CD0E09018E6FC3
:104B2A00190E8F6F2D0E906F040E916F040E926FF7
:104B3A00B3EC11F0005204E0020E0901296F1CD1F6
:104B4A000901BD0EE06F190EE16FCDEC00F0F00E19
:104B5A000014016E0150400A04E0030E0901296F96
:104B6A000BD10901BD0EE06F190EE16FCDEC00F01B
:104B7A0000C023F9000E0901246F0F0E2317000E3F
:104B8A002417233723912437233723912437C30E3D
:104B9A00E06F190EE16FCDEC00F0BF0E0014016E4C
:104BAA000150000AD8A4E8D0C40E0901E06F190E1A
:104BBA00E16FCDEC00F00050000AD8A4DDD0BD0EA4
:104BCA0009012325216F190E2421226FC60EE06FD9
:104BDA00190EE16FCDEC00F000C020F90050010A77
:104BEA00D8A48BD021C9E0F922C9E1F9CDEC00F0B3
:104BFA000050080AD8A480D0010E09012125E06FCF
:104C0A00000E2221E16FCDEC00F00050000A74E1A1
:104C1A0021C9E0F922C9E1F90901E26B93EC00F03C
:104C2A00DEEC10F08CDDC70ED96F190EDA6FDB6B74
:104C3A00DC6B5EEC01F0BD0E0901D96F190EDA6F5B
:104C4A0023C9DBF924C9DCF936EC01F0160E090197
:104C5A00E06F7BEC00F000C02AF9170E0901E06F43
:104C6A007BEC00F000C0DBF9C70E0901D96F190E01
:104C7A00DA6F2AC9DCF95EEC01F0020E090121257E
:104C8A00D96F000E2221DA6FDB6BDC6B5EEC01F070
:104C9A0021C9D9F922C9DAF90901235104016E5D42
:104CAA000901DB6F245104016F590901DC6F0E0EF3
:104CBA00DB5F000EDC5B36EC01F0160E0901E06FDB
:104CCA007BEC00F000C02AF9170E0901E06F7BECBB
:104CDA0000F000C0DBF9020E09012125D96F000E90
:104CEA002221DA6F2AC9DCF95EEC01F06EC4D9F927
:104CFA006FC4DAF969EC01F03FD009012051110AB9
:104D0A000DE125C92CF926C92DF923C92EF921C986
:104D1A002FF922C930F9B9EC21F02ED0090120511E
:104D2A00060A2AE1100E2525E06F000E2621E16F02
:104D3A00CDEC00F000C02BF909012A6B8DEC0AF0CA
:104D4A00005009012A2504016E6F000E09012B216A
:104D5A0004016F6F0E0E6E27000E6F2325C92CF902
:104D6A0026C92DF923C92EF924C92FF921C930F9E9
:104D7A0022C931F9E8EC16F003D00901040E296FB3
:104D8A0009011E0EE06F400EE16F5EEC00F0010EAD
:104D9A00565C016E000E5758026E0250190802E165
:104DAA000150AD080AE20C0E0901E36FAD0EE46F83
:104DBA00190EE56F36EC00F00BD00C0E0901E36F0B
:104DCA00010E565CE46F000E5758E56F36EC00F0A2
:064DDA0029C900F01200DF
:104DE0000901226B010E225DD8B030D3330E006E64
:104DF000000E016E22C904F0000E056E42EC02F0B6
:104E0000D00E0026080E0122220E0024E96E000EAC
:104E10000120EA6EEE50000A01E116D3330E006E57
:104E2000000E016E22C904F0000E056E42EC02F085
:104E3000D00E0026080E01221E0E0024E96E000E80
:104E40000120EA6EEE50000A01E1D9D0330E006E67
:104E5000000E016E22C904F0000E056E42EC02F055
:104E6000D00E0026080E01221E0E0024026E000E37
:104E70000120036E02C0E9FF03C0EAFFEE04006EEA
:104E800002C0E1FF03C0E2FF00C0E6FF330E006E88
:104E9000000E016E22C904F0000E056E42EC02F015
:104EA000D00E0026080E01221E0E0024E96E000E10
:104EB0000120EA6EEE50000AD8A4A1D0330E006E95
:104EC000000E016E22C904F0000E056E42EC02F0E5
:104ED000D00E0026080E0122250E0024E96E000ED9
:104EE0000120EA6EEE50010A2FE0330E006E000E34
:104EF000016E22C904F0000E056E42EC02F0D00EE5
:104F00000026080E0122250E0024E96E000E012065
:104F1000EA6EEE50040A18E0330E006E000E016EC9
:104F200022C904F0000E056E42EC02F0D00E0026FD
:104F3000080E0122250E0024E96E000E0120EA6E03
:104F4000EE50060A01E05BD0330E006E000E016EDB
:104F500022C904F0000E056E42EC02F0D00E0026CD
:104F6000080E0122250E0024E16E000E0120E26EE3
:104F7000E66A330E006E000E016E22C904F0000EC8
:104F8000056E42EC02F0D00E0026080E0122220E21
:104F90000024E16E000E0120E26EE66A330E006E20
:104FA000000E016E22C904F0000E056E42EC02F004
:104FB000D00E0026080E01222E0E0024E16E000EF7
:104FC0000120E26EE66AE66A040EC96F330E006ED7
:104FD000000E016E22C904F0000E056E42EC02F0D4
:104FE000D00E0026080E0122230E0024E96E000ECA
:104FF0000120EA6EEECFCAF93DEC03F025D2330E64
:10500000006E000E016E22C904F0000E056E42EC27
:1050100002F0D00E0026080E0122250E0024E96EB3
:10502000000E0120EA6EEE50000A01E10DD2330EAF
:10503000006E000E016E22C904F0000E056E42ECF7
:1050400002F0D00E0026080E01221F0E0024E96E89
:10505000000E0120EA6EEE50000A01E1F5D1330E98
:10506000006E000E016E22C904F0000E056E42ECC7
:1050700002F0D00E0026080E01221F0E0024026E40
:10508000000E0120036E02C0E9FF03C0EAFFEE0438
:10509000006E02C0E1FF03C0E2FF00C0E6FF330E76
:1050A000006E000E016E22C904F0000E056E42EC87
:1050B00002F0D00E0026080E01221F0E0024E96E19
:1050C000000E0120EA6EEE50000AD8A4BDD1330EC6
:1050D000006E000E016E22C904F0000E056E42EC57
:1050E00002F0D00E0026080E01222A0E0024E96EDE
:1050F000000E0120EA6EEECF03F0EECF04F0280E92
:105100000024D96E000E0120DA6EDECF01F0DECF72
:1051100002F00450021802E101500318D8B494D1EF
:10512000330E006E000E016E22C904F0000E056EF3
:1051300042EC02F0D00E0026080E0122260E0024BA
:10514000E16E000E0120E26E280E0024E96E000ED2
:105150000120EA6EEECFE6FFEECFE6FF330E006EE3
:10516000000E016E22C904F0000E056E42EC02F042
:10517000D00E0026080E01222C0E0024E96E000E2F
:105180000120EA6EEECF03F0EECF04F0280E0024EB
:10519000D96E000E0120DA6EDECF01F0DECF02F014
:1051A0000250045C02E10150035C25E2330E006E04
:1051B000000E016E22C904F0000E056E42EC02F0F2
:1051C000D00E0026080E01222A0E0024E96E000EE1
:1051D0000120EA6E000EEE24206F040EEE20216FF7
:1051E000280E0024D96E000E0120DA6EDE50205FFA
:1051F000DE50215B20D0330E006E000E016E22C9FE
:1052000004F0000E056E42EC02F0D00E0026080EEF
:1052100001222A0E0024E96E000E0120EA6E280EFB
:105220000024D96E000E0120DA6EDE50EE5C206F95
:10523000DE50EE58216F330E006E000E016E22C953
:1052400004F0000E056E42EC02F0D00E0026080EAF
:105250000122100E0024D96E000E0120DA6EDECF7E
:1052600001F0DECF02F02151025C02E12051015C2D
:1052700018E2330E006E000E016E22C904F0000E1B
:10528000056E42EC02F0D00E0026080E0122100E30
:105290000024E96E000E0120EA6EEECF20F9EECF79
:1052A00021F9330E006E000E016E22C904F0000ECB
:1052B000056E42EC02F0D00E0026080E01222E0EE2
:1052C0000024E16E000E0120E26E20C9E6FF21C934
:1052D000E6FF330E006E000E016E22C904F0000ED0
:1052E000056E42EC02F0D00E0026080E0122250EBB
:1052F0000024E96E000E0120EA6EEE50070A46E136
:10530000330E006E000E016E22C904F0000E056E11
:1053100042EC02F0D00E0026080E0122250E0024D9
:10532000E16E000E0120E26EE66A330E006E000EA2
:10533000016E22C904F0000E056E42EC02F0D00EA0
:105340000026080E0122220E0024E16E000E01202C
:10535000E26EE66A330E006E000E016E22C904F0A2
:10536000000E056E42EC02F0D00E0026080E01225F
:105370002E0E0024E16E000E0120E26EE66AE66A5F
:10538000040EC96F22C9CAF93DEC03F0330E006E5A
:10539000000E016E22C904F0000E056E42EC02F010
:1053A000D00E0026080E0122250E0024E96E000E04
:1053B0000120EA6EEE50030A46E1330E006E000E45
:1053C000016E22C904F0000E056E42EC02F0D00E10
:1053D0000026080E0122250E0024E16E000E012099
:1053E000E26E070EE66E330E006E000E016E22C9ED
:1053F00004F0000E056E42EC02F0D00E0026080EFE
:1054000001221F0E0024E16E000E0120E26E030E49
:10541000E66E100EC96F330E006E000E016E22C9CB
:1054200004F0000E056E42EC02F0D00E0026080ECD
:105430000122230E0024E96E000E0120EA6EEECF59
:0E544000CAF93DEC03F000D0222BCCD41200B0
:10544E0009011B6B010E1B5D45E21BC98EF91BEC9E
:10545E0012F0330E006E000E016E1BC904F0000E2A
:10546E00056E42EC02F0D00E0026080E0122220E2E
:10547E000024E16E000E0120E26EE66A330E006E2D
:10548E00000E016E1BC904F0000E056E42EC02F018
:10549E00D00E0026080E0122310E00241C6F000EC5
:1054AE0001201D6F1BC900F0000E016E000E046E70
:1054BE00040E056E42EC02F0A10E0026040E01222F
:1054CE001CC9E1FF1DC9E2FF00C0E6FF01C0E6FFF7
:0654DE001B2BB8D71200E1
:1054E4000401716B726B936AFF0E816E880ED56E28
:1054F400630ED76EC00ED66EC00EF26EF28A120024
:10550400420E0401286F000E296FE60E2A6F090E61
:105514002B6FFF0E6A6FFF0E6B6FFF0E6C6FFF0E2B
:105524006D6F949A94969488C66A400EC76EC68A24
:02553400120063
:1055360009011B6B1F0EE06F010EE16F5EEC00F0C0
:105546001F0E0901E06F020EE16FECEC00F0190E80
:105556000901E06F7BEC00F00050000804E295ECD6
:1055660024F000C01BF91F0E0901E06F010EE16F68
:10557600ECEC00F01F0E0901E06F020EE16FECEC9F
:1055860000F038503C1808E137503B1805E136501A
:105596003A1802E13550391809E039C035F03AC0F9
:1055A60036F03BC037F03CC038F017DC1BC900F0C2
:0255B6001200E1
:1055B800929A898A92988988A7EC11F0898AA7EC2F
:1055C80011F0899AA7EC11F0898AA7EC11F0899853
:1055D8002AC4E1FF2BC4E2FFFF0EE66E28C400F0E8
:1055E80029C401F02AEC00F08988A7EC11F0310EEB
:1055F800C96F040ECA6F1BC9CBF91CC9CCF9060EBA
:10560800CD6F000ECE6F6AEC02F0640EC96F040E07
:10561800CA6F1DC9CBF91EC9CCF9040ECD6F000E97
:10562800CE6F6AEC02F01F0EE06F010EE16FECEC3A
:1056380000F01F0E0901E06F020EE16FECEC00F0C4
:10564800080E0901E36FE46BE56B36EC00F00A0E17
:105658000901E36FAD0EE46F190EE56F36EC00F04B
:105668000C0E0901E36FAD0EE46F190EE56F36EC11
:1056780000F00901E36BE46BE56B36EC00F0040E17
:105688000901E36FAE0EE46F190EE56F36EC00F01A
:105698001F0E0901E06F010EE16FECEC00F01F0E28
:1056A8000901E06F020EE16F5EEC00F01FC920F9FE
:0656B800C3EC23F0120018
:1056BE00E3EC2DF010DF0C0E7E6E7B9E7A9E806AE0
:1056CE00FF0E926E0C0E7F6E836A956A786A816AFF
:1056DE00FF0E936E836A956A786AB2DE0CDF250E32
:1056EE0009011B6F000E1C6F2B0E1D6F000E1E6F1F
:1056FE00010E1F6F5ADF1D0E0901AB6F000EAC6F4E
:10570E00210EAD6F000EAE6F2F0EAF6F000EB06F8D
:10571E00CDEC0CF009DF0401706B010E705D28E218
:10572E00330E006E000E016E70C404F0000E056E96
:10573E0042EC02F0D00E0026080E0122220E0024AA
:10574E00E96E000E0120EA6EEE50000A0FE170C401
:10575E0000F0000E016E003600900136050E00249A
:10576E00E16E090E0120E26EE66AE66A702BD5D76D
:04577E00D1D7FFD7A9
:105BC60010EE16F0120E006E050E016E820EF66EC7
:0E5BD600570EF76E000EF86E08EC0DF0120080
:06578200FFFFFFFFFFFF27
:015788000020
:04578900FFFFFF001F
:04578D00C0A80101AE
:065791000014A576193B8F
:04579700C0A801DEC7
:04579B00C0A814018D
:01579F000009
:0157A0000008
:0457A1000000000004
:0457A5000000000000
:0857A9000001080006040000E5
:0157B10000F7
:0B57B200666F6E742D73697A653A0013
:0557BD0034307078009B
:0257C2000000E5
:1057C400485454502F312E3120323030204F4B0A60
:1057D400436F6E6E656374696F6E3A20636C6F73AA
:1057E400650A436F6E74656E742D747970653A2022
:1057F400746578742F68746D6C0A0A3C48544D4C77
:105804003E3C484541443E3C6C696E6B2072656C7D
:105814003D2269636F6E2220747970653D22696D43
:105824006167652F706E672220687265663D226825
:10583400747470733A2F2F706E672E69636F6E7372
:10584400382E636F6D2F696F732F35302F303030E2
:105854003030302F66616365626F6F6B2E706E67D8
:10586400223E3C5449544C453E504D4520436C6FB8
:10587400636B3C2F5449544C453E3C2F48454144AE
:105884003E3C424F44593E3C7374796C653E626FB2
:105894006479207B6261636B67726F756E642D63DC
:1058A4006F6C6F723A20236464666663633B7D3C6D
:1058B4002F7374796C653E3C63656E7465723E3C0F
:1058C40068323E504D4520436C6F636B3C2F683209
:1058D4003E3C68333E54696D65207C203C61206801
:1058E4007265663D2F323E534E54503C2F613E202C
:1058F4007C203C6120687265663D2F333E4E6574A2
:10590400776F726B3C2F613E207C203C6120687273
:1059140065663D2F343E53797374656D3C2F613E4B
:10592400207C203C6120687265663D2F61646D694E
:105934006E3E41444D494E3C2F613E3C2F68333E00
:105944003C7461626C6520626F726465723D3120E3
:105954007374796C653D22666F6E742D73697A6514
:105964003A32307078203B666F6E742D66616D69D3
:105974006C793A207465726D696E616C203B2220EB
:1059840077696474683D3530303E3C74723E3C74D3
:10599400643E4461746520616E642054696D653CA5
:1059A4002F74643E3C746420616C69676E3D726957
:1059B4006768743E3C7363726970743E646F6375A8
:1059C4006D656E742E7772697465282243616F2247
:1059D400293C2F7363726970743E3C2F74643E3C9F
:1059E4002F74723E3C74723E3C74643E556E69780A
:1059F4002045706F63683C2F74643E3C746420617E
