:04000000C0EF2AF033
:1000080000C015F0F2A416D00801EA4BEB2B000E45
:10001800EB5D02E1C80EEA5D08E3EA6BEB6B010EEB
:100028001D26000E1E221F222022630ED76EC00E30
:0A003800D66EF29415C000F011001E
:10004200BDC9C9FFC7B002D00000FCD7C9CF00F0BC
:0200520012009A
:10005400F250026EF29E0500FF6A0150FE6E0050DF
:08006400FD6E02BEF28E1200D7
:10006C008998400E0901BA11006E1CC4E1FF1DC431
:10007C00E2FF00C0E6FF1AC400F01BC401F0E4DF8D
:10008C001CC4E1FF1DC4E2FFBBC9E6FF1AC400F0AB
:10009C001BC401F0D9DF1CC4E1FF1DC4E2FFBCC9C5
:1000AC00E6FF1AC400F01BC401F0CEDF89881200F1
:1000BC0089981CC4E1FF1DC4E2FF7A0EE66E1AC4D7
:1000CC0000F01BC401F0C0DF1CC4E1FF1DC4E2FF43
:1000DC00B7C9E6FF1AC400F01BC401F0B5DF89886C
:0200EC00120000
:1000EE00020E0901BA6FB7C9BBF9B8C9BCF9B7DFBF
:1000FE0089981CC4E1FF1DC4E2FF7A0EE66E1AC495
:10010E0000F01BC401F09FDF1CC4E1FF1DC4E2FF21
:10011E00B9C9E6FF1AC400F01BC401F094DF898848
:02012E001200BD
:1001300089981CC4E1FF1DC4E2FFB7C9E6FF1AC4D9
:1001400000F01BC401F086DF1CC4E1FF1DC4E2FF08
:10015000E66A1AC400F01BC401F07CDF8988120033
:100160000901BA6BB7C9BBF9B8C9BCF97FDF899877
:100170001CC4E1FF1DC4E2FF3A0EE66E1AC400F093
:100180001BC401F067DF1CC4E1FF1DC4E2FFE66A87
:0E0190001AC400F01BC401F05DDF8988120064
:10019E008998A00E0901B711006E1CC4E1FF1DC4A1
:1001AE00E2FF00C0E6FF1AC400F01BC401F04BDFF3
:1001BE001CC4E1FF1DC4E2FFB8C9E6FF1AC400F07B
:0A01CE001BC401F040DF8988120015
:1001D8008998800E0901B711006E1CC4E1FF1DC487
:1001E800E2FF00C0E6FF1AC400F01BC401F02EDFD6
:1001F8001CC4E1FF1DC4E2FFB8C9E6FF1AC400F041
:0A0208001BC401F023DF89881200F7
:100212000B6A0A6A096A00500402F4CF09F0F3CFAC
:1002220008F001500502F4CF0BF0F3CF0AF00050B2
:100232000502F3500926F4500A22E86A0B22015003
:100242000402F3500926F4500A22E86A0B2208C07D
:1002520000F009C001F00AC002F00BC003F0120066
:1002620089981CC4E1FF1DC4E2FF7A0EE66E1AC42F
:1002720000F01BC401F0EDDEB2C900F0B3C901F019
:10028200010E0901B25F000EB35B0050011013E0D2
:100292001CC4E1FF1DC4E2FFB0C9E9FFB1C9EAFF16
:1002A200EECFE6FF1AC400F01BC401F0D2DE090152
:0A02B200B04BB12BE1D78988120090
:1002BC000901B251B025B46FB351B121B56F010E24
:1002CC00B45F000EB55B100EBA6FB0C9BBF9B1C903
:1002DC00BCF9C6DE120E0901BA6FB4C9BBF9B5C9B7
:1002EC00BCF9BEDE1F0E0901B76F300EB86F6EDFA2
:1002FC001F0E0901B76F16DF00AA01D0F9D7120043
:10030C00AE0E0901B76F190EB86FB96BEADEAE0EFF
:10031C000901B025006E190EB121016E00C0B0F9B3
:10032C0001C0B1F9060EBA6F00C0BBF901C0BCF92F
:10033C0097DE1F0E0901B76F800EB86F47DF1F0ED7
:10034C000901B76F800EB86F24DF04011E51050A36
:10035C0004E01E51070A01E006D01C0E0901B76F1C
:10036C000A0EB86F16DF1F0E0901B76F080EB86FB3
:10037C002DDF04011E51050A04E01E51070A01E09D
:10038C0080D00901B56BB66B1C0EB76FCBDE0A0EB5
:10039C00001600520AE10901B54BB62B030EB65DEF
:1003AC0002E1E80EB55D01E2EFD709011C0EB76F53
:1003BC00B9DE00B208D0030E0901B65D02E1E80E09
:1003CC00B55D01E25DD009011F0EB76F080EB86F65
:1003DC00E0DE040E0901B025B76F000EB121B86F35
:1003EC00B9DE00C0B4F90901B26B100EB25D48E27F
:1003FC001C0EB76F97DE00A23FD00901B4AB3CD006
:10040C001F0EB76F800EB86FE1DE1F0E0901B76FBC
:10041C00800EB86FBEDE1C0E0901B76F0A0EB86FE6
:10042C00B8DE1F0E0901B76F080EB86FCFDE0901D9
:10043C00B56BB66B1C0EB76F75DE0A0E001600524C
:10044C000AE10901B54BB62B030EB65D02E1E80ECD
:10045C00B55D01E2EFD709011F0EB76F080EB86F3B
:10046C0098DE040E0901B025B76F000EB121B86FEC
:10047C0071DE00C0B4F901D003D00901B22BB5D79D
:10048C0007D009011F0EB76F4DDE00A601D0F9D7BA
:10049C001D0E0901B76F46DE060E0016005203E072
:1004AC000901B36B03D00901010EB36FB3C900F09E
:0204BC0012002C
:1004BE00B0C9B7F9B1C9B8F9B2C9B9F911DEB3C942
:0604CE00B7F9F5DD120094
:1004D40089981CC4E1FF1DC4E2FF7A0EE66E1AC4BB
:1004E40000F01BC401F0B4DD1CC4E1FF1DC4E2FF35
:1004F400A1C9E6FF1AC400F01BC401F0A9DD1CC4A5
:10050400E1FF1DC4E2FFA0C9E6FF1AC400F01BC44A
:0805140001F09EDD8988120050
:10051C00020E0901BA6FA0C9BBF9A1C9BCF9A0DDD3
:10052C0089981CC4E1FF1DC4E2FF7A0EE66E1AC462
:10053C0000F01BC401F088DD0901A451A51117E0DE
:10054C001CC4E1FF1DC4E2FFA2C9E9FFA3C9EAFF75
:10055C00EECFE6FF1AC400F01BC401F075DD0901F3
:10056C00A24BA32B010EA45F000EA55BE5D78988D7
:02057C0012006B
:10057E00A2C904F0A3C905F0A0C902F0A1C903F0F5
:10058E00A4C900F0A5C901F0010E0901A45F000E77
:10059E00A55B005001100FE004C0E9FF05C0EAFFA3
:1005AE0002C0E1FF03C0E2FFEECFE6FF024A032ADC
:1005BE00044A052AE5D7A0C900F0A1C901F012002E
:1005CE000901AD6B010EA25F000EA35BA6530DE0F9
:1005DE00A351190802E1A251AD0807E2AD2BAD0EF1
:1005EE00A25DAB6F190EA359AC6FAD5305E0AD0E06
:1005FE00A76F190EA86F04D0A2C9A7F9A3C9A8F9AD
:10060E00A151A81902E1A751A0190DE1A0C9B7F98E
:10061E00A1C9B8F99EDD00C0B9F9A4C9B7F9A5C939
:10062E00B8F95EDD36D0100E0901BA6FA0C9BBF95C
:10063E00A1C9BCF914DD120E0901BA6FAD5305E064
:10064E00AD0EA96F190EAA6F04D0A2C9A9F9A3C93C
:10065E00AAF9A9C9BBF9AAC9BCF901DD140E090191
:10066E00BA6FA4C9BBF9A5C9BCF9F9DC1F0E090103
:10067E00B76F100EB86F8CDD1F0E0901B76F200E0D
:10068E00B86FA3DD1F0E0901B76F4BDD00AA01D0B5
:10069E00F9D70901AD531AE0A051A25D006EA15128
:1006AE00A359016EAB51005EAC51015A004A012AAA
:1006BE000050A4270150A523010EAB5DA26F000EC2
:0E06CE00AC59A36FA06BA16BAD6B8FD7120060
:1006DC00020E0901A015016E0150000A05E01C0E66
:1006EC00A46F000EA56F04D0140EA46F000EA56F9E
:1006FC00500EAC6FAD6B330E006E000E016EA1C9C7
:10070C0004F0000E056E7FDDA30E0026080E0122FC
:10071C002E0E0024E96E000E0120EA6EEECF01F0E1
:10072C00EECF02F0000E006E0250005C02E10150B0
:10073C00000802E2080EAD6F010EA015016E01500B
:10074C00000AD8A4AD81100EA015016E0150000A4C
:10075C00D8A4AD89020EA015016E0150000A03E069
:10076C00700EAC6FAD83040EA015016E0150000A23
:10077C00D8A4AD85AF0EB76F190EB86F330E006EDF
:10078C00000E016EA1C904F0000E056E3CDDA30E37
:10079C000026080E0122040E0024E96E000E012032
:1007AC00EA6EEECFB9F99DDC330E006E000E016ED1
:1007BC00A1C904F0000E056E26DDA30E002409016C
:1007CC00B06F080E0120B16F040EB027000EB123DC
:1007DC00B04BB12B050EB26F000EB36F3CDD230E88
:1007EC00B06F040EB16F060EB26F000EB36F33DD37
:1007FC00080EB76F5DDC0901B76B5ADC450E0901B9
:10080C00B76F56DC0901B76B53DC330E006E000E6C
:10081C00016EA1C904F0000E056EF5DCA30E0026D6
:10082C00080E01222E0E0024D96E000E0120DA6E65
:10083C00DE500901A425A66FDE50A521A76F140E6A
:10084C00A627000EA723A7C9B7F932DCA6C9B7F9AA
:10085C002FDC330E006E000E016EA1C904F0000EE9
:10086C00056ED1DCA30E0026080E0122200E0026F8
:10087C00000E0122010E0024E96E000E0120EA6E2A
:10088C00EECFB7F915DC330E006E000E016EA1C968
:10089C0004F0000E056EB7DCA30E0026080E012234
:1008AC00200E00240901AE6F000E0120AF6FAEC9FF
:1008BC00E9FFAFC9EAFFEECFB7F95EEC00F0AEC9C5
:1008CC00E9FFAFC9EAFF010EEE24006E000EEE2028
:1008DC00016EAEC9E1FFAFC9E2FF00C0E6FF01C087
:1008EC00E6FF400E0901B76F5EEC00F00901B76B33
:1008FC005EEC00F0800E0901B76F5EEC00F0060EA6
:10090C000901B76F5EEC00F00901B76B5EEC00F00B
:10091C000901B76B5EEC00F05F0E0901B06F040EBD
:10092C00B16F040EB26F000EB36F95DC330E006E18
:10093C00000E016EA1C904F0000E056E64DCA30E5E
:10094C000024B06F080E0120B16F040EB26F000EC0
:10095C00B36F81DCBD0EB06F190EB16F140EB26F98
:10096C00000EB36FA5DC160E0901B76F98EC00F002
:10097C0000C0AEF9170E0901B76F98EC00F000C07B
:10098C00B2F9C70E0901B06F190EB16FAEC9B3F948
:10099C0090DDD10E0901B76F190EB86F330E006ED2
:1009AC00000E016EA1C904F0000E056E2CDCA30E26
:1009BC000026080E01220C0E0026000E0122010E4C
:1009CC000024E96E000E0120EA6EEECFB9F977EC47
:1009DC0000F0330E006E000E016EA1C904F0000E83
:1009EC00056E11DCA30E0026080E01220C0E00244D
:1009FC00E96E000E0120EA6EEECFB7F95EEC00F066
:100A0C00330E006E000E016EA1C904F0000E056ECF
:100A1C0009EC01F0A30E0026080E01220A0E002696
:100A2C00000E0122010E0024E96E000E0120EA6E78
:100A3C00EECFB7F95EEC00F0330E006E000E016ED7
:100A4C00A1C904F0000E056E09EC01F0A30E0026FE
:100A5C00080E01220A0E0024E96E000E0120EA6E37
:100A6C00EECFB7F95EEC00F0330E006E000E016EA7
:100A7C00A1C904F0000E056E09EC01F0A30E0026CE
:100A8C00080E0122160E0026000E0122030E002471
:100A9C00E96E000E0120EA6EEECFB7F95EEC00F0C5
:100AAC00330E006E000E016EA1C904F0000E056E2F
:100ABC0009EC01F0A30E0026080E0122160E0026EA
:100ACC00000E0122020E0024E96E000E0120EA6ED7
:100ADC00EECFB7F95EEC00F0330E006E000E016E37
:100AEC00A1C904F0000E056E09EC01F0A30E00265E
:100AFC00080E0122160E0026000E0122010E002403
:100B0C00E96E000E0120EA6EEECFB7F95EEC00F054
:100B1C00330E006E000E016EA1C904F0000E056EBE
:100B2C0009EC01F0A30E0026080E0122160E00247B
:100B3C00E96E000E0120EA6EEECFB7F95EEC00F024
:100B4C00330E006E000E016EA1C904F0000E056E8E
:100B5C0009EC01F0A30E0026080E01221A0E002645
:100B6C00000E0122030E0024E96E000E0120EA6E35
:100B7C00EECFB7F95EEC00F0330E006E000E016E96
:100B8C00A1C904F0000E056E09EC01F0A30E0026BD
:100B9C00080E01221A0E0026000E0122020E00245D
:100BAC00E96E000E0120EA6EEECFB7F95EEC00F0B4
:100BBC00330E006E000E016EA1C904F0000E056E1E
:100BCC0009EC01F0A30E0026080E01221A0E0026D5
:100BDC00000E0122010E0024E96E000E0120EA6EC7
:100BEC00EECFB7F95EEC00F0330E006E000E016E26
:100BFC00A1C904F0000E056E09EC01F0A30E00264D
:100C0C00080E01221A0E0024E96E000E0120EA6E75
:100C1C00EECFB7F95EEC00F0ACC9B7F95EEC00F0C2
:100C2C00ADC9B7F95EEC00F0330E006E000E016E2C
:100C3C00A1C904F0000E056E09EC01F0A30E00260C
:100C4C00080E0122120E0026000E0122010E0024B5
:100C5C00E96E000E0120EA6EEECFB7F95EEC00F003
:100C6C00330E006E000E016EA1C904F0000E056E6D
:100C7C0009EC01F0A30E0026080E0122120E00242E
:100C8C00E96E000E0120EA6EEECFB7F95EEC00F0D3
:100C9C000901B76B5EEC00F00901B76B5EEC00F07C
:100CAC000901B76B5EEC00F00901B76B5EEC00F06C
:100CBC00020E0901A015016E0150000A51E0020E4E
:100CCC00B76F5EEC00F0040E0901B76F5EEC00F03C
:100CDC00330E006E000E016EA1C904F0000E056EFD
:100CEC0009EC01F0A30E0026080E0122140E0026BA
:100CFC00000E0122010E0024E96E000E0120EA6EA6
:100D0C00EECFB7F95EEC00F0330E006E000E016E04
:100D1C00A1C904F0000E056E09EC01F0A30E00262B
:100D2C00080E0122140E0024E96E000E0120EA6E5A
:100D3C00EECFB7F95EEC00F0010E0901B76F5EEC77
:100D4C0000F0010E0901B76F5EEC00F0040E090112
:100D5C00B76F5EEC00F0020E0901B76F5EEC00F0AD
:100D6C00330E006E000E016EA1C904F0000E056E6C
:100D7C0009EC01F0A30E0026080E01222E0E002411
:100D8C00E96E000E0120EA6EEECF01F0EECF02F01C
:100D9C00000E006E0250005C02E10150000861E29E
:100DAC000901AA6BAB6B330E006E000E016EA1C96C
:100DBC0004F0000E056E09EC01F0A30E0026080EDF
:100DCC0001222E0E0024D96E000E0120DA6EDECF29
:100DDC0001F0DECF02F00250AB5D02E10150AA5DE2
:100DEC0040E2330E006E000E016EA1C904F0000E3D
:100DFC00056E09EC01F0A30E0024046E080E012010
:100E0C00056E260E0424E96E000E0520EA6EAA512A
:100E1C00EE24026EAB51EE20036E000E006E040E3B
:100E2C00016E010E005E000E015A005002160150B8
:100E3C000316310E0424E96E000E0520EA6EEECF87
:100E4C0000F0EECF01F002500024E96E03500120B7
:100E5C00EA6EEECFB7F95EEC00F00901AA4BAB2BB2
:100E6C00A2D70901D10EA425AE6F190EA521AF6F23
:100E7C00330E006E000E016EA1C904F0000E056E5B
:100E8C0009EC01F0A30E0026080E01222E0E002400
:100E9C00026E000E0120036E02C0D9FF03C0DAFF00
:100EAC00DE50AE25006EDE50AF21016E00C0A2F9FF
:100EBC0001C0A3F902C0E9FF03C0EAFF010EEE1462
:100ECC00A86FEECFA9F9000EA91700C0B7F901C0A1
:100EDC00B8F9B96B77EC00F00901A851A225B06FF5
:100EEC00A951A321B16F5FC4B2F960C4B3F95FEC2F
:100EFC0002F00901A851A225B06FA951A321B16F2D
:100F0C00020EB027000EB12361C4B2F962C4B3F96A
:100F1C005FEC02F00901A851A225B06FA951A321E1
:100F2C00B16F040EB027000EB123330E006E000E0D
:100F3C00016EA1C904F0000E056E09EC01F0A30EC0
:100F4C000026080E012200C0E9FF01C0EAFFEECF27
:100F5C00B2F9010E0024E96E000E0120EA6EEECF0C
:100F6C00B3F95FEC02F00901A851A225B06FA951A9
:100F7C00A321B16F060EB027000EB123330E006E05
:100F8C00000E016EA1C904F0000E056E09EC01F013
:100F9C00A30E0026080E0122020E0024E96E000E9C
:100FAC000120EA6EEECFB2F9030E0024E96E000EBA
:100FBC000120EA6EEECFB3F95FEC02F0080E0901E6
:100FCC00A225B06F000EA321B16FA851B027A95173
:100FDC00B123B26B060EB36F5FEC02F00A0E09017F
:100FEC00A225B06F000EA321B16FA851B027A95153
:100FFC00B123330E006E000E016EA1C904F0000E79
:10100C00056E09EC01F0A30E0026080E01222E0E2F
:10101C000024E96E000E0120EA6EEECF05F0EECF53
:10102C0006F00550A425036E0650A521046E04C0DD
:10103C0000F0016A00C0B2F90550A425B36F5FEC53
:10104C0002F0D10E0901B06F190EB16F330E006EA4
:10105C00000E016EA1C904F0000E056E09EC01F042
:10106C00A30E0026080E01222E0E0024D96E000EAF
:10107C000120DA6EDE50A425B26FDE50A521B36FCD
:10108C000C0EB227000EB323A851B227A951B323DB
:10109C005EEC01F0160E0901B76F98EC00F000C081
:1010AC00AEF9170E0901B76F98EC00F000C0B2F959
:1010BC00E10E0901B06F190EB16FAEC9B3F95FEC57
:1010CC0002F0220E0901A425B06F000EA521B16F0C
:1010DC00330E006E000E016EA1C904F0000E056EF9
:1010EC0009EC01F0A30E0026080E01222E0E00249E
:1010FC00D96E000E0120DA6EDE50B027DE50B1231F
:06110C0086EC01F0120068
:10111200086A080E0C6E003408360450085ED8B017
:0E11220002D00826D89000360C2EF5D7120009
:1011300089981CC4E1FF1DC4E2FF3A0EE66E1AC492
:1011400000F01BC401F02AEC00F01CC4E1FF1DC438
:10115000E2FFE66A1AC400F01BC401F02AEC00F0BA
:041160008988120068
:10116400086A096A100E0C6E0134083609360450F8
:10117400085E0550D8A0053C095ED8B007D00450DD
:1011840008260550D8B0053C0926D890003601360B
:061194000C2EEAD7120048
:10119A0096C901F097C902F0010E0901965F000E87
:1011AA00975B000E021802E1000E01181FE092C9B7
:1011BA00E9FF93C9EAFF94C9D9FF95C9DAFFEE504E
:1011CA00DE180FE092C9E9FF93C9EAFF94C9D9FF73
:1011DA0095C9DAFFDE50EE5C006E016A000E015A14
:1011EA0007D0924B932B944B952BD2D7006A016A66
:0211FA001200E1
:1011FC0009019551FF0A02E1FF0E941907E0BA6B41
:10120C0094C9BBF995C9BCF936EC00F089981CC49B
:10121C00E1FF1DC4E2FF3A0EE66E1AC400F01BC4D7
:10122C0001F02AEC00F096C900F097C901F0010E0C
:10123C000901965F000E975B0050011015E01CC46D
:10124C00E1FF1DC4E2FFE66A1AC400F01BC401F002
:10125C002AEC00F092C9E1FF93C9E2FF00C0E6FF5F
:0C126C000901924B932BDFD789881200F8
:1012780092C9A0F993C9A1F95F0E0901A26F040EE2
:10128800A36F040EA46F000EA56FBFEC02F0946B61
:101298009451030821E394519225026E000E932184
:1012A800036E02C0E9FF03C0EAFFEECF01F0580E5B
:1012B800E96E040EEA6E9451E926D8B0EA2AFF0EC8
:1012C800EE18006E0150001202C0E1FF03C0E2FFF9
:0A12D80000C0E6FF942BDCD71200E3
:1012E200AF0E0901A06F190EA16F92C9A2F993C99D
:1012F200A3F9060EA46F000EA56F8EEC02F0230E6A
:10130200B06F040EB16F060EB26F000EB36F31EC08
:1013120001F0000EA06F080EA16F6AEC02F01C0E25
:1013220009019A259D6F000E9B219E6F000EA06FF2
:10133200450EA16F6AEC02F09DC9A0F99EC9A1F900
:101342006AEC02F073C4A0F974C4A1F96AEC02F069
:101352000401734B742B0901A06BA16B6AEC02F0C0
:10136200110E0901A06F800EA16F6AEC02F0090153
:10137200A06BA16B6AEC02F05F0E0901B06F040E64
:10138200B16F040EB26F000EB36F31EC01F094C96D
:10139200B0F995C9B1F9040EB26F000EB36F31EC1A
:1013A20001F0080E9A259D6F000E9B219E6F96C933
:1013B200A0F997C9A1F96AEC02F098C9A0F999C9F4
:1013C200A1F96AEC02F09DC9A0F99EC9A1F96AECE3
:1013D20002F00901A06BA16B6AEC02F0BD0E0901DB
:1013E200B06F190EB16F140EB26F000EB36F5EECD8
:1013F20001F0160E0901B76F98EC00F000C09FF9DA
:10140200170E0901B76F98EC00F000C0B2F9C70ED1
:101412000901B06F190EB16F9FC9B3F95FEC02F009
:10142200010E09019D159C6FD90E9A25B76F190EF1
:101432009B21B86FB96B77EC00F0C90E0901A06F60
:10144200190EA16FD10EA26F190EA36FD90E9A2594
:10145200A46F190E9B21A56F9C51A427000EA523F2
:10146200A66BE7EC02F0D90E9A25B06F190E9B21FC
:10147200B16F9C51B027000EB123080EB027000EA9
:10148200B123B26B110EB36F5FEC02F09EC9B7F9D4
:101492005EEC00F09DC9B7F95EEC00F0D10E0901D7
:1014A200B06F190EB16F0C0E9D25B26F000E9E210A
:1014B200B36F9C51B227000EB3235EEC01F0160EFF
:1014C2000901B76F98EC00F000C09FF9170E0901EF
:1014D200B76F98EC00F000C0B2F9D70E0901B06FF7
:1014E200190EB16F9FC9B3F95FEC02F02A0E090120
:1014F2009A25B06F000E9B21B16F86EC01F0000EB1
:04150200016E120064
:1015060089981CC4E1FF1DC4E2FF7A0EE66E1AC478
:1015160000F01BC401F02AEC00F095C900F096C952
:1015260001F0010E0901955F000E965B0050011057
:101536001CE01CC4E1FF1DC4E2FF92C9F6FF93C97B
:10154600F7FF94C9F8FF0900F5CF00F000C0E6FFE9
:101556001AC400F01BC401F02AEC00F0010E0901C8
:0E1566009227000E93239423D8D78988120071
:1015740009019351020AD8B497D0330E006E000EBD
:10158400016E94C904F0000E056E09EC01F0A30E7F
:101594000024066E080E0120076E2C0E0624E96E48
:1015A400000E0720EA6E010EEE24026E000EEE20FD
:1015B400036E000E006E040E016E010E005E000E3E
:1015C400015A00500214046E03500114056E04C045
:1015D40095F905C096F9280E0624D96E000E072049
:1015E400DA6EDECF01F0DECF02F00550021802E120
:1015F4000150041819E1330E006E000E016E94C9F7
:1016040004F0000E056E09EC01F0A30E0026080E8E
:101614000122300E0024E16E000E0120E26E010E64
:10162400E66E020E006EACD1330E006E000E016E3B
:1016340094C904F0000E056E09EC01F0A30E002419
:10164400026E080E0120036E310E0224006E000E9D
:101654000320016E2C0E0224D96E000E0320DA6ED4
:1016640000C0E9FF01C0EAFFDE50EE24E16EDE5067
:10167400EE20E26E92C9E6FF330E006E000E016E9C
:1016840094C904F0000E056E09EC01F0A30E0026C7
:10169400080E01222C0E0024E16E000E0120E26EE1
:1016A40095C9E6FF96C9E6FF93510008D8B066D104
:1016B400330E006E000E016E94C904F0000E056E28
:1016C40009EC01F0A30E0026080E01222C0E0024C2
:1016D400E96E000E0120EA6EEECF03F0EECF04F0C7
:1016E4002A0E0024D96E000E0120DA6EDECF01F03E
:1016F400DECF02F00250045C02E10150035C25E2FB
:10170400330E006E000E016E94C904F0000E056ED7
:1017140009EC01F0A30E0026080E01222C0E002471
:10172400E96E000E0120EA6E000EEE24956F040EA1
:10173400EE20966F2A0E0024D96E000E0120DA6E78
:10174400DE50955FDE50965B20D0330E006E000EA7
:10175400016E94C904F0000E056E09EC01F0A30EAD
:101764000026080E01222C0E0024E96E000E012032
:10177400EA6E2A0E0024D96E000E0120DA6EDE50C5
:10178400EE5C956FDE50EE58966F330E006E000ED1
:10179400016E94C904F0000E056E09EC01F0A30E6D
:1017A4000026080E0122100E0024D96E000E01201E
:1017B400DA6EDECF01F0DECF02F09651025C02E178
:1017C4009551015C18E2330E006E000E016E94C94F
:1017D40004F0000E056E09EC01F0A30E0026080EBD
:1017E4000122100E0024E96E000E0120EA6EEECFF5
:1017F40095F9EECF96F9330E006E000E016E94C982
:1018040004F0000E056E09EC01F0A30E0026080E8C
:1018140001222E0E0024E16E000E0120E26E95C915
:10182400E6FF96C9E6FF330E006E000E016E94C902
:1018340004F0000E056E09EC01F0A30E0026080E5C
:101844000122260E0024E16E000E0120E26E2A0E13
:101854000024E96E000E0120EA6EEECFE6FFEECF23
:10186400E6FF330E006E000E016E94C904F0000E04
:10187400056E09EC01F0A30E0026080E01222A0EC3
:101884000024046E000E0120056E04C0E9FF05C0AB
:10189400EAFF9551EE24026E9651EE20036E000E7F
:1018A400006E040E016E010E005E000E015A02501D
:1018B40000160350011604C0E1FF05C0E2FF00C09A
:1018C400E6FF01C0E6FF330E006E000E016E94C900
:1018D40004F0000E056E09EC01F0A30E0026080EBC
:1018E40001222A0E0024E96E000E0120EA6EEECFDA
:1018F40003F0EECF04F02C0E0024D96E000E01206C
:10190400DA6EDECF01F0DECF02F00450021802E1FD
:101914000150031816E0330E006E000E016E94C9D8
:1019240004F0000E056E09EC01F0A30E0026080E6B
:101934000122300E0024E16E000E0120E26E010E41
:10194400E66E330E006E000E016E94C904F0000EB4
:10195400056E09EC01F0A30E0026080E01221F0EED
:101964000024E16E000E0120E26E030EE66E100EFE
:10197400A06F94C9A1F96EEC03F002D0030E006EBF
:0219840012004F
:1019860009018E6B050E8E5D0AE28E518C25E16E85
:10199600000E8D21E26E200EE66E8E2BF3D78E5151
:1019A6008C25E16E000E8D21E26EE66A8E078E5161
:1019B6008C258F6F000E8D21906F0A0E046E000E1F
:1019C600056E8AC900F08BC901F0B2EC08F008C0B8
:1019D60000F009C001F0300E00268FC9E1FF90C962
:1019E600E2FF00C0E6FF0A0E046E000E056E8AC90D
:1019F60000F08BC901F0B2EC08F000C08AF901C012
:101A06008BF9000E011802E1000E001801E102D068
:061A16008E07CDD712007F
:101A1C0009018D6B030E8D5D0AE28D518B25E16EF4
:101A2C00000E8C21E26E200EE66E8D2BF3D78D51BD
:101A3C008B25E16E000E8C21E26EE66A8D078D51CE
:101A4C008B258E6F000E8C218F6F0A0E046E8AC947
:101A5C0000F089EC08F008C000F0300E00268EC9AA
:101A6C00E1FF8FC9E2FF00C0E6FF0A0E046E8AC9CF
:101A7C0000F089EC08F000C08AF90050000A01E17E
:081A8C0002D08D07DCD7120027
:101A940009018A517A0804E3610E8A5DD8B08A9BF1
:061AA4008AC900F01200E7
:101AAA008AC992F90901936B230E8B25E96E000E00
:101ABA008C21EA6EEECF94F958DD020E005E120018
:101ACA008AC902F08BC903F002C000F003C001F01A
:101ADA00024A032A00C0E9FF01C0EAFFEE5201E010
:101AEA00F3D709018A51025C006E8B510358016ECB
:0A1AFA00010E005E000E015A1200FA
:101B0400250E09018A25E16E000E8B21E26E050E79
:101B1400E66E1E0E8A25E16E000E8B21E26E030E28
:101B2400E66E280E8A25E16E000E8B21E26EE66ACF
:101B3400E66A2A0E8A25E16E000E8B21E26EE66AC1
:101B4400E66A2C0E8A25E16E000E8B21E26EE66AAF
:101B5400E66A110EA06F230E8A25E96E000E8B2112
:0C1B6400EA6EEECFA1F96EEC03F0120067
:101B7000280E09018A25E96E000E8B21EA6EEECF50
:101B800003F0EECF04F02C0E8A25D96E000E8B21C7
:101B9000DA6EDECF01F0DECF02F00450021802E16F
:101BA0000150031803E1010E006E01D0006A12001B
:101BB0008AC902F08BC903F08DC900F08EC901F00B
:101BC000010E09018D5F000E8E5B0050011009E0CF
:101BD00002C0E1FF03C0E2FF8CC9E6FF024A032A0C
:0C1BE000EBD78AC900F08BC901F012009D
:101BEC00060E0C6E2B0E0D6E0D2EFED70C2EFCD78A
:021BFC001200D5
:101BFE00580E0901A06F040EA16F8AC9A2F98BC9F4
:101C0E00A3F9040EA46F000EA56FBFEC02F0670ED1
:101C1E00A06F040EA16F8CC9A2F98DC9A3F9040E91
:101C2E00A46F000EA56FBFEC02F06B0EA06F040E3A
:101C3E00A16F8EC9A2F98FC9A3F9040EA46F000E6D
:101C4E00A56FBFEC02F01F0E926F040E936F3CEC6B
:041C5E0009F0120077
:101C620009018C6B3C0E0801796F000E7A6F7B6F55
:101C72007C6F98EC08F000C08AF90050020AD8A4E0
:101C82002FD109018B6B0F0E8B5D05E298EC08F0EA
:101C920009018B2BF8D78F0E926F080E936FFF0EF0
:101CA200946FFF0E956F040E966F000E976FFEEC09
:101CB20008F08B6B080E8B5D05E298EC08F00901C9
:101CC2008B2BF8D78B6B060E8B5D13E298EC08F02A
:101CD20000C08AF9230ED96E040EDA6E09018B5107
:101CE200D926D8B0DA2A0050DE1801E025D18B2B94
:101CF200EAD78B6BCE0E8B5D05E298EC08F00901FA
:101D02008B2BF8D78D6B98EC08F000C08AF9C9D0FC
:101D120098EC08F000C08AF90050010A05E198EC3D
:101D220008F000C08CF901D007D1D6D098EC08F0A9
:101D320000C08AF90050040A10E19B0E0901926F5B
:101D4200080E936FFF0E946FFF0E956F040E966F41
:101D5200000E976FFEEC08F001D0EED0BDD098ECEB
:101D620008F000C08AF9040E005C10E39F0E09011E
:101D7200926F080E936FFF0E946FFF0E956F040E15
:101D8200966F000E976FFEEC08F001D0D5D00901D6
:101D9200040E8A5F09018AC900F08A07005203E033
:101DA20098EC08F0F7D798D098EC08F000C08AF9C0
:101DB200040E005C10E3930E0901926F080E936FFC
:101DC200FF0E946FFF0E956F040E966F000E976FC5
:101DD200FEEC08F001D0B0D00901040E8A5F0901BF
:101DE2008AC900F08A07005203E098EC08F0F7D79E
:101DF20073D098EC08F000C08AF90050040A10E190
:101E02008E0E0901926F090E936FFF0E946FFF0EF3
:101E1200956F040E966F000E976FFEEC08F001D0DE
:101E22008BD05AD00901010E8D6F56D098EC08F074
:101E320000C08AF90050040A24E1790E0901926F68
:101E4200080E936FFF0E946FFF0E956F040E966F40
:101E5200000E976FFEEC08F008017C51000808E1C3
:101E62007B51000805E17A51070802E1795108081F
:101E720007E2080E795F070E7A5B000E7B5B7C5BE4
:101E820001D05AD029D098EC08F000C08AF98AC94A
:101E920000F009018A07005203E098EC08F0F7D736
:101EA2001BD009018A51350AD8B432D78A51010AA6
:101EB200D8B43CD78A51030AD8B451D78A51060AFA
:101EC200D8B472D78A51360A94E08A51FF0AAAE03E
:101ED2008A51330AABE0D7D709018D53D8B413D74F
:101EE20009018C51020A0FE1970EA06F080EA16F33
:101EF2008E0EA26F090EA36F040EA46F000EA56FC3
:101F0200BFEC02F016D0970E926F080E936F8E0EF2
:101F1200946F090E956F040E966F000E976FCDECBD
:101F220008F0000E011802E1000E001802E009019B
:0C1F32008C6B8CC900F001D0006A12001A
:101F3E00F90E09018D6F000E8E6F020EBA6FD90E5B
:101F4E00BB6F190EBC6F36EC00F0480E0901926F94
:101F5E005A0E936F000E946F0C0E956F000E966FC7
:101F6E0083EC0AF08A51030A0DE18B530BE08F0EBE
:101F7E00B06F080EB16F040EB26F000EB36F31EC7E
:101F8E0001F00AD08C6B040E8C5D06E2B76B5EEC32
:101F9E0000F009018C2BF7D78C6B0C0E8C5D06E2D2
:101FAE00B76B5EEC00F009018C2BF7D7230EB06FE8
:101FBE00040EB16F060EB26F000EB36F31EC01F06E
:101FCE008C6BCA0E8C5D06E2B76B5EEC00F00901FD
:101FDE008C2BF7D7540E926F5A0E936F000E946F90
:101FEE00060E956F000E966F83EC0AF08AC9B7F94C
:101FFE005EEC00F009018A51030A1AE18B5318E1D5
:10200E00360EB76F5EEC00F0040E0901B76F5EEC92
:10201E0000F0970E0901B06F080EB16F040EB26F8B
:10202E00000EB36F31EC01F0060E8D27000E8E23DD
:10203E005A0E926F5A0E936F000E946F050E956F97
:10204E00000E966F83EC0AF08A51030A23E18B533C
:10205E0021E1320EB76F5EEC00F0040E0901B76F8E
:10206E005EEC00F009018C6B040E8C5D0FE28F0E9E
:10207E00E96E080EEA6E8C51E926D8B0EA2AEECF48
:10208E00B7F95EEC00F009018C2BEED7060E8D270A
:10209E00000E8E23FF0EB76F5EEC00F0160E0901D8
:1020AE00926F000E936F160E946F000E956F440E86
:1020BE00966F000E976F430E986F000E996F8DC935
:0C20CE009AF98EC99BF971EC09F0120020
:1020DA0098EC08F098EC08F098EC08F000C081F948
:1020EA0098EC08F000C080F998EC08F000C083F979
:1020FA0098EC08F000C082F998EC08F000C085F965
:10210A0098EC08F000C084F998EC08F098EC08F014
:10211A0098EC08F098EC08F082C900F083C901F045
:10212A00010E0901825F000E835B005001100EE070
:10213A0098EC08F0005201E0FBD798EC08F098EC14
:10214A0008F098EC08F098EC08F0E6D784C900F09B
:10215A0085C901F0010E0901845F000E855B0050FC
:10216A00011048E098EC08F098EC08F098EC08F0B8
:10217A0000C089F998EC08F000C088F998EC08F0DA
:10218A0098EC08F098EC08F098EC08F098EC08F055
:10219A0098EC08F098EC08F000C087F998EC08F081
:1021AA0000C086F9000E0901891902E1010E881999
:1021BA0011E198EC08F000C063F498EC08F000C054
:1021CA0064F498EC08F000C065F498EC08F000C0DC
:1021DA0066F410D086C900F087C901F0010E090122
:1021EA00865F000E875B0050011003E098EC08F050
:0621FA00F1D7ACD7120082
:102200000901806BC80E805D04E2F0DCEFDC802BFE
:04221000F9D71200E8
:102214008998400E09018011006E1CC4E1FF1DC4A1
:10222400E2FF00C0E6FF1AC400F01BC401F02AEC70
:1022340000F01CC4E1FF1DC4E2FF81C9E6FF1AC41B
:0E22440000F01BC401F02AEC00F089881200A3
:102252000901B76B98EC00F000C085F9010E090185
:10226200B76F98EC00F000C086F90901BA6B80C91B
:10227200BBF981C9BCF936EC00F089981CC4E1FFB6
:102282001DC4E2FF3A0EE66E1AC400F01BC401F050
:102292002AEC00F00901845318E01CC4E1FF1DC4BC
:1022A200E2FFE66A1AC400F01BC401F02AEC00F057
:1022B20082C9D9FF83C9DAFF0050DE1801E005D0D8
:1022C2000901824B832B8407E5D709018988BA6B00
:1022D20085C9BBF986C9BCF936EC00F084C900F0A7
:0222E2001200E8
:1022E40009018151190802E18051AD0808E2AD0EDF
:1022F400805F190E815B010E805F000E815BBA6BFB
:0E23040080C9BBF981C9BCF936EC00F01200AB
:10231200B50E0901A06F190EA16FBB0EA26F190EA7
:10232200A36FAF0EA46F190EA56FA66BE7EC02F0B8
:10233200B50EA06F190EA16F230EA26F040EA36F2C
:0E234200060EA46F000EA56F8EEC02F01200C6
:1023500080C992F981C993F9160E0901946F000E94
:10236000956F040E966F000E976FCDEC08F0000E7F
:10237000011802E1000E001803E1020E006E19D0F0
:1023800080C992F981C993F91F0E0901946F040E57
:10239000956F040E966F000E976FCDEC08F0000E4F
:1023A000011802E1000E001803E1010E006E01D0D9
:0423B000006A1200AD
:1023B400330E006E000E016E80C904F0000E056E2F
:1023C40009EC01F0A30E0026080E0122220E0024BF
:1023D400E16E000E0120E26E010EE66E330E006E19
:1023E400000E016E80C904F0000E056E09EC01F0C8
:1023F400A30E0026080E0122230E0024E16E000E17
:102404000120E26E80C9E6FF330E006E000E016EFD
:1024140080C904F0000E056E09EC01F0A30E00263D
:10242400080E0122260E0024E16E000E0120E26E49
:10243400E66AE66A330E006E000E016E80C904F08F
:10244400000E056E09EC01F0A30E0026080E012211
:10245400280E0024E16E000E0120E26EE66AE66AB0
:10246400330E006E000E016E80C904F0000E056E7E
:1024740009EC01F0A30E0026080E01222A0E002406
:10248400E16E000E0120E26EE66AE66A330E006E2B
:10249400000E016E80C904F0000E056E09EC01F017
:1024A400A30E0026080E01222C0E0024E16E000E5D
:1024B4000120E26EE66AE66A330E006E000E016EDB
:1024C40080C904F0000E056E09EC01F0A30E00268D
:1024D400080E01222E0E0024E16E000E0120E26E91
:1024E400E66AE66A330E006E000E016E80C904F0DF
:1024F400000E056E09EC01F0A30E0026080E012261
:10250400200E0024E16E000E0120E26E010EE66E44
:10251400010EE66E330E006E000E016E80C904F0EB
:10252400000E056E09EC01F0A30E0026080E012230
:102534000A0E0024E16E000E0120E26EE66AE66AED
:10254400330E006E000E016E80C904F0000E056E9D
:1025540009EC01F0A30E0026080E01220C0E002443
:10256400E16E000E0120E26EE66AE66A330E006E4A
:10257400000E016E80C904F0000E056E09EC01F036
:10258400A30E0026080E01221F0E0024E16E000E89
:102594000120E26EE66A330E006E000E016E80C901
:1025A40004F0000E056E09EC01F0A30E0026080EDF
:1025B40001221E0E0024E16E000E0120E26EE66A86
:1025C400330E006E000E016E80C904F0000E056E1D
:1025D40009EC01F0A30E0026080E0122250E0024AA
:1025E400E16E000E0120E26EE66A330E006E000E0C
:1025F400016E80C904F0000E056E09EC01F0A30E13
:102604000026080E01221A0E0024E16E000E01209D
:10261400E26EE66AE66AE66AE66A330E006E000E69
:10262400016E80C904F0000E056E09EC01F0A30EE2
:102634000026080E0122160E0024E16E000E012071
:10264400E26EE66AE66AE66AE66A330E006E000E39
:10265400016E80C904F0000E056E09EC01F0A30EB2
:102664000026080E0122140E0024E16E000E012043
:10267400E26E1E0EE66E000EE66E330E006E000E67
:10268400016E80C904F0000E056E09EC01F0A30E82
:102694000026080E0122120E0024E16E000E012015
:1026A400E26E1E0EE66E000EE66E330E006E000E37
:1026B400016E80C904F0000E056E09EC01F0A30E52
:1026C4000026080E0122240E0024E16E000E0120D3
:0626D400E26EE66A12004E
:1026DA0080C9E9FF81C9EAFFEECF8AF9EC0E090148
:1026EA008B6F080E8C6F0EEC0DF02E0E0801EF6F3B
:1026FA00010E09018025E96E000E8121EA6EEECFF6
:10270A008AF9F00E8B6F080E8C6F0EEC0DF02E0E00
:10271A000801F36F020E09018025E96E000E81217E
:10272A00EA6EEECF8AF9F40E8B6F080E8C6F0EEC00
:10273A000DF02E0E0801F76F030E09018025E96ED0
:10274A00000E8121EA6EEECF8AF9F80E8B6F080E21
:10275A008C6F0EEC0DF03A0E0801FB6F0A0E0901A0
:10276A008025E96E000E8121EA6EEECF8AF9EECF5E
:10277A008BF9FC0E8C6F080E8D6FC3EC0CF05B0EA0
:10278A00016F0C0E8025E96E000E8121EA6EEECFF4
:10279A008AF9EECF8BF9020E8C6F090E8D6FC3EC9E
:1027AA000CF05D0E076F086B0E0E8025D96E000EB9
:1027BA008121DA6E1C0EDE24826F000EDE20836F0A
:1027CA00EC0EB06F080EB16F1C0EB26F000EB36F35
:1027DA0031EC01F009010E0E8025046E000E8121F4
:1027EA00056E04C0E9FF05C0EAFFEECF02F0EECFA6
:1027FA0003F0010E025C006E000E0358016E04C065
:10280A00E1FF05C0E2FF00C0E6FF01C0E6FF02509B
:10281A0003100BE098EC08F000C08AF94AEC0DF0BE
:10282A0000C0B7F95EEC00F0D5D782C900F083C9C1
:04283A0001F0120097
:10283E00B2D05F0E09018A6F040E8B6F8C6B040E83
:10284E008D6F000E8E6FD8EC0DF0010E8A6F8B6BB4
:10285E009FEC0FF01DC06FF41EC070F41FC071F41A
:10286E0020C072F4030E3F6EA7D0050E04016F2533
:10287E00016E000E7021026E000E7121036E000EAD
:10288E007221046E2050045C08E11F50035C05E1C8
:10289E001E50025C02E11D50015C02E2020E3F6E10
:1028AE0031EC0EF00050020A03E1040E3F6E01D02F
:1028BE0083D0030E09018A6F42C08BF99FEC0FF093
:1028CE001DC06FF41EC070F41FC071F420C072F4EE
:1028DE00050E3F6E71D031EC0EF000C080F9005045
:1028EE00060A03E1040E3F6E2CD009018051050A41
:1028FE0028E11DC06FF41EC070F41FC071F420C01B
:10290E0072F4060E3F6E5F0EA06F040EA16F8F0E57
:10291E00A26F080EA36F040EA46F000EA56FBFEC7E
:10292E0002F09B0E8A6F080E8B6F9F0E8C6F080E37
:10293E008D6F930E8E6F080E8F6FFFEC0DF0426A47
:10294E003BD03AD0010E04016F25016E000E7021AE
:10295E00026E000E7121036E000E7221046E045081
:10296E00205C08E103501F5C05E102501E5C02E191
:10297E0001501D5C0FE3010E0801795F000E7A5BBA
:10298E007B5B7C5B1DC06FF41EC070F41FC071F4C6
:10299E0020C072F411D03F50020AD8B44AD73F502B
:1029AE00030AD8B462D73F50040A83E03F50050AA9
:0A29BE0092E03F50060AC6E0120046
:1029C8004750000A0CE1010E476E18C48AF919C471
:1029D8008BF965EC0DF000C00BF901C00CF94750FC
:1029E800010AD8A4E6D00901230E8025E96E000E5D
:1029F8008121EA6EEECF03F003C000F0000E016EF5
:102A0800003600900136D60E0024E96E080E01202B
:102A1800EA6EEECF01F0EECF02F00C51025C02E15B
:102A28000B51015C66E2230E8025E96E000E8121C0
:102A3800EA6EEECF03F003C000F0000E016E003620
:102A480000900136D60E0024046E080E0120056E93
:102A580004C0E9FF05C0EAFFEECF02F0EECF03F0B5
:102A6800010E0224006E000E0320016E04C0E1FF77
:102A780005C0E2FF00C0E6FF01C0E6FF0250040106
:102A88001825E96E03501921EA6EEECF8AF980C93C
:102A98008BF981C98CF955EC0DF00050000A28E13A
:102AA800230E8025E96E000E8121EA6EEECF03F039
:102AB80003C000F0000E016E003600900136D60EFD
:102AC8000024026E080E0120036E02C0E9FF03C055
:102AD800EAFF010EEE5C006E000EEE58016E02C0B9
:102AE800E1FF03C0E2FF00C0E6FF01C0E6FF01D03E
:102AF8007AD780C98AF981C98BF9B8EC0DF00052F0
:102B080058E0230E8025E96E000E8121EA6EEECF93
:102B180003F003C000F0000E016E0036009001368D
:102B2800D60E0024E96E080E0120EA6EEECF01F001
:102B3800EECF02F00C51025C02E10B51015C39E36B
:102B480080C98AF981C98BF982EC0DF0230E8025A2
:102B5800D96E000E8121DA6EDECF00F0000E016E14
:102B6800330E046E000E056E09EC01F0A30E00266C
:102B7800080E0122250E0024E16E000E0120E26EEF
:102B8800E66A476A230E8025E96E000E8121EA6E07
:102B9800EECF03F003C000F0000E016E0036009087
:102BA8000136D60E0024E16E080E0120E26EE66AB8
:042BB800E66A1200B7
:102BBC001F0E0901B76F010EB86FCFEC00F01F0E9E
:102BCC000901B76F020EB86FECEC00F0140E09019E
:102BDC00806F1EC981F90AEC11F0120E0901B76F52
:102BEC00010EB86FECEC00F000EC11F0120EB76FA8
:102BFC00010EB86FCFEC00F0160E0901B76F98EC10
:102C0C0000F021C9E1FF22C9E2FF00C0E6FF170E68
:102C1C000901B76F98EC00F01FC9E1FF20C9E2FF72
:062C2C0000C0E6FF1200EB
:102C32001F0E0901B76F010EB86FCFEC00F01F0E27
:102C42000901B76F020EB86FECEC00F0140E090127
:102C5200806F1EC981F90AEC11F000EC11F0160E1A
:102C6200806F20C981F90AEC11F000EC11F0170E07
:102C7200806F1FC981F90AEC11F000EC11F012000B
:102C8200C90E0901A06F190EA16FCD0EA26F190E08
:102C9200A36FCD0EA46F190EA56FA66BE7EC02F021
:102CA200C90EA06F190EA16F5F0EA26F040EA36F63
:0E2CB200040EA46F000EA56F8EEC02F012004F
:102CC00021C9B7F922C9B8F9B0EC00F000C02CF95D
:102CD00098EC08F000C02BF998EC08F000C02AF935
:102CE00098EC08F000C029F9000E09012A1902E148
:102CF000000E291901E1D0D098EC08F000C02EF99F
:102D000098EC08F000C02DF9330E0901926F090EFE
:102D1000936FCD0E946F190E956F040E966F000E83
:102D2000976FFEEC08F02F0E926F090E936FC90E8D
:102D3000946F190E956F040E966F000E976FFEEC50
:102D400008F0020EBA6F080E2125BB6F000E22217B
:102D5000BC6F36EC00F00E0E09011E25806F000ED0
:102D60001F21816F20518027000E8123080E8027AC
:102D7000000E812372EC11F0000E09012C1902E102
:102D8000350E2B1903E16DEC10F086D0000E090111
:102D90002A1902E1440E291902E151DD7DD0230EEA
:102DA0000901926F090E936FB50E946F190E956F0E
:102DB000060E966F000E976FFEEC08F00E0E1E25A5
:102DC000806F000E1F21816F20518027000E81230C
:102DD000080E8027000E812372EC11F07D0E090190
:102DE000A06F080EA16F2F0EA26F090EA36F040E25
:102DF000A46F000EA56FBFEC02F0810EA06F080E4D
:102E0000A16F230EA26F090EA36F060EA46F000E12
:102E1000A56FBFEC02F02BC987F82CC988F829C927
:102E200089F82AC98AF8080E2D5D006E000E2E5909
:102E3000016E00C08BF801C08CF8330E806F090E54
:102E4000816FA8EC11F000C08DF8000E08018E6FA4
:102E50007D0E0901806F080E816F3FDC00C02DF9E7
:102E600001C02EF90050011017E0230E0901926FE6
:102E7000090E936F2F0E946F090E956F29C996F95D
:102E80002AC997F92BC998F92CC999F92DC99AF92A
:0A2E90002EC99BF971EC09F0120045
:102E9A0009016C6B756B7A6B7B6B7C6B7D6B710E4E
:102EAA00926F090E936F0E0E1E25946F000E1F214E
:102EBA00956F100E9427000E9523040E966F000E40
:102ECA00976FFEEC08F06D0E926F090E936F0E0E5F
:102EDA001E25946F000E1F21956F0C0E9427000E6D
:102EEA009523040E966F000E976FFEEC08F022C928
:102EFA00B7F923C9B8F9B0EC00F000C031F998EC81
:102F0A0008F000C030F998EC08F000C033F998ECEA
:102F1A0008F000C032F90901766B776B800E7719D9
:102F2A00006E000E800A005C02E1010E765DD8B0E8
:102F3A00C7D0330E006E000E016E76C904F077C951
:102F4A0005F009EC01F0A30E0026080E0122220E5C
:102F5A000024E96E000E0120EA6EEE50000A0FE12D
:102F6A00000E7D1902E1000E7C1908E176C978F994
:102F7A0077C979F9010E7C6F000E7D6F9ED0330EF2
:102F8A00006E000E016E76C904F077C905F009ECEF
:102F9A0001F0A30E0024D96E080E0120DA6EDECFEE
:102FAA0001F06D510118D8A488D0330E006E000EBE
:102FBA00016E76C904F077C905F009EC01F0A30E99
:102FCA000026080E0122010E0024D96E000E0120EF
:102FDA00DA6E6E51DE1871E1330E006E000E016E6C
:102FEA0076C904F077C905F009EC01F0A30E0026B2
:102FFA00080E0122020E0024D96E000E0120DA6E9C
:10300A006F51DE185AE1330E006E000E016E76C95A
:10301A0004F077C905F009EC01F0A30E0026080EAA
:10302A000122030E0024D96E000E0120DA6E7051BF
:10303A00DE1843E1330E006E000E016E76C904F00D
:10304A0077C905F009EC01F0A30E0026080E01224B
:10305A000A0E0024D96E000E0120DA6EDECF01F0CE
:10306A00DECF02F03151021802E10150301925E198
:10307A00330E006E000E016E76C904F077C905F0B2
:10308A0009EC01F0A30E0026080E01220C0E002402
:10309A00D96E000E0120DA6EDECF01F0DECF02F02B
:1030AA003351021802E10150321907E176C975F964
:1030BA00010E7A6F000E7B6F03D0764B772B2ED7DB
:1030CA00000E7B1902E1000E7A19D8A491D0000EE5
:1030DA007D1902E1010E7C19D8A48AD078C980F939
:1030EA00DAEC11F078C975F9330E006E000E016E34
:1030FA0078C904F0000E056E09EC01F0A30E002455
:10310A00E16E080E0120E26E6DC9E6FF330E006E15
:10311A00000E016E75C904F0000E056E09EC01F08F
:10312A00A30E0026080E0122010E0024E16E000EF5
:10313A000120E26E6EC9E6FF330E006E000E016ECC
:10314A0075C904F0000E056E09EC01F0A30E002605
:10315A00080E0122020E0024E16E000E0120E26E2A
:10316A006FC9E6FF330E006E000E016E75C904F0DA
:10317A00000E056E09EC01F0A30E0026080E0122CE
:10318A00030E0024E16E000E0120E26E70C9E6FF14
:10319A00330E006E000E016E75C904F0000E056E46
:1031AA0009EC01F0A30E0026080E01220C0E0024E1
:1031BA00E16E000E0120E26E32C9E6FF33C9E6FF76
:1031CA00330E006E000E016E75C904F0000E056E16
:1031DA0009EC01F0A30E0026080E01220A0E0024B3
:1031EA00E16E000E0120E26E30C9E6FF31C9E6FF4A
:1031FA00000E7B1902E1000E7A190AE1000E7D1910
:10320A0002E1000E7C1904E1060E006E1EEF22F0A8
:10321A00330E006E000E016E75C904F0000E056EC5
:10322A0009EC01F0A30E0026080E0122240E002448
:10323A007E6F000E01207F6F710E806F090E816F05
:10324A00A8EC11F07EC9E1FF7FC9E2FF00C0E6FFEA
:10325A00330E006E000E016E75C904F0000E056E85
:10326A0009EC01F0A30E00240901926F080E012057
:10327A00936F040E9227000E9323060E1E25946F59
:10328A00000E1F21956F060E966F000E976FFEECCB
:10329A0008F0040E2225B76F000E2321B86FB0EC98
:1032AA0000F000C037F998EC08F000C036F998EC45
:1032BA0008F000C035F998EC08F000C034F998EC31
:1032CA0008F000C03BF998EC08F000C03AF998EC15
:1032DA0008F000C039F998EC08F000C038F90C0E73
:1032EA0009012225B76F000E2321B86FB0EC00F058
:1032FA0000C03CF900C026F9000E0901276F2633E9
:10330A00269F2633269F000E276FFC0E2617FF0ED8
:10331A0027170D0E2225B76F000E2321B86FB0ECC8
:10332A0000F03F0E001600C03DF90E0E09012225DD
:10333A00B76F000E2321B86FB0EC00F000C03FF960
:10334A0098EC08F000C03EF998EC08F000C041F98A
:10335A0098EC08F000C040F998EC08F000C043F976
:10336A0098EC08F000C042F9330E006E000E016EB0
:10337A0075C904F0000E056E09EC01F0A30E0026D3
:10338A00080E01220E0E0024E16E000E0120E26EEC
:10339A000E0E04015C5D006E000E5D59016E09019E
:1033AA002051005E2151015A2651005E2751015ACF
:1033BA0000C0E6FF01C0E6FF000E006E2751005C68
:1033CA0002E12651140820E2766B776B140E265D13
:1033DA00016E000E2759026E0250775D02E101501C
:1033EA00765D12E2440E76257E6F090E77217F6F95
:1033FA0098EC08F07EC9E1FF7FC9E2FF00C0E6FF52
:10340A000901764B772BE2D73D51020AD8A45BD14A
:10341A00330E006E000E016E75C904F0000E056EC3
:10342A0009EC01F0A30E0026080E0122250E002445
:10343A00E96E000E0120EA6EEE50000A1FE1330E1B
:10344A00006E000E016E75C904F0000E056E09ECDF
:10345A0001F0A30E0026080E01220E0E0024E96ECA
:10346A00000E0120EA6EEECF01F0EECF02F0000E60
:10347A00021802E1000E011801E103D0006A1EEFF2
:10348A0022F04451020A1FE1330E006E000E016E53
:10349A0075C904F0000E056E09EC01F0A30E0026B2
:1034AA00080E0122100E0024E16E000E0120E26EC9
:1034BA0046C901F0006A47510026000E012200C0E9
:1034CA00E6FF01C0E6FF330E006E000E016E75C9FD
:1034DA0004F0000E056E09EC01F0A30E0026080E9A
:1034EA0001221A0E0024E16E000E0120E26E010E86
:1034FA003425006E000E3521016E000E3621026E53
:10350A00000E3721036E00C0E6FF01C0E6FF02C0CD
:10351A00E6FF03C0E6FF330E006E000E016E75C9AA
:10352A0004F0000E056E09EC01F0A30E0026080E49
:10353A000122160E0024E16E000E0120E26E340E06
:10354A00E66E120EE66E000EE66EE66E330E006E44
:10355A00000E016E75C904F0000E056E09EC01F04B
:10356A00A30E0026080E0122280E0024E16E000E8A
:10357A000120E26EE66AE66A330E006E000E016E04
:10358A0075C904F0000E056E09EC01F0A30E0026C1
:10359A00080E01222A0E0024E16E000E0120E26EBE
:1035AA00E66AE66A330E006E000E016E75C904F013
:1035BA00000E056E09EC01F0A30E0026080E01228A
:1035CA002C0E0024E16E000E0120E26EE66AE66A25
:1035DA00330E006E000E016E75C904F0000E056E02
:1035EA0009EC01F0A30E0026080E01222E0E00247B
:1035FA00E16E000E0120E26EE66AE66A120EA06F24
:10360A0075C9A1F96EEC03F0330E006E000E016E5F
:10361A0075C904F0000E056E09EC01F0A30E002630
:10362A00080E0122250E0024E16E000E0120E26E32
:10363A00010EE66E330E006E000E016E75C904F0BF
:10364A00000E056E09EC01F0A30E0026080E0122F9
:10365A001E0E0024E16E000E0120E26E030EE66EDD
:10366A00330E006E000E016E75C904F0000E056E71
:10367A0009EC01F0A30E0026080E0122160E002402
:10368A00046E000E0120056E04C0E9FF05C0EAFFC2
:10369A00010EEE24006E000EEE20016E000EEE20EA
:1036AA00026E000EEE20036E04C0E1FF05C0E2FFC9
:1036BA0000C0E6FF01C0E6FF02C0E6FF03C0E6FF66
:1036CA00006A1EEF22F03D51120AD8A42BD1330E04
:1036DA00006E000E016E75C904F0000E056E09EC4D
:1036EA0001F0A30E0026080E0122250E0024E96E21
:1036FA00000E0120EA6EEE50040A1FE1330E006E3E
:10370A00000E016E75C904F0000E056E09EC01F099
:10371A00A30E0026080E01220E0E0024E96E000EEA
:10372A000120EA6EEECF01F0EECF02F0000E021891
:10373A0002E1000E011801E103D0006A1EEF22F037
:10374A004451020A1FE1330E006E000E016E75C964
:10375A0004F0000E056E09EC01F0A30E0026080E17
:10376A000122100E0024E16E000E0120E26E46C90D
:10377A0001F0006A47510026000E012200C0E6FF50
:10378A0001C0E6FF330E006E000E016E75C904F02B
:10379A00000E056E09EC01F0A30E0026080E0122A8
:1037AA001A0E0024E16E000E0120E26E010E34258D
:1037BA00006E000E3521016E000E3621026E000EDB
:1037CA003721036E00C0E6FF01C0E6FF02C0E6FF34
:1037DA0003C0E6FF330E006E000E016E75C904F0D9
:1037EA00000E056E09EC01F0A30E0026080E012258
:1037FA00160E0024E16E000E0120E26E38C9E6FFC3
:10380A0039C9E6FF3AC9E6FF3BC9E6FF330E006E47
:10381A00000E016E75C904F0000E056E09EC01F088
:10382A00A30E0026080E0122280E0024E16E000EC7
:10383A000120E26EE66AE66A330E006E000E016E41
:10384A0075C904F0000E056E09EC01F0A30E0026FE
:10385A00080E01222A0E0024E16E000E0120E26EFB
:10386A00E66AE66A330E006E000E016E75C904F050
:10387A00000E056E09EC01F0A30E0026080E0122C7
:10388A002C0E0024E16E000E0120E26EE66AE66A62
:10389A00330E006E000E016E75C904F0000E056E3F
:1038AA0009EC01F0A30E0026080E01222E0E0024B8
:1038BA00E16E000E0120E26EE66AE66A100EA06F63
:1038CA0075C9A1F96EEC03F0330E006E000E016E9D
:1038DA0075C904F0000E056E09EC01F0A30E00266E
:1038EA00080E0122250E0024E16E000E0120E26E70
:1038FA00030EE66E330E006E000E016E75C904F0FB
:10390A00000E056E09EC01F0A30E0026080E012236
:10391A001E0E0024E16E000E0120E26EE66A006AC5
:10392A001EEF22F0010E3D15016E0150000AD8B4B7
:10393A00A4D0330E006E000E016E75C904F0000E9D
:10394A00056E09EC01F0A30E0026080E01221A0EDC
:10395A000024E16E000E0120E26E010E3425006E95
:10396A00000E3521016E000E3621026E000E37213F
:10397A00036E00C0E6FF01C0E6FF02C0E6FF03C017
:10398A00E6FF330E006E000E016E75C904F0000EDC
:10399A00056E09EC01F0A30E0026080E01222E0E78
:1039AA000024E16E000E0120E26EE66AE66A100E5D
:1039BA00A06F75C9A1F96EEC03F0330E006E000E0C
:1039CA00016E75C904F0000E056E09EC01F0A30E34
:1039DA000026080E0122250E0024E96E000E0120A1
:1039EA00EA6EEE50060A07E0110EA06F75C9A1F93A
:1039FA006EEC03F015D0330E006E000E016E75C921
:103A0A0004F0000E056E09EC01F0A30E0026080E64
:103A1A0001221E0E0024E16E000E0120E26EE66A0B
:103A2A00330E006E000E016E75C904F0000E056EAD
:103A3A0009EC01F0A30E0026080E0122250E00242F
:103A4A00E16E000E0120E26EE66A330E006E000E91
:103A5A00016E75C904F0000E056E09EC01F0A30EA3
:103A6A000026080E0122220E0024E16E000E01201B
:103A7A00E26EE66A006A1EEF22F0040E3D15016E40
:103A8A000150000A2DE0330E006E000E016E75C95A
:103A9A0004F0000E056E09EC01F0A30E0026080ED4
:103AAA000122250E0024E16E000E0120E26EE66A74
:103ABA00330E006E000E016E75C904F0000E056E1D
:103ACA0009EC01F0A30E0026080E0122220E0024A2
:103ADA00E16E000E0120E26EE66A006A1EEF22F035
:103AEA00330E006E000E016E75C904F0000E056EED
:103AFA0009EC01F0A30E0026080E0122250E00246F
:103B0A00E96E000E0120EA6EEE50000A18E1330E4B
:103B1A00006E000E016E75C904F0000E056E09EC08
:103B2A0001F0A30E0026080E0122220E0024E16EE7
:103B3A00000E0120E26EE66A006A1EEF22F0010E14
:103B4A006C6F100E3D15016E0150000AD8B4E6D311
:103B5A00330E006E000E016E75C904F0000E056E7C
:103B6A0009EC01F0A30E0026080E0122250E0024FE
:103B7A00E96E000E0120EA6EEE50010A56E1330E9C
:103B8A00006E000E016E75C904F0000E056E09EC98
:103B9A0001F0A30E0026080E01221A0E0024D96E87
:103BAA00000E0120DA6EDECF01F0DECF02F0DECFAA
:103BBA0003F0DECF04F03751041808E13651031838
:103BCA0005E13551021802E1345101182BE1330E97
:103BDA00006E000E016E75C904F0000E056E09EC48
:103BEA0001F0A30E0026080E01221E0E0024E16E2B
:103BFA00000E0120E26EE66A330E006E000E016EC0
:103C0A0075C904F0000E056E09EC01F0A30E00263A
:103C1A00080E0122250E0024E16E000E0120E26E3C
:103C2A00030EE66E006A1EEF22F0330E006E000EDF
:103C3A00016E75C904F0000E056E09EC01F0A30EC1
:103C4A000026080E01221A0E0024D96E000E012049
:103C5A00DA6EDECF01F0DECF02F0DECF03F0DECF88
:103C6A0004F03751041808E13651031805E13551BB
:103C7A00021802E13451011802E0006ADAD3330E65
:103C8A00006E000E016E75C904F0000E056E09EC97
:103C9A0001F0A30E0026080E0122250E0024E96E6B
:103CAA00000E0120EA6EEE50050A56E1330E006E50
:103CBA00000E016E75C904F0000E056E09EC01F0E4
:103CCA00A30E0026080E01221A0E0024D96E000E39
:103CDA000120DA6EDECF01F0DECF02F0DECF03F094
:103CEA00DECF04F03751041808E13651031805E114
:103CFA003551021802E1345101182CE1330E006EDD
:103D0A00000E016E75C904F0000E056E09EC01F093
:103D1A00A30E0026080E01221E0E0024E16E000EDC
:103D2A000120E26E030EE66E330E006E000E016E87
:103D3A0075C904F0000E056E09EC01F0A30E002609
:103D4A00080E0122250E0024E16E000E0120E26E0B
:103D5A00060EE66E006A6DD3330E006E000E016E1B
:103D6A0075C904F0000E056E09EC01F0A30E0026D9
:103D7A00080E0122250E0024E96E000E0120EA6ECB
:103D8A00EE50060A18E1330E006E000E016E76C977
:103D9A0004F077C905F009EC01F0A30E0026080E1D
:103DAA0001221E0E0024E16E000E0120E26E030EB7
:103DBA00E66E006A3ED3330E006E000E016E75C9C0
:103DCA0004F0000E056E09EC01F0A30E0026080EA1
:103DDA000122250E0024E96E000E0120EA6EEE5043
:103DEA00030A19E0330E006E000E016E75C904F065
:103DFA00000E056E09EC01F0A30E0026080E012242
:103E0A00250E0024E96E000E0120EA6EEE50070A24
:103E1A0002E0006A0ED3330E006E000E016E75C901
:103E2A0004F0000E056E09EC01F0A30E0026080E40
:103E3A000122280E0024E96E000E0120EA6EEECF60
:103E4A0003F0EECF04F02A0E0024D96E000E0120F2
:103E5A00DA6EDECF01F0DECF02F00450021802E182
:103E6A0001500318D8B438D2330E006E000E016E1A
:103E7A0075C904F0000E056E09EC01F0A30E0026C8
:103E8A00080E01222A0E0024E96E000E0120EA6EB5
:103E9A00EECF03F0EECF04F0280E0024D96E000E08
:103EAA000120DA6EDECF01F0DECF02F00250045CB0
:103EBA0002E10150035C25E2330E006E000E016E32
:103ECA0075C904F0000E056E09EC01F0A30E002678
:103EDA00080E01222A0E0024E96E000E0120EA6E65
:103EEA00000EEE24246F040EEE20256F280E002407
:103EFA00D96E000E0120DA6EDE50245FDE50255B9B
:103F0A0020D0330E006E000E016E75C904F0000E4B
:103F1A00056E09EC01F0A30E0026080E01222A0EF6
:103F2A000024E96E000E0120EA6E280E0024D96EE4
:103F3A00000E0120DA6EDE50EE5C246FDE50EE5881
:103F4A00256F38C928F939C929F93AC92AF93BC963
:103F5A002BF9330E006E000E016E75C904F0000EC7
:103F6A00056E09EC01F0A30E0026080E0122160EBA
:103F7A000024D96E000E0120DA6EDECF01F0DECF0A
:103F8A0002F0DECF03F0DECF04F03B51045C08E11F
:103F9A003A51035C05E13951025C02E13851015C96
:103FAA00D8B005D1330E006E000E016E75C904F04B
:103FBA00000E056E09EC01F0A30E0026080E012280
:103FCA00160E0024E96E000E0120EA6E2451EE243A
:103FDA00016E2551EE20026E000EEE20036E000ED9
:103FEA00EE20046E2B51045C08E12A51035C05E1C2
:103FFA002951025C02E12851015CD8A0D8D0330EC5
:10400A00006E000E016E75C904F0000E056E09EC13
:10401A0001F0A30E0026080E0122250E0024E96EE7
:10402A00000E0120EA6EEE50070A16E1330E006E0A
:10403A00000E016E75C904F0000E056E09EC01F060
:10404A00A30E0026080E0122250E0024E16E000EA2
:10405A000120E26E030EE66E330E006E000E016E54
:10406A0075C904F0000E056E09EC01F0A30E0026D6
:10407A00080E01221F0E0024E16E000E0120E26EDE
:10408A00E66A330E006E000E016E75C904F0000E6A
:10409A00056E09EC01F0A30E0026080E0122160E89
:1040AA000026000E012200C0D9FF01C0DAFF28C98C
:1040BA002CF929C92DF92AC92EF92BC92FF9DE5055
:1040CA002C5FDE502D5BDE502E5BDE502F5B00C076
:1040DA00E1FF01C0E2FF28C9E6FF29C9E6FF2AC9B4
:1040EA00E6FF2BC9E6FF330E006E000E016E75C99E
:1040FA0004F0000E056E09EC01F0A30E0026080E6E
:10410A000122280E0024046E000E0120056E04C050
:10411A00E9FF05C0EAFF2C51EE24026E2D51EE2074
:10412A00036E000E006E040E016E010E005E000E9C
:10413A00015A025000160350011604C0E1FF05C0DF
:10414A00E2FF00C0E6FF01C0E6FF330E006E000E7C
:10415A00016E75C904F0000E056E09EC01F0A30E9C
:10416A000026080E01222E0E0024E16E000E012008
:10417A00E26EE66AE66A330E006E000E016E75C9DB
:10418A0004F0000E056E09EC01F0A30E0026080EDD
:10419A000122300E0024E96E000E0120EA6EEE5074
:1041AA00010A03E1010E6C6F01D06C6B95D0330EDE
:1041BA00006E000E016E75C904F0000E056E09EC62
:1041CA0001F0A30E0026080E0122160E0024D96E55
:1041DA00000E0120DA6EDECF01F0DECF02F0DECF74
:1041EA0003F0DECF04F02B51041808E12A5103181A
:1041FA0005E12951021802E12851011839E1330E6B
:10420A00006E000E016E75C904F0000E056E09EC11
:10421A0001F0A30E0026080E01222A0E0024E16EE8
:10422A00000E0120E26E280E0024E96E000E012025
:10423A00EA6EEECFE6FFEECFE6FF330E006E000E1B
:10424A00016E75C904F0000E056E09EC01F0A30EAB
:10425A000026080E01222E0E0024E16E000E012017
:10426A00E26E24C9E6FF25C9E6FF010E6C6F34D061
:10427A00330E006E000E016E75C904F0000E056E55
:10428A0009EC01F0A30E0026080E0122160E0024E6
:10429A00E16E000E0120E26E28C9E6FF29C9E6FF99
:1042AA002AC9E6FF2BC9E6FF330E006E000E016E27
:1042BA0075C904F0000E056E09EC01F0A30E002684
:1042CA00080E01222E0E0024E16E000E0120E26E7D
:1042DA00E66AE66A010E6C6F330E006E000E016E1E
:1042EA0075C904F0000E056E09EC01F0A30E002654
:1042FA00080E01220E0E0024E96E000E0120EA6E5D
:10430A00EECF01F0EECF02F0000E006E0250005C1C
:10431A0002E10150000802E2010E6C6F330E006EDA
:10432A00000E016E75C904F0000E056E09EC01F06D
:10433A00A30E0026080E0122300E0024E16E000EA4
:10434A000120E26EE66A330E006E000E016E75C938
:10435A0004F0000E056E09EC01F0A30E0024806F34
:10436A00080E0120816FE4EC14F0330E006E000E8B
:10437A00016E75C904F0000E056E09EC01F0A30E7A
:10438A000026080E01220E0E0024E96E000E0120FE
:10439A00EA6EEECF01F0EECF02F0000E006E025090
:1043AA00005C02E10150000839E2330E006E000E93
:1043BA00016E75C904F0000E056E09EC01F0A30E3A
:1043CA000026080E01221A0E0024046E000E012097
:1043DA00056E0E0E0024E96E000E0120EA6EEECF85
:1043EA0000F0EECF01F0000E026E036E04C0E9FF8A
:1043FA0005C0EAFFEE500026EE500122EE500222DE
:10440A00EE50032204C0E1FF05C0E2FF00C0E6FF50
:10441A0001C0E6FF02C0E6FF03C0E6FF09016C53D4
:10442A0007E0926B020E936F75C994F9BAEC0AF021
:04443A00006A120002
:10443E00C40E0901B76F190EB86FB0EC00F000C0D2
:10444E001EF9E8D0D50E0901806F190E816F5F0E2F
:10445E00826F040E836F040E846F29EC11F00050EE
:10446E00000A4BE1C40E0901B76F190EB86F020EA8
:10447E00B96F77EC00F089EC11F0CB0EA06F190E2E
:10448E00A16FCF0EA26F190EA36FD50EA46F190ECA
:10449E00A56FA66BE7EC02F0CB0EA06F190EA16F05
:1044AE005F0EA26F040EA36F040EA46F000EA56F15
:1044BE008EEC02F0C50EA06F190EA16FCB0EA26F7F
:1044CE00190EA36FCF0EA46F190EA56FA66BE7EC96
:1044DE0002F0C50EA06F190EA16F230EA26F040E6F
:1044EE00A36F060EA46F000EA56F8EEC02F03C0EAD
:1044FE00B06F000EB16F86EC01F095D00901AF0ED2
:10450E00806F190E816F230E826F040E836F060E5D
:10451E00846F29EC11F00050000A7BE1CB0E0901EB
:10452E00806F190E816F29C482F92AC483F9040E93
:10453E00846F29EC11F00050000A6BE10F0E006E33
:10454E00000E016E1CC004F0000E056E09EC01F0A9
:10455E002B0E00240901926F040E0120936F090E99
:10456E009227000E9323C50E946F190E956F060EAB
:10457E00966F000E976FFEEC08F00F0E006E000E99
:10458E00016E1CC004F0000E056E09EC01F02B0E3E
:10459E000024A06F040E0120A16F050EA027000EAF
:1045AE00A12329C4A2F92AC4A3F9040EA46F000EF4
:1045BE00A56FBFEC02F00F0E006E000E016E1CC058
:1045CE0004F0000E056E09EC01F02B0E0024E16ED6
:1045DE00040E0120E26E010EE66E0F0E006E000E4E
:1045EE00016E1CC004F0000E056E09EC01F02B0EDE
:1045FE000026040E0122010E0024E16E000E0120A1
:10460E00E26E1DC0E6FF1EC0E6FF1FC0E6FF20C023
:10461E00E6FF09D009011E51010AD8B413D71E5165
:08462E00020AD8B46BD7120098
:104636000901806B125303E00D0E136F02D0050EB5
:10464600136F13C981F90AEC11F0020E0901806F8C
:10465600125303E0310E146F02D0300E146F14C9DA
:1046660081F90AEC11F00A0E0901BA6FEE0EBB6F62
:10467600050EBC6F36EC00F0040E0901806F125374
:1046860003E0150E156F02D0120E156F15C981F9CC
:104696000AEC11F0060E0901806F120E816F0AEC0A
:1046A60011F00901125306E1070E806F0C0E816F9F
:1046B6000AEC11F00901125306E1090E806F3F0E54
:1046C600816F0AEC11F01F0E0901B76F010EB86F6A
:1046D600ECEC00F01F0E0901B76F020EB86FECECA0
:1046E60000F0040E0901806F23C481F90AEC11F071
:1046F600050E0901806F24C481F90AEC11F0020E3F
:104706000901806F25C481F90AEC11F0030E090135
:10471600806F26C481F90AEC11F00901806B27C469
:1047260081F90AEC11F0010E0901806F28C481F9A4
:104736000AEC11F0150E0901806F816B0AEC11F07D
:10474600120E0901B76F98EC00F000C01EF40901C3
:104756001E6B170E1F6F090E206F180E216F090EA4
:10476600226FDEEC15F009011E6BFE0E17151F6F8A
:10477600125303E0010E166F01D0166B16511F136C
:1047860018C920F919EC16F0100E1E6F010E1F6FD6
:10479600206B19EC16F01F0EB76F040EB86FECEC19
:1047A60000F000EC11F02B0E8A6F040E8B6F8C6BF1
:1047B6008D6B8E6BD8EC0DF01F0EB76F010EB86FB8
:1047C600CFEC00F01F0E0901B76F020EB86FCFECE9
:0447D60000F01200DD
:1047DA0009011B6B1F0EB76F010EB86FCFEC00F00B
:1047EA001F0E0901B76F020EB86FCFEC00F0090176
:1047FA00BA6B40C0BBF941C0BCF936EC00F08998ED
:10480A001CC4E1FF1DC4E2FF3A0EE66E1AC400F0B2
:10481A001BC401F02AEC00F01CC4E1FF1DC4E2FF36
:10482A00E66A1AC400F01BC401F02AEC00F000C0CA
:10483A0040F01CC4E1FF1DC4E2FFE66A1AC400F09E
:10484A001BC401F02AEC00F000C041F01CC4E1FFD7
:10485A001DC4E2FFE66A1AC400F01BC401F02AEC88
:10486A0000F000C05CF41CC4E1FF1DC4E2FFE66A6C
:10487A001AC400F01BC401F02AEC00F000C05DF479
:10488A001CC4E1FF1DC4E2FFE66A1AC400F01BC49F
:10489A0001F02AEC00F000C019F91CC4E1FF1DC4A4
:1048AA00E2FFE66A1AC400F01BC401F02AEC00F029
:1048BA0000C01AF98988040E04015C5F000E5D5B72
:1048CA004150190802E14050AD0810E340B00ED043
:1048DA0009011ABF0BD004015D51050802E15C51C0
:1048EA00EE0804E3090119AF01D003D0010E006EEE
:1048FA00CAD10901B76B98EC00F000C017F9010E94
:10490A000901B76F98EC00F000C018F917C9A0F9AF
:10491A0018C9A1F904015C5109011725A26F040104
:10492A005D5109011821A36FAF0EA46F190EA56F6F
:10493A00010EA66FE7EC02F0BB0EB76F190EB86F47
:10494A00B0EC00F000C01AF998EC08F000C019F9B0
:10495A0009011A51080A02E1060E191911E1BD0EE0
:10496A00806F190E816F370E826F000E836F070EEC
:10497A00846F29EC11F00050000A01E15BDD59D186
:10498A0009011A51080A02E1000E1919D8A44ED1D8
:10499A00CD0E806F190E816F5F0E826F040E836FCA
:1049AA00040E846F29EC11F0005222E0CD0E0901A9
:1049BA00806F190E816F160E826F000E836F040EC0
:1049CA00846F29EC11F0005213E0CD0E0901806FBB
:1049DA00190E816F1F0E826F040E836F040E846F8F
:1049EA0029EC11F0005204E0020E09011B6F1DD1DF
:1049FA000901BD0EB76F190EB86FB0EC00F0F00EDA
:104A0A000014016E0150400A04E0030E09011B6FF5
:104A1A000CD10901BD0EB76F190EB86FB0EC00F0DA
:104A2A0000C015F9000E0901166F0F0E1517000EBA
:104A3A001617153715911637153715911637C30EF0
:104A4A00B76F190EB86FB0EC00F0BF0E0014016E0C
:104A5A000150000AD8A4E9D0C40E0901B76F190E93
:104A6A00B86FB0EC00F00050000AD8A4DED0BD0E3A
:104A7A0009011525136F190E1621146FC60EB76F8B
:104A8A00190EB86FB0EC00F000C012F90050010A1C
:104A9A00D8A48CD013C9B7F914C9B8F9B0EC00F08E
:104AAA000050080AD8A481D0010E09011325B76F56
:104ABA00000E1421B86FB0EC00F00050000A75E146
:104ACA0013C9B7F914C9B8F90901B96B77EC00F041
:104ADA0089EC11F041EC16F0C70EB06F190EB16FE8
:104AEA00B26BB36B5FEC02F0BD0E0901B06F190E29
:104AFA00B16F15C9B2F916C9B3F95EEC01F0160E19
:104B0A000901B76F98EC00F000C01CF9170E0901F3
:104B1A00B76F98EC00F000C0B2F9C70E0901B06F88
:104B2A00190EB16F1CC9B3F95FEC02F0020E09014C
:104B3A001325B06F000E1421B16FB26BB36B5FEC2B
:104B4A0002F013C9B0F914C9B1F9090115510401E8
:104B5A005C5D0901B26F165104015D590901B36F19
:104B6A000E0EB25F000EB35B5EEC01F0160E090189
:104B7A00B76F98EC00F000C01CF9170E0901B76F67
:104B8A0098EC00F000C0B2F9020E09011325B06FCB
:104B9A00000E1421B16F1CC9B3F95FEC02F05CC4BA
:104BAA00B0F95DC4B1F986EC01F03FD009011251A8
:104BBA00110A0DE117C91EF918C91FF915C920F9FB
:104BCA0013C921F914C922F960EC16F02ED0090193
:104BDA001251060A2AE1100E1725B76F000E182186
:104BEA00B86FB0EC00F000C01DF909011C6B98EC1D
:104BFA0008F0005009011C2504015C6F000E090130
:104C0A001D2104015D6F0E0E5C27000E5D2317C97E
:104C1A001EF918C91FF915C920F916C921F913C9AE
:104C2A0022F914C923F94DEC17F003D00901040E37
:104C3A001B6F09011E0EB76F400EB86FECEC00F047
:104C4A00010E405C016E000E4158026E02501908B6
:104C5A0002E10150AD080AE20C0E0901BA6FAD0E6D
:104C6A00BB6F190EBC6F36EC00F00BD00C0E0901AD
:104C7A00BA6F010E405CBB6F000E4158BC6F36EC38
:084C8A0000F01BC900F012004C
:104C92000901146B010E145DD8B030D3330E006ECF
:104CA200000E016E14C904F0000E056E09EC01F04D
:104CB200A30E0026080E0122220E0024E96E000E29
:104CC2000120EA6EEE50000A01E116D3330E006EA7
:104CD200000E016E14C904F0000E056E09EC01F01D
:104CE200A30E0026080E01221E0E0024E96E000EFD
:104CF2000120EA6EEE50000A01E1D9D0330E006EB7
:104D0200000E016E14C904F0000E056E09EC01F0EC
:104D1200A30E0026080E01221E0E0024026E000EB3
:104D22000120036E02C0E9FF03C0EAFFEE04006E39
:104D320002C0E1FF03C0E2FF00C0E6FF330E006ED7
:104D4200000E016E14C904F0000E056E09EC01F0AC
:104D5200A30E0026080E01221E0E0024E96E000E8C
:104D62000120EA6EEE50000AD8A4A1D0330E006EE4
:104D7200000E016E14C904F0000E056E09EC01F07C
:104D8200A30E0026080E0122250E0024E96E000E55
:104D92000120EA6EEE50010A2FE0330E006E000E83
:104DA200016E14C904F0000E056E09EC01F0A30EA9
:104DB2000026080E0122250E0024E96E000E0120B5
:104DC200EA6EEE50040A18E0330E006E000E016E19
:104DD20014C904F0000E056E09EC01F0A30E0026C2
:104DE200080E0122250E0024E96E000E0120EA6E53
:104DF200EE50060A01E05BD0330E006E000E016E2B
:104E020014C904F0000E056E09EC01F0A30E002691
:104E1200080E0122250E0024E16E000E0120E26E32
:104E2200E66A330E006E000E016E14C904F0000E25
:104E3200056E09EC01F0A30E0026080E0122220ED7
:104E42000024E16E000E0120E26EE66A330E006E6F
:104E5200000E016E14C904F0000E056E09EC01F09B
:104E6200A30E0026080E01222E0E0024E16E000E73
:104E72000120E26EE66AE66A040EA06F330E006E4F
:104E8200000E016E14C904F0000E056E09EC01F06B
:104E9200A30E0026080E0122230E0024E96E000E46
:104EA2000120EA6EEECFA1F96EEC03F025D2330EAB
:104EB200006E000E016E14C904F0000E056E09ECBE
:104EC20001F0A30E0026080E0122250E0024E96E31
:104ED200000E0120EA6EEE50000A01E10DD2330EFF
:104EE200006E000E016E14C904F0000E056E09EC8E
:104EF20001F0A30E0026080E01221F0E0024E96E07
:104F0200000E0120EA6EEE50000A01E1F5D1330EE7
:104F1200006E000E016E14C904F0000E056E09EC5D
:104F220001F0A30E0026080E01221F0E0024026EBD
:104F3200000E0120036E02C0E9FF03C0EAFFEE0487
:104F4200006E02C0E1FF03C0E2FF00C0E6FF330EC5
:104F5200006E000E016E14C904F0000E056E09EC1D
:104F620001F0A30E0026080E01221F0E0024E96E96
:104F7200000E0120EA6EEE50000AD8A4BDD1330E15
:104F8200006E000E016E14C904F0000E056E09ECED
:104F920001F0A30E0026080E01222A0E0024E96E5B
:104FA200000E0120EA6EEECF03F0EECF04F0280EE1
:104FB2000024D96E000E0120DA6EDECF01F0DECFC2
:104FC20002F00450021802E101500318D8B494D13F
:104FD200330E006E000E016E14C904F0000E056E51
:104FE20009EC01F0A30E0026080E0122260E002471
:104FF200E16E000E0120E26E280E0024E96E000E22
:105002000120EA6EEECFE6FFEECFE6FF330E006E32
:10501200000E016E14C904F0000E056E09EC01F0D9
:10502200A30E0026080E01222C0E0024E96E000EAB
:105032000120EA6EEECF03F0EECF04F0280E00243A
:10504200D96E000E0120DA6EDECF01F0DECF02F063
:105052000250045C02E10150035C25E2330E006E53
:10506200000E016E14C904F0000E056E09EC01F089
:10507200A30E0026080E01222A0E0024E96E000E5D
:105082000120EA6E000EEE24126F040EEE20136F62
:10509200280E0024D96E000E0120DA6EDE50125F57
:1050A200DE50135B20D0330E006E000E016E14C969
:1050B20004F0000E056E09EC01F0A30E0026080EA6
:1050C20001222A0E0024E96E000E0120EA6E280E4B
:1050D2000024D96E000E0120DA6EDE50EE5C126FF3
:1050E200DE50EE58136F330E006E000E016E14C9BF
:1050F20004F0000E056E09EC01F0A30E0026080E66
:105102000122100E0024D96E000E0120DA6EDECFCD
:1051120001F0DECF02F01351025C02E11251015C98
:1051220018E2330E006E000E016E14C904F0000E78
:10513200056E09EC01F0A30E0026080E0122100EE6
:105142000024E96E000E0120EA6EEECF12F9EECFD6
:1051520013F9330E006E000E016E14C904F0000E36
:10516200056E09EC01F0A30E0026080E01222E0E98
:105172000024E16E000E0120E26E12C9E6FF13C99F
:10518200E6FF330E006E000E016E14C904F0000E2D
:10519200056E09EC01F0A30E0026080E0122250E71
:1051A2000024E96E000E0120EA6EEE50070A46E185
:1051B200330E006E000E016E14C904F0000E056E6F
:1051C20009EC01F0A30E0026080E0122250E002490
:1051D200E16E000E0120E26EE66A330E006E000EF2
:1051E200016E14C904F0000E056E09EC01F0A30E65
:1051F2000026080E0122220E0024E16E000E01207C
:10520200E26EE66A330E006E000E016E14C904F0FF
:10521200000E056E09EC01F0A30E0026080E012215
:105222002E0E0024E16E000E0120E26EE66AE66AAE
:10523200040EA06F14C9A1F96EEC03F0330E006ED8
:10524200000E016E14C904F0000E056E09EC01F0A7
:10525200A30E0026080E0122250E0024E96E000E80
:105262000120EA6EEE50030A46E1330E006E000E94
:10527200016E14C904F0000E056E09EC01F0A30ED4
:105282000026080E0122250E0024E16E000E0120E8
:10529200E26E070EE66E330E006E000E016E14C94A
:1052A20004F0000E056E09EC01F0A30E0026080EB4
:1052B20001221F0E0024E16E000E0120E26E030E99
:1052C200E66E100EA06F330E006E000E016E14C952
:1052D20004F0000E056E09EC01F0A30E0026080E84
:1052E2000122230E0024E96E000E0120EA6EEECFA9
:0E52F200A1F96EEC03F000D0142BCCD4120006
:1053000009010D6B010E0D5D45E20DC980F9DAEC66
:1053100011F0330E006E000E016E0DC904F0000E88
:10532000056E09EC01F0A30E0026080E0122220EE4
:105330000024E16E000E0120E26EE66A330E006E7C
:10534000000E016E0DC904F0000E056E09EC01F0AF
:10535000A30E0026080E0122310E00240E6F000E4F
:1053600001200F6F0DC900F0000E016E000E046EDB
:10537000040E056E09EC01F0790E0026040E0122E0
:105380000EC9E1FF0FC9E2FF00C0E6FF01C0E6FF62
:065390000D2BB8D712003E
:105396000801EA6BEB6B936AFF0E816E880ED56E81
:1053A600630ED76EC00ED66EC00EF26EF28A120073
:1053B6000900F5CFE6FF0006FBE10106F9E1120060
:1053C60009010D6B1F0EB76F010EB86FECEC00F004
:1053D6001F0E0901B76F020EB86FCFEC00F0190E61
:1053E6000901B76F98EC00F00050000804E2EDECFC
:1053F60023F000C00DF91F0E0901B76F010EB86F3B
:10540600CFEC00F01F0E0901B76F020EB86FCFEC9C
:1054160000F04650201808E145501F1805E1445099
:105426001E1802E143501D1809E01DC043F01EC0BE
:1054360044F01FC045F020C046F028DC0DC900F03E
:02544600120052
:10544800929A898A9298898800EC11F0898A00ECEE
:1054580011F0899A00EC11F0898A00EC11F0899812
:105468001CC4E1FF1DC4E2FFFF0EE66E1AC400F083
:105478001BC401F02AEC00F0898800EC11F0230E1F
:10548800A06F040EA16F0DC9A2F90EC9A3F9060EEB
:10549800A46F000EA56FBFEC02F05F0EA06F040EA4
:1054A800A16F0FC9A2F910C9A3F9040EA46F000EC9
:1054B800A56FBFEC02F01F0EB76F010EB86FCFECEF
:1054C80000F01F0E0901B76F020EB86FCFEC00F0A5
:1054D800080E0901BA6FBB6BBC6B36EC00F00A0E04
:1054E8000901BA6FAD0EBB6F190EBC6F36EC00F038
:1054F8000C0E0901BA6FAD0EBB6F190EBC6F36ECFE
:1055080000F00901BA6BBB6BBC6B36EC00F0040E03
:105518000901BA6FAE0EBB6F190EBC6F36EC00F006
:105528001F0E0901B76F010EB86FCFEC00F01F0E08
:105538000901B76F020EB86FECEC00F011C912F94F
:065548001BEC23F0120031
:10554E00420E04011A6F000E1B6FBD0E1C6F090E6A
:10555E001D6FFF0E756FFF0E766FFF0E776FFF0ECE
:10556E00786F949A94969488C66A400EC76EC68ACF
:02557E00120019
:1055800030EC2DF008DF0C0E7E6E7B9E7A9E806ADA
:10559000FF0E926E0C0E7F6E836A956A786A816A3E
:1055A000FF0E936E836A956A786AAADED0DF290EB1
:1055B00009010D6F000E0E6F2F0E0F6F000E106F92
:1055C000010E116F41DF210E09018A6F000E8B6FF2
:1055D000250E8C6F000E8D6F330E8E6F000E8F6F49
:1055E000FFEC0DF0F0DE04015E6B010E5E5D28E263
:1055F000330E006E000E016E5EC404F0000E056EE8
:1056000009EC01F0A30E0026080E0122220E002450
:10561000E96E000E0120EA6EEE50000A0FE15EC452
:1056200000F0000E016E003600900136D60E002408
:10563000E16E080E0120E26EE66AE66A5E2BD5D7BF
:04564000D1D7FFD7E8
:105A600010EE16F0040E006E050E016E440EF66E7A
:0E5A7000560EF76E000EF86EDBEC29F01200F9
:06564400FFFFFFFFFFFF66
:01564A00005F
:04564B00000000005B
:04564F00FFFFFF005A
:04565300C0A80101E9
:065657000014A576193BCA
:04565D00C0A801DE02
:04566100C0A81401C8
:0856650000010800060400002A
:01566D00003C
:02566E0000003A
:015670000039
:045671000000000035
:015675000034
:10567600485454502F312E3120323030204F4B0AAF
:10568600436F6E6E656374696F6E3A20636C6F73F9
:10569600650A436F6E74656E742D747970653A2071
:1056A600746578742F68746D6C0A0A3C48544D4CC6
:1056B6003E3C484541443E3C6C696E6B2072656CCD
:1056C6003D2269636F6E2220747970653D22696D93
:1056D6006167652F706E672220687265663D226875
:1056E600747470733A2F2F706E672E69636F6E73C2
:1056F600382E636F6D2F696F732F35302F30303032
:105706003030302F66616365626F6F6B2E706E6727
:10571600223E3C5449544C453E504D4520436C6F07
:10572600636B3C2F5449544C453E3C2F48454144FD
:105736003E3C424F44593E3C7374796C653E626F01
:105746006479207B6261636B67726F756E642D632B
:105756006F6C6F723A20236464666663633B7D3CBC
:105766002F7374796C653E3C63656E7465723E3C5E
:1057760068323E504D4520436C6F636B3C2F683258
:105786003E3C68333E54696D65207C203C61206850
:105796007265663D2F323E534E54503C2F613E207B
:1057A6007C203C6120687265663D2F333E4E6574F1
:1057B600776F726B3C2F613E207C203C61206872C3
:1057C60065663D2F343E53797374656D3C2F613E9B
:1057D600207C203C6120687265663D2F61646D699E
:1057E6006E3E41444D494E3C2F613E3C2F68333E50
:1057F6003C7461626C6520626F726465723D312033
:105806007374796C653D22666F6E742D73697A6563
:105816003A32307078203B666F6E742D66616D6922
:105826006C793A207465726D696E616C203B22203A
:1058360077696474683D3530303E3C74723E3C7422
:10584600643E4461746520616E642054696D653CF4
:105856002F74643E3C746420616C69676E3D7269A6
:105866006768743E3C7363726970743E646F6375F7
:105876006D656E742E7772697465282243616F2296
:10588600293C2F7363726970743E3C2F74643E3CEE
:105896002F74723E3C74723E3C74643E556E697859
:1058A6002045706F63683C2F74643E3C74642061CD
:1058B6006C69676E3D72696768743E3C73637269B2
:1058C60070743E646F63756D656E742E777269745D
:1058D60065282245504F434822293C2F736372693D
:1058E60070743E3C2F74643E3C2F74723E3C74725E
:1058F6003E3C74643E4A756C69616E204461793C35
:105906002F74643E3C746420616C69676E3D7269F5
:105916006768743E3C7363726970743E646F637546
:105926006D656E742E7772697465282245504F43F3
:1059360048202F203234202F2033363030202B20A1
:10594600323434303538372E3522293C2F73637282
:105956006970743E3C2F74643E3C2F74723E3C74F6
:10596600723E3C74643E4C6173742073796E633C82
:105976002F74643E3C746420616C69676E3D726985
:105986006768743E3C7363726970743E646F6375D6
:105996006D656E742E777269746528224C41535476
:1059A60022293C2F7363726970743E3C2F74643EE7
:1059B6003C2F74723E3C48544D4C3E3C4845414455
:1059C6003E3C2F7461626C653E3C62723E506F676E
:1059D6006C6564616A74652063656F2070726F69B7
:1059E6007A766F646E692070726F6772616D206E71
:1059F60061203C6120687265663D687474703A2F58
