:0400000050EF2DF0A0
:1000080000C015F0F2A416D00001884B892B000E11
:10001800895D02E1C80E885D08E3886B896B010E73
:100028003526000E362237223822630ED76EC00ED0
:0A003800D66EF29415C000F011001E
:1000420045C4C9FFC7B002D00000FCD7C9CF00F039
:0200520012009A
:10005400F250026EF29E0500FF6A0150FE6E0050DF
:08006400FD6E02BEF28E1200D7
:10006C008998400E04014211006EC6C0E1FFC7C062
:10007C00E2FF00C0E6FFC4C000F0C5C001F0E4DF41
:10008C00C6C0E1FFC7C0E2FF43C4E6FFC4C000F036
:10009C00C5C001F0D9DFC6C0E1FFC7C0E2FF44C450
:1000AC00E6FFC4C000F0C5C001F0CEDF89881200A5
:1000BC008998C6C0E1FFC7C0E2FF7A0EE66EC4C0E5
:1000CC0000F0C5C001F0C0DFC6C0E1FFC7C0E2FF51
:1000DC003FC4E6FFC4C000F0C5C001F0B5DF89889D
:0200EC00120000
:1000EE00020E0401426F3FC443F440C444F4B7DF30
:1000FE008998C6C0E1FFC7C0E2FF7A0EE66EC4C0A3
:10010E0000F0C5C001F09FDFC6C0E1FFC7C0E2FF2F
:10011E0041C4E6FFC4C000F0C5C001F094DF898879
:02012E001200BD
:100130008998C6C0E1FFC7C0E2FF3FC4E6FFC4C064
:1001400000F0C5C001F086DFC6C0E1FFC7C0E2FF16
:10015000E66AC4C000F0C5C001F07CDF89881200E7
:100160000401426B3FC443F440C444F47FDF8998E8
:10017000C6C0E1FFC7C0E2FF3A0EE66EC4C000F0A1
:10018000C5C001F067DFC6C0E1FFC7C0E2FFE66A95
:0E019000C4C000F0C5C001F05DDF8988120018
:10019E008998A00E04013F11006EC6C0E1FFC7C0D2
:1001AE00E2FF00C0E6FFC4C000F0C5C001F04BDFA7
:1001BE00C6C0E1FFC7C0E2FF40C4E6FFC4C000F006
:0A01CE00C5C001F040DF898812006F
:1001D8008998800E04013F11006EC6C0E1FFC7C0B8
:1001E800E2FF00C0E6FFC4C000F0C5C001F02EDF8A
:1001F800C6C0E1FFC7C0E2FF40C4E6FFC4C000F0CC
:0A020800C5C001F023DF8988120051
:100212000B6A0A6A096A00500402F4CF09F0F3CFAC
:1002220008F001500502F4CF0BF0F3CF0AF00050B2
:100232000502F3500926F4500A22E86A0B22015003
:100242000402F3500926F4500A22E86A0B2208C07D
:1002520000F009C001F00AC002F00BC003F0120066
:100262008998C6C0E1FFC7C0E2FF7A0EE66EC4C03D
:1002720000F0C5C001F0EDDE3AC400F03BC401F06D
:10028200010E04013A5F000E3B5B0050011013E0C7
:10029200C6C0E1FFC7C0E2FF38C4E9FF39C4EAFFC4
:1002A200EECFE6FFC4C000F0C5C001F0D2DE04010B
:0A02B200384B392BE1D78988120080
:1002BC0004013A5138253C6F3B5139213D6F010EF9
:1002CC003C5F000E3D5B100E426F38C443F439C4E2
:1002DC0044F4C6DE120E0401426F3CC443F43DC428
:1002EC0044F4BEDE1F0E04013F6F300E406F6EDF14
:1002FC001F0E04013F6F16DF00AA01D0F9D71200C0
:10030C00AE0E04013F6F190E406F416BEADEAE0E6C
:10031C0004013825006E190E3921016E00C038F425
:10032C0001C039F4060E426F00C043F401C044F41E
:10033C0097DE1F0E04013F6F800E406F47DF1F0ECC
:10034C0004013F6F800E406F24DF00018A51050AC3
:10035C0004E08A51070A01E006D01C0E04013F6F2D
:10036C000A0E406F16DF1F0E04013F6F080E406F20
:10037C002DDF00018A51050A04E08A51070A01E0C9
:10038C0080D004013D6B3E6B1C0E3F6FCBDE0A0E22
:10039C00001600520AE104013D4B3E2B030E3E5D5C
:1003AC0002E1E80E3D5D01E2EFD704011C0E3F6F48
:1003BC00B9DE00B208D0030E04013E5D02E1E80E86
:1003CC003D5D01E25DD004011F0E3F6F080E406FD2
:1003DC00E0DE040E040138253F6F000E3921406F1A
:1003EC00B9DE00C03CF404013A6B100E3A5D48E2F1
:1003FC001C0E3F6F97DE00A23FD004013CAB3CD0FB
:10040C001F0E3F6F800E406FE1DE1F0E04013F6F29
:10041C00800E406FBEDE1C0E04013F6F0A0E406F53
:10042C00B8DE1F0E04013F6F080E406FCFDE0401D3
:10043C003D6B3E6B1C0E3F6F75DE0A0E00160052B4
:10044C000AE104013D4B3E2B030E3E5D02E1E80E3A
:10045C003D5D01E2EFD704011F0E3F6F080E406FA8
:10046C0098DE040E040138253F6F000E3921406FD1
:10047C0071DE00C03CF401D003D004013A2BB5D797
:10048C0007D004011F0E3F6F4DDE00A601D0F9D737
:10049C001D0E04013F6F46DE060E0016005203E0EF
:1004AC0004013B6B03D00401010E3B6F3BC400F015
:0204BC0012002C
:1004BE0038C43FF439C440F43AC441F411DE3BC4AD
:0604CE003FF4F5DD120011
:1004D400020E04012815016E0150000A05E01C0EED
:1004E4002C6F000E2D6F04D0140E2C6F000E2D6F88
:1004F400500E346F356B330E006E000E016E29C43E
:1005040004F0000E056E83DE520E0026030E012257
:100514002E0E0024E96E000E0120EA6EEECF01F0EB
:10052400EECF02F0000E006E0250005C02E10150BA
:10053400000802E2080E356F010E2815016E015005
:10054400000AD8A43581100E2815016E0150000A46
:10055400D8A43589020E2815016E0150000A03E063
:10056400700E346F3583040E2815016E0150000A95
:10057400D8A43585AF0E3F6F190E406F330E006E51
:10058400000E016E29C404F0000E056E40DE520E0A
:100594000026030E0122040E0024E96E000E012041
:1005A400EA6EEECF41F4A1DD330E006E000E016E53
:1005B40029C404F0000E056E2ADE520E0024040144
:1005C400386F030E0120396F040E3827000E3923CB
:1005D400384B392B050E3A6F000E3B6F40DEBA0ED6
:1005E400386F000E396F060E3A6F000E3B6F37DE20
:1005F400080E3F6F61DD04013F6B5EDD450E0401B3
:100604003F6F5ADD04013F6B57DD330E006E000E61
:10061400016E29C404F0000E056EF9DD520E0026A9
:10062400030E01222E0E0024D96E000E0120DA6E74
:10063400DE5004012C252E6FDE502D212F6F140E59
:100644002E27000E2F232FC43FF436DD2EC43FF493
:1006540033DD330E006E000E016E29C404F0000E6B
:10066400056ED5DD520E0026030E0122200E002653
:10067400000E0122010E0024E96E000E0120EA6E34
:10068400EECF3FF419DD330E006E000E016E29C467
:1006940004F0000E056EBBDD520E0026030E01228F
:1006A400200E00240401366F000E0120376F36C47B
:1006B400E9FF37C4EAFFEECF3FF4FEDC36C4E9FFBE
:1006C40037C4EAFF010EEE24006E000EEE20016E28
:1006D40036C4E1FF37C4E2FF00C0E6FF01C0E6FF15
:1006E400400E04013F6FE8DC04013F6BE5DC800E43
:1006F40004013F6FE1DC060E04013F6FDDDC040101
:100704003F6BDADC04013F6BD7DCC00E0401386FA9
:10071400000E396F040E3A6F000E3B6FA0DD330EEE
:10072400006E000E016E29C404F0000E056E6FDD2C
:10073400520E0024386F030E0120396F040E3A6FF5
:10074400000E3B6F8CDDBD0E386F190E396F140E21
:100754003A6F000E3B6FB0DD160E04013F6FE6DC0E
:1007640000C036F4170E04013F6FE0DC00C03AF419
:10077400C70E0401386F190E396F36C43BF49DDE81
:10078400D10E04013F6F190E406F330E006E000E40
:10079400016E29C404F0000E056E39DD520E0026E8
:1007A400030E01220C0E0026000E0122010E00246D
:1007B400E96E000E0120EA6EEECF41F496DC330EB2
:1007C400006E000E016E29C404F0000E056E1FDDDC
:1007D400520E0026030E01220C0E0024E96E000EB8
:1007E4000120EA6EEECF3FF467DC330E006E000E9C
:1007F400016E29C404F0000E056E09DD520E0026B8
:10080400030E01220A0E0026000E0122010E00240E
:10081400E96E000E0120EA6EEECF3FF44DDC330E9C
:10082400006E000E016E29C404F0000E056EEFDCAC
:10083400520E0026030E01220A0E0024E96E000E59
:100844000120EA6EEECF3FF437DC330E006E000E6B
:10085400016E29C404F0000E056ED9DC520E002688
:10086400030E0122160E0026000E0122030E0024A0
:10087400E96E000E0120EA6EEECF3FF41DDC330E6C
:10088400006E000E016E29C404F0000E056EBFDC7C
:10089400520E0026030E0122160E0026000E01221F
:1008A400020E0024E96E000E0120EA6EEECF3FF442
:1008B40003DC330E006E000E016E29C404F0000E3A
:1008C400056EA5DC520E0026030E0122160E00262C
:1008D400000E0122010E0024E96E000E0120EA6ED2
:1008E400EECF3FF45EEC00F0330E006E000E016EAE
:1008F40029C404F0000E056E8ADC520E0026030E95
:100904000122160E0024E96E000E0120EA6EEECFDD
:100914003FF45EEC00F0330E006E000E016E29C44D
:1009240004F0000E056E73DC520E0026030E012245
:100934001A0E0026000E0122030E0024E96E000E9A
:100944000120EA6EEECF3FF45EEC00F0330E006E51
:10095400000E016E29C404F0000E056E58DC520E20
:100964000026030E01221A0E0026000E0122020E9A
:100974000024E96E000E0120EA6EEECF3FF45EEC37
:1009840000F0330E006E000E016E29C404F0000E58
:10099400056E3DDC520E0026030E01221A0E0026BF
:1009A400000E0122010E0024E96E000E0120EA6E01
:1009B400EECF3FF45EEC00F0330E006E000E016EDD
:1009C40029C404F0000E056E22DC520E0026030E2C
:1009D40001221A0E0024E96E000E0120EA6EEECF09
:1009E4003FF45EEC00F034C43FF45EEC00F035C438
:1009F4003FF45EEC00F0330E006E000E016E29C46D
:100A040004F0000E056E03DC520E0026030E0122D4
:100A1400120E0026000E0122010E0024E96E000EC3
:100A24000120EA6EEECF3FF45EEC00F0330E006E70
:100A3400000E016E29C404F0000E056E09EC01F0ED
:100A4400520E0026030E0122120E0024E96E000E3F
:100A54000120EA6EEECF3FF45EEC00F004013F6B40
:100A64005EEC00F004013F6B5EEC00F004013F6BB0
:100A74005EEC00F004013F6B5EEC00F0020E04013A
:100A84002815016E0150000A51E0020E3F6F5EEC22
:100A940000F0040E04013F6F5EEC00F0330E006EB4
:100AA400000E016E29C404F0000E056E09EC01F07D
:100AB400520E0026030E0122140E0026000E0122FF
:100AC400010E0024E96E000E0120EA6EEECF3FF421
:100AD4005EEC00F0330E006E000E016E29C404F0CB
:100AE400000E056E09EC01F0520E0026030E0122E1
:100AF400140E0024E96E000E0120EA6EEECF3FF4DE
:100B04005EEC00F0010E04013F6F5EEC00F0010E9C
:100B140004013F6F5EEC00F0040E04013F6F5EECD5
:100B240000F0020E04013F6F5EEC00F0330E006E25
:100B3400000E016E29C404F0000E056E09EC01F0EC
:100B4400520E0026030E01222E0E0024E96E000E22
:100B54000120EA6EEECF01F0EECF02F0000E006E3F
:100B64000250005C02E10150000861E20401326BB2
:100B7400336B330E006E000E016E29C404F0000EB8
:100B8400056E09EC01F0520E0026030E01222E0E12
:100B94000024D96E000E0120DA6EDECF01F0DECF24
:100BA40002F00250335D02E10150325D40E2330E47
:100BB400006E000E016E29C404F0000E056E09ECEF
:100BC40001F0520E0024046E030E0120056E260E61
:100BD4000424E96E000E0520EA6E3251EE24026E02
:100BE4003351EE20036E000E006E020E016E010EF4
:100BF400005E000E015A0050021601500316310E19
:100C04000424E96E000E0520EA6EEECF00F0EECF6C
:100C140001F002500024E96E03500120EA6EEECF89
:100C24003FF45EEC00F00401324B332BA2D70401F5
:100C3400D10E2C25366F190E2D21376F330E006E11
:100C4400000E016E29C404F0000E056E09EC01F0DB
:100C5400520E0026030E01222E0E0024026E000EF8
:100C64000120036E02C0D9FF03C0DAFFDE5036252F
:100C7400006EDE503721016E00C02AF401C02BF44F
:100C840002C0E9FF03C0EAFF010EEE14306FEECF9D
:100C940031F4000E311700C03FF401C040F4416B41
:100CA40077EC00F0040130512A25386F31512B21A3
:100CB400396FC0C03AF4C1C03BF45FEC02F00401E8
:100CC40030512A25386F31512B21396F020E3827C4
:100CD400000E3923C2C03AF4C3C03BF45FEC02F007
:100CE400040130512A25386F31512B21396F040EFC
:100CF4003827000E3923330E006E000E016E29C40E
:100D040004F0000E056E09EC01F0520E0026030EED
:100D1400012200C0E9FF01C0EAFFEECF3AF4010E60
:100D24000024E96E000E0120EA6EEECF3BF45FEC86
:100D340002F0040130512A25386F31512B21396FCB
:100D4400060E3827000E3923330E006E000E016E96
:100D540029C404F0000E056E09EC01F0520E0026C1
:100D6400030E0122020E0024E96E000E0120EA6E39
:100D7400EECF3AF4030E0024E96E000E0120EA6E71
:100D8400EECF3BF45FEC02F0080E04012A25386F25
:100D9400000E2B21396F30513827315139233A6BEA
:100DA400060E3B6F5FEC02F00A0E04012A25386F31
:100DB400000E2B21396F3051382731513923330E2E
:100DC400006E000E016E29C404F0000E056E09ECDD
:100DD40001F0520E0026030E01222E0E0024E96EAD
:100DE400000E0120EA6EEECF05F0EECF06F00550BE
:100DF4002C25036E06502D21046E04C000F0016AF8
:100E040000C03AF405502C253B6F5FEC02F0D10E84
:100E14000401386F190E396F330E006E000E016E27
:100E240029C404F0000E056E09EC01F0520E0026F0
:100E3400030E01222E0E0024D96E000E0120DA6E5C
:100E4400DE502C253A6FDE502D213B6F0C0E3A27D5
:100E5400000E3B2330513A2731513B235EEC01F025
:100E6400160E04013F6F98EC00F000C036F4170E24
:100E740004013F6F98EC00F000C03AF4E10E040165
:100E8400386F190E396F36C43BF45FEC02F0220E52
:100E940004012C25386F000E2D21396F330E006E9E
:100EA400000E016E29C404F0000E056E09EC01F079
:100EB400520E0026030E01222E0E0024D96E000EBF
:100EC4000120DA6EDE503827DE50392386EC01F03B
:020ED40012000A
:100ED6008998C6C0E1FFC7C0E2FF7A0EE66EC4C0BD
:100EE60000F0C5C001F02AEC00F0C6C0E1FFC7C0A3
:100EF600E2FF1BC4E6FFC4C000F0C5C001F02AEC47
:100F060000F0C6C0E1FFC7C0E2FF1AC4E6FFC4C0D6
:0E0F160000F0C5C001F02AEC00F0898812003E
:100F24001CC404F01DC405F01AC402F01BC403F071
:100F34001EC400F01FC401F0010E04011E5F000E68
:100F44001F5B005001100FE004C0E9FF05C0EAFF79
:100F540002C0E1FF03C0E2FFEECFE6FF024A032A2C
:100F6400044A052AE5D71AC400F01BC401F0120094
:100F74000401276B010E1C5F000E1D5B20530DE066
:100F84001D51190802E11C51AD0807E2272BAD0ED3
:100F94001C5D256F190E1D59266F275305E0AD0EF4
:100FA400216F190E226F04D01CC421F41DC422F435
:100FB4001B51221902E121511A190FE11AC43FF4FD
:100FC4001BC440F4B0EC00F000C041F41EC43FF474
:100FD4001FC440F477EC00F03CD0100E0401426FC3
:100FE4001AC443F41BC444F436EC00F0120E04019A
:100FF400426F275305E0AD0E236F190E246F04D002
:101004001CC423F41DC424F423C443F424C444F4AE
:1010140036EC00F0140E0401426F1EC443F41FC4E6
:1010240044F436EC00F01F0E04013F6F100E406FC5
:10103400CFEC00F01F0E04013F6F200E406FECEC6C
:1010440000F01F0E04013F6F98EC00F000AA01D0DD
:10105400F8D7040127531AE01A511C5D006E1B5186
:101064001D59016E2551005E2651015A004A012A7C
:1010740000501E2701501F23010E255D1C6F000E1A
:0E10840026591D6F1A6B1B6B276B87D7120046
:1010920004011B51020AD8B497D0330E006E000E21
:1010A200016E1CC404F0000E056E09EC01F0520E34
:1010B2000024066E030E0120076E2C0E0624E96E34
:1010C200000E0720EA6E010EEE24026E000EEE20E4
:1010D200036E000E006E020E016E010E005E000E27
:1010E200015A00500214046E03500114056E04C02C
:1010F2001DF405C01EF4280E0624D96E000E07202A
:10110200DA6EDECF01F0DECF02F00550021802E106
:101112000150041819E1330E006E000E016E1CC45A
:1011220004F0000E056E09EC01F0520E0026030ECB
:101132000122300E0024E16E000E0120E26E010E4B
:10114200E66E020E006EACD1330E006E000E016E22
:101152001CC404F0000E056E09EC01F0520E0024CE
:10116200026E030E0120036E310E0224006E000E89
:101172000320016E2C0E0224D96E000E0320DA6EBB
:1011820000C0E9FF01C0EAFFDE50EE24E16EDE504E
:10119200EE20E26E1AC4E6FF330E006E000E016E00
:1011A2001CC404F0000E056E09EC01F0520E00267C
:1011B200030E01222C0E0024E16E000E0120E26ECD
:1011C2001DC4E6FF1EC4E6FF1B510008D8B066D15D
:1011D200330E006E000E016E1CC404F0000E056E8C
:1011E20009EC01F0520E0026030E01222C0E0024FF
:1011F200E96E000E0120EA6EEECF03F0EECF04F0AE
:101202002A0E0024D96E000E0120DA6EDECF01F024
:10121200DECF02F00250045C02E10150035C25E2E1
:10122200330E006E000E016E1CC404F0000E056E3B
:1012320009EC01F0520E0026030E01222C0E0024AE
:10124200E96E000E0120EA6E000EEE241D6F020E02
:10125200EE201E6F2A0E0024D96E000E0120DA6ED7
:10126200DE501D5FDE501E5B20D0330E006E000E7E
:10127200016E1CC404F0000E056E09EC01F0520E62
:101282000026030E01222C0E0024E96E000E01201E
:10129200EA6E2A0E0024D96E000E0120DA6EDE50AC
:1012A200EE5C1D6FDE50EE581E6F330E006E000EA8
:1012B200016E1CC404F0000E056E09EC01F0520E22
:1012C2000026030E0122100E0024D96E000E01200A
:1012D200DA6EDECF01F0DECF02F01E51025C02E1D7
:1012E2001D51015C18E2330E006E000E016E1CC42B
:1012F20004F0000E056E09EC01F0520E0026030EFA
:101302000122100E0024E96E000E0120EA6EEECFDB
:101312001DF4EECF1EF4330E006E000E016E1CC4DF
:1013220004F0000E056E09EC01F0520E0026030EC9
:1013320001222E0E0024E16E000E0120E26E1DC479
:10134200E6FF1EC4E6FF330E006E000E016E1CC4E3
:1013520004F0000E056E09EC01F0520E0026030E99
:101362000122260E0024E16E000E0120E26E2A0EFA
:101372000024E96E000E0120EA6EEECFE6FFEECF0A
:10138200E6FF330E006E000E016E1CC404F0000E68
:10139200056E09EC01F0520E0026030E01222A0E00
:1013A2000024046E000E0120056E04C0E9FF05C092
:1013B200EAFF1D51EE24026E1E51EE20036E000E56
:1013C200006E020E016E010E005E000E015A025006
:1013D20000160350011604C0E1FF05C0E2FF00C081
:1013E200E6FF01C0E6FF330E006E000E016E1CC464
:1013F20004F0000E056E09EC01F0520E0026030EF9
:1014020001222A0E0024E96E000E0120EA6EEECFC0
:1014120003F0EECF04F02C0E0024D96E000E012052
:10142200DA6EDECF01F0DECF02F00450021802E1E4
:101432000150031816E0330E006E000E016E1CC43C
:1014420004F0000E056E09EC01F0520E0026030EA8
:101452000122300E0024E16E000E0120E26E010E28
:10146200E66E330E006E000E016E1CC404F0000E18
:10147200056E09EC01F0520E0026030E01221F0E2A
:101482000024E16E000E0120E26E030EE66E100EE5
:10149200286F1CC429F46AEC02F002D0030E006E1D
:0214A200120036
:1014A400020E0401426F1AC443F41BC444F436EC24
:1014B40000F08998C6C0E1FFC7C0E2FF7A0EE66E6D
:1014C400C4C000F0C5C001F02AEC00F004011E51B4
:1014D4001F1118E0C6C0E1FFC7C0E2FF1CC4E9FF4A
:1014E4001DC4EAFFEECFE6FFC4C000F0C5C001F0A2
:1014F4002AEC00F004011C4B1D2B010E1E5F000E94
:081504001F5BE4D78988120087
:10150C000CC41AF40DC41BF4C00E04011C6F000EA5
:10151C001D6F040E1E6F000E1F6FFEDC0E6B0E5146
:10152C00030821E30E510C25026E000E0D21036EF3
:10153C0002C0E9FF03C0EAFFEECF01F0F20EE96E44
:10154C00000EEA6E0E51E926D8B0EA2AFF0EEE180C
:10155C00006E0150001202C0E1FF03C0E2FF00C0A8
:08156C00E6FF0E2BDCD7120094
:10157400086A096A100E0C6E0134083609360450E4
:10158400085E0550D8A0053C095ED8B007D00450C9
:1015940008260550D8B0053C0926D89000360136F7
:0615A4000C2EEAD7120034
:1015AA00086A080E0C6E003408360450085ED8B07B
:0E15BA0002D00826D89000360C2EF5D712006D
:1015C80010C401F011C402F0010E0401105F000EF6
:1015D800115B000E021802E1000E01181FE00CC496
:1015E800E9FF0DC4EAFF0EC4D9FF0FC4DAFFEE50BD
:1015F800DE180FE00CC4E9FF0DC4EAFF0EC4D9FFE2
:101608000FC4DAFFDE50EE5C006E016A000E015A6C
:1016180007D00C4B0D2B0E4B0F2BD2D7006A016A4B
:021628001200AE
:10162A00AF0E04011A6F190E1B6F0CC41CF40DC403
:10163A001DF4060E1E6F000E1F6F2FDFBA0E386FD5
:10164A00000E396F060E3A6F000E3B6F31EC01F057
:10165A00000E1A6F080E1B6F39DC1C0E04011425CC
:10166A00176F000E1521186F000E1A6F450E1B6FAB
:10167A002DDC17C41AF418C41BF428DCFAC01AF4B7
:10168A00FBC01BF423DC0001FA4BFB2B04011A6B91
:10169A001B6B1CDC110E04011A6F800E1B6F16DC0B
:1016AA0004011A6B1B6B12DCC00E0401386F000EAA
:1016BA00396F040E3A6F000E3B6F31EC01F00EC425
:1016CA0038F40FC439F4040E3A6F000E3B6F31EC54
:1016DA0001F0080E1425176F000E1521186F10C49B
:1016EA001AF411C41BF46BEC07F012C41AF413C4F5
:1016FA001BF46BEC07F017C41AF418C41BF46BEC58
:10170A0007F004011A6B1B6B6BEC07F0BD0E0401AA
:10171A00386F190E396F140E3A6F000E3B6F5EEC7C
:10172A0001F0160E04013F6F98EC00F000C019F4A6
:10173A00170E04013F6F98EC00F000C03AF4C70E90
:10174A000401386F190E396F19C43BF45FEC02F0CB
:10175A00010E04011715166FD90E14253F6F190EC5
:10176A001521406F416B77EC00F0C90E04011A6F26
:10177A00190E1B6FD10E1C6F190E1D6FD90E142571
:10178A001E6F190E15211F6F16511E27000E1F23DB
:10179A00206BBAEC07F0D90E1425386F190E1521F3
:1017AA00396F16513827000E3923080E3827000ED4
:1017BA0039233A6B110E3B6F5FEC02F018C43FF409
:1017CA005EEC00F017C43FF45EEC00F0D10E0401A9
:1017DA00386F190E396F0C0E17253A6F000E182143
:1017EA003B6F16513A27000E3B235EEC01F0160EB2
:1017FA0004013F6F98EC00F000C019F4170E0401C1
:10180A003F6F98EC00F000C03AF4D70E0401386F2D
:10181A00190E396F19C43BF45FEC02F02A0E040169
:10182A001425386F000E1521396F86EC01F0000E71
:04183A00016E120029
:10183E008998C6C0E1FFC7C0E2FF7A0EE66EC4C04B
:10184E0000F0C5C001F02AEC00F00FC400F010C487
:10185E0001F0010E04010F5F000E105B005001102D
:10186E001CE0C6C0E1FFC7C0E2FF0CC4F6FF0DC40A
:10187E00F7FF0EC4F8FF0900F5CF00F000C0E6FF39
:10188E00C4C000F0C5C001F02AEC00F0010E040146
:0E189E000C27000E0D230E23D8D789881200C8
:1018AC0004010F51FF0A02E1FF0E0E1907E0426B13
:1018BC000EC443F40FC444F436EC00F08998C6C04F
:1018CC00E1FFC7C0E2FF3A0EE66EC4C000F0C5C02F
:1018DC0001F02AEC00F010C400F011C401F0010E6C
:1018EC000401105F000E115B0050011015E0C6C022
:1018FC00E1FFC7C0E2FFE66AC4C000F0C5C001F05A
:10190C002AEC00F00CC4E1FF0DC4E2FF00C0E6FFBE
:0C191C0004010C4B0D2BDFD78988120052
:101928008998C6C0E1FFC7C0E2FF3A0EE66EC4C0A0
:1019380000F0C5C001F02AEC00F0C6C0E1FFC7C046
:10194800E2FFE66AC4C000F0C5C001F02AEC00F06E
:041958008988120068
:10195C000CC41AF404011B6B230E0D25E96E000E4A
:10196C000E21EA6EEECF1CF449EC08F0020E005E7C
:02197C00120057
:10197E000CC402F00DC403F002C000F003C001F06D
:10198E00024A032A00C0E9FF01C0EAFFEE5201E05D
:10199E00F3D704010C51025C006E0D510358016E19
:0A19AE00010E005E000E015A120047
:1019B800F20E04011A6F000E1B6F05C41CF406C456
:1019C8001DF4040E1E6F000E1F6F92EC07F0F60E4A
:1019D8001A6F000E1B6F07C41CF408C41DF4040E14
:1019E8001E6F000E1F6F92EC07F0EE0E1A6F000EBE
:1019F8001B6F09C41CF40AC41DF4040E1E6F000EEC
:101A08001F6F92EC07F0820E0C6F000E0D6F7ADDDF
:021A18001200BA
:101A1A00060E0C6E2B0E0D6E0D2EFED70C2EFCD75D
:021A2A001200A8
:101A2C0009C401F00AC402F0010E0401095F000EA2
:101A3C000A5B000E021802E1000E01181FE005C43B
:101A4C00E9FF06C4EAFF07C4D9FF08C4DAFFEE5069
:101A5C00DE180FE005C4E9FF06C4EAFF07C4D9FF8E
:101A6C0008C4DAFFDE50EE5C006E016A000E015A0B
:101A7C0007D0054B062B074B082BD2D7006A016AFF
:021A8C00120046
:101A8E000401006B050E005D0AE200510725E16EB0
:101A9E00000E0821E26E200EE66E002BF3D70051E9
:101AAE000725E16E000E0821E26EE66A000700517E
:101ABE000725096F000E08210A6F0A0E046E000E2C
:101ACE00056E05C400F006C401F04DDD08C000F03F
:101ADE0009C001F0300E002609C4E1FF0AC4E2FF7E
:101AEE0000C0E6FF0A0E046E000E056E05C400F07F
:101AFE0006C401F038DD00C005F401C006F4000E86
:101B0E00011802E1000E001801E102D00007CFD744
:021B1E001200B3
:101B20000401006B030E005D0AE200510625E16E20
:101B3000000E0721E26E200EE66E002BF3D7005157
:101B40000625E16E000E0721E26EE66A00070051ED
:101B50000625086F000E0721096F0A0E046E05C4E2
:101B600000F023DD08C000F0300E002608C4E1FFBD
:101B700009C4E2FF00C0E6FF0A0E046E05C400F0CF
:101B800014DD00C005F40050000A01E102D0000796
:041B9000DED712008A
:101B9400280E04010525E96E000E0621EA6EEECF3B
:101BA40003F0EECF04F02C0E0525D96E000E0621AD
:101BB400DA6EDECF01F0DECF02F00450021802E14B
:101BC4000150031803E1010E006E01D0006A1200F7
:101BD4000401066B3C0E0301056F000E066F076FD0
:101BE400086FA0DE00C000F40050020AD8A419D186
:101BF4000401056B0F0E055D04E294DE0401052B60
:101C0400F9D7270E0C6F030E0D6FFF0E0E6FFF0E2C
:101C14000F6F040E106F000E116F46DE056B080E79
:101C2400055D04E27FDE0401052BF9D7056B060E82
:101C3400055D12E277DE00C000F4BA0ED96E000E24
:101C4400DA6E04010551D926D8B0DA2A0050DE181C
:101C540001E013D1052BEBD7056BCE0E055D04E235
:101C640061DE0401052BF9D7076B5CDE00C000F4CC
:101C7400B9D058DE00C000F40050010A04E152DE7D
:101C840000C006F401D0F9D0C8D04CDE00C000F486
:101C94000050040A0FE12B0E04010C6F030E0D6FAC
:101CA400FF0E0E6FFF0E0F6F040E106F000E116FFC
:101CB400FBDD01D0E2D0B1D035DE00C000F4040E6B
:101CC400005C0FE3230E04010C6F030E0D6FFF0E77
:101CD4000E6FFF0E0F6F040E106F000E116FE4DD18
:101CE40001D0CBD00401040E005F040100C400F055
:101CF4000007005202E016DEF8D78FD013DE00C0D2
:101D040000F4040E005C0FE31B0E04010C6F030EC1
:101D14000D6FFF0E0E6FFF0E0F6F040E106F000E8F
:101D2400116FC2DD01D0A9D00401040E005F0401CB
:101D340000C400F00007005202E0F4DDF8D76DD0D3
:101D4400F1DD00C000F40050040A0FE1080E0401A4
:101D54000C6F040E0D6FFF0E0E6FFF0E0F6F040E4F
:101D6400106F000E116FA0DD01D087D056D0040192
:101D7400010E076F52D0D6DD00C000F40050040AF3
:101D840023E1050E04010C6F030E0D6FFF0E0E6FA1
:101D9400FF0E0F6F040E106F000E116F85DD03012F
:101DA4000851000808E10751000805E10651070839
:101DB40002E10551080807E2080E055F070E065BFD
:101DC400000E075B085B01D058D027D0ABDD00C004
:101DD40000F400C400F004010007005202E0A2DD98
:101DE400F8D71BD004010051350AD8B442D70051AA
:101DF400010AD8B44AD70051030AD8B45DD70051B8
:101E0400060AD8B47BD70051360A9AE00051FF0A7B
:101E1400AEE00051330AAFE0D9D704010753D8B478
:101E240024D704010651020A0FE11F0E1A6F030E94
:101E34001B6F080E1C6F040E1D6F040E1E6F000E28
:101E44001F6F92EC07F016D01F0E0C6F030E0D6F70
:101E5400080E0E6F040E0F6F040E106F000E116F3C
:101E6400E4EC0AF0000E011802E1000E001802E092
:0E1E74000401066B06C400F001D0006A1200E3
:101E820005C402F006C403F008C400F009C401F05E
:101E9200010E0401085F000E095B0050011009E009
:101EA20002C0E1FF03C0E2FF07C4E6FF024A032AC1
:0C1EB200EBD705C400F006C401F01200DC
:101EBE00250E04010525E16E000E0621E26E050ECB
:101ECE00E66E1E0E0525E16E000E0621E26E030E75
:101EDE00E66E280E0525E16E000E0621E26EE66A1C
:101EEE00E66A2A0E0525E16E000E0621E26EE66A0E
:101EFE00E66A2C0E0525E16E000E0621E26EE66AFC
:101F0E00E66A110E286F230E0525E96E000E0621D6
:0C1F1E00EA6EEECF29F46AEC02F012002B
:101F2A00F90E0401076F000E086F020E426FD90EF8
:101F3A00436F190E446F36EC00F0E40E04010C6F87
:101F4A006E0E0D6F000E0E6F0C0E0F6F000E106FDF
:101F5A0071DC0551030A0DE106530BE0270E386FB9
:101F6A00030E396F040E3A6F000E3B6F31EC01F02D
:101F7A000AD0006B040E005D06E23F6B5EEC00F0D7
:101F8A000401002BF7D7006B0C0E005D06E23F6BD5
:101F9A005EEC00F00401002BF7D7BA0E386F000E82
:101FAA00396F060E3A6F000E3B6F31EC01F0006B91
:101FBA00CA0E005D06E23F6B5EEC00F00401002BE6
:101FCA00F7D7F00E0C6F6E0E0D6F000E0E6F060E29
:101FDA000F6F000E106F2EDC05C43FF45EEC00F0AC
:101FEA0004010551030A1AE1065318E1360E3F6F40
:101FFA005EEC00F0040E04013F6F5EEC00F01F0E71
:10200A000401386F030E396F040E3A6F000E3B6FEE
:10201A0031EC01F0060E0727000E0823F60E0C6FAE
:10202A006E0E0D6F000E0E6F050E0F6F000E106F05
:10203A0001DC0551030A23E1065321E1320E3F6F09
:10204A005EEC00F0040E04013F6F5EEC00F0040148
:10205A00006B040E005D0FE2270EE96E030EEA6EB6
:10206A000051E926D8B0EA2AEECF3FF45EEC00F040
:10207A000401002BEED7060E0727000E0823FF0ED9
:10208A003F6F5EEC00F0160E04010C6F000E0D6F30
:10209A00160E0E6F000E0F6F440E106F000E116FAA
:1020AA00430E126F000E136F07C414F408C415F41C
:0620BA0015EC0BF0120012
:1020C000040100517A0804E3610E005DD8B0009B62
:0620D00000C400F0120044
:1020D60027C0C8F028C0C9F009C40CF40AC40DF41E
:1020E6004BDC800E0001C919026E800E0118025CDD
:1020F60002E10050C85DD8B07BD0C8510401092563
:10210600E96E0001C95104010A21EA6EEECF00F121
:10211600230E0725E96E000E0821EA6EEECF03F0C6
:1021260003C000F0000E016E0036009001362F0E3F
:102136000024026E030E0120036E02C0E9FF03C0F5
:10214600EAFFEECF05F4EECF06F402C000F003C0BE
:1021560001F000C0E9FF01C0EAFF010EEE24006EA7
:10216600000EEE20016E02C0E1FF03C0E2FF00C0D8
:10217600E6FF01C0E6FF00C10CF407C40DF408C475
:102186000EF4AEEC0CF00050000A2EE1230E0725EB
:10219600E96E000E0821EA6EEECF03F003C000F0F0
:1021A600000E016E0036009001362F0E0024026EDE
:1021B600030E0120036E02C0E9FF03C0EAFF010E11
:1021C600EE5C006E000EEE58016E02C0E1FF03C029
:1021D600E2FF00C0E6FF01C0E6FFC8C027F0C9C0A5
:1021E60028F0010E496E06D00001C84BC92B74D7E2
:0621F600276A286A1200AE
:1021FC000401096B0A6B05C403F006C404F0740EE9
:10220C000324F66E5B0E0420F76E000EF86E000EC3
:10221C0004BEFF0EF8220900F5CF01F00150000AB0
:10222C005BE0740E0324F66E5B0E0420F76E000E5A
:10223C00F86E000E04BEFF0EF8220900F5CF01F077
:10224C0007C4D9FF08C4DAFF0150DE183BE103C014
:10225C0005F004C006F00350055C006E04500658EF
:10226C00016E00500725E96E01500821EA6EEE5010
:10227C00000A05E1010E096F000E0A6F23D0740EDF
:10228C000524F66E5B0E0620F76E000EF86E000E3F
:10229C0006BEFF0EF8220900F5CF02F00350055CD4
:1022AC00006E04500658016E00500725D96E01507F
:1022BC000821DA6E0250DE1801E101D003D0054A84
:1022CC00062AC9D7000E0A1902E1010E091901E10B
:1022DC0003D0034A042A93D705C000F006C001F0CE
:0222EC001200DE
:1022EE00B50E04011A6F190E1B6FBB0E1C6F190E63
:1022FE001D6FAF0E1E6F190E1F6F206BBAEC07F01D
:10230E00B50E1A6F190E1B6FBA0E1C6F000E1D6FD5
:0E231E00060E1E6F000E1F6F52EC0AF012002A
:10232C0094EC0CF094EC0CF094EC0CF000C0F9F381
:10233C0094EC0CF000C0F8F394EC0CF000C0FBF340
:10234C0094EC0CF000C0FAF394EC0CF000C0FDF32C
:10235C0094EC0CF000C0FCF394EC0CF094EC0CF04E
:10236C0094EC0CF094EC0CF0FAC300F0FBC301F00D
:10237C00010E0301FA5F000EFB5B005001100EE032
:10238C0094EC0CF0005201E0FBD794EC0CF094ECC4
:10239C000CF094EC0CF094EC0CF0E6D7FCC300F0D1
:1023AC00FDC301F0010E0301FC5F000EFD5B00504C
:1023BC00011048E094EC0CF094EC0CF094EC0CF064
:1023CC0000C002F494EC0CF000C001F494EC0CF09E
:1023DC0094EC0CF094EC0CF094EC0CF094EC0CF001
:1023EC0094EC0CF094EC0CF000C0FFF394EC0CF0BB
:1023FC0000C0FEF3000E0401021902E1010E0119E6
:10240C0011E194EC0CF000C0EAF094EC0CF000C07C
:10241C00EBF094EC0CF000C0ECF094EC0CF000C081
:10242C00EDF010D0FEC300F0FFC301F0010E03016C
:10243C00FE5F000EFF5B0050011003E094EC0CF00B
:06244C00F1D7ACD712002D
:102452000301F951190802E1F851AD0808E2AD0E85
:10246200F85F190EF95B010EF85F000EF95B0401CB
:10247200426BF8C343F4F9C344F436EC00F01200A3
:102482000301F86BC80EF85D06E20DEC0DF00DECE1
:082492000DF0F82BF7D7120042
:10249A0004013F6B98EC00F000C0FDF3010E04014B
:1024AA003F6F98EC00F000C0FEF30401426BF8C3E2
:1024BA0043F4F9C344F436EC00F08998C6C0E1FF4E
:1024CA00C7C0E2FF3A0EE66EC4C000F0C5C001F014
:1024DA002AEC00F00301FC5318E0C6C0E1FFC7C0B4
:1024EA00E2FFE66AC4C000F0C5C001F02AEC00F0C1
:1024FA00FAC3D9FFFBC3DAFF0050DE1801E005D0AA
:10250A000301FA4BFB2BFC07E5D789880401426BD0
:10251A00FDC343F4FEC344F436EC00F0FCC300F000
:02252A0012009D
:10252C008998400E0301F811006EC6C0E1FFC7C0C8
:10253C00E2FF00C0E6FFC4C000F0C5C001F02AEC09
:10254C0000F0C6C0E1FFC7C0E2FFF9C3E6FFC4C09C
:0E255C0000F0C5C001F02AEC00F089881200E2
:10256A00330E006E000E016EF8C304F0000E056E05
:10257A0009EC01F0520E0026030E0122220E00245D
:10258A00E16E000E0120E26E010EE66E330E006E61
:10259A00000E016EF8C304F0000E056E09EC01F09E
:1025AA00520E0026030E0122230E0024E16E000EB5
:1025BA000120E26EF8C3E6FF330E006E000E016ED4
:1025CA00F8C304F0000E056E09EC01F0520E002665
:1025DA00030E0122260E0024E16E000E0120E26E97
:1025EA00E66AE66A330E006E000E016EF8C304F066
:1025FA00000E056E09EC01F0520E0026030E0122B0
:10260A00280E0024E16E000E0120E26EE66AE66AF8
:10261A00330E006E000E016EF8C304F0000E056E54
:10262A0009EC01F0520E0026030E01222A0E0024A4
:10263A00E16E000E0120E26EE66AE66A330E006E73
:10264A00000E016EF8C304F0000E056E09EC01F0ED
:10265A00520E0026030E01222C0E0024E16E000EFB
:10266A000120E26EE66AE66A330E006E000E016E23
:10267A00F8C304F0000E056E09EC01F0520E0026B4
:10268A00030E01222E0E0024E16E000E0120E26EDE
:10269A00E66AE66A330E006E000E016EF8C304F0B5
:1026AA00000E056E09EC01F0520E0026030E0122FF
:1026BA00200E0024E16E000E0120E26E010EE66E8D
:1026CA00010EE66E330E006E000E016EF8C304F0C2
:1026DA00000E056E09EC01F0520E0026030E0122CF
:1026EA000A0E0024E16E000E0120E26EE66AE66A36
:1026FA00330E006E000E016EF8C304F0000E056E74
:10270A0009EC01F0520E0026030E01220C0E0024E1
:10271A00E16E000E0120E26EE66AE66A330E006E92
:10272A00000E016EF8C304F0000E056E09EC01F00C
:10273A00520E0026030E01221F0E0024E16E000E27
:10274A000120E26EE66A330E006E000E016EF8C3D7
:10275A0004F0000E056E09EC01F0520E0026030E7D
:10276A0001221E0E0024E16E000E0120E26EE66ACE
:10277A00330E006E000E016EF8C304F0000E056EF3
:10278A0009EC01F0520E0026030E0122250E002448
:10279A00E16E000E0120E26EE66A330E006E000E54
:1027AA00016EF8C304F0000E056E09EC01F0520E3A
:1027BA000026030E01221A0E0024E16E000E0120EB
:1027CA00E26EE66AE66AE66AE66A330E006E000EB2
:1027DA00016EF8C304F0000E056E09EC01F0520E0A
:1027EA000026030E0122160E0024E16E000E0120BF
:1027FA00E26EE66AE66AE66AE66A330E006E000E82
:10280A00016EF8C304F0000E056E09EC01F0520ED9
:10281A000026030E0122140E0024E16E000E012090
:10282A00E26E1E0EE66E000EE66E330E006E000EAF
:10283A00016EF8C304F0000E056E09EC01F0520EA9
:10284A000026030E0122120E0024E16E000E012062
:10285A00E26E1E0EE66E000EE66E330E006E000E7F
:10286A00016EF8C304F0000E056E09EC01F0520E79
:10287A000026030E0122240E0024E16E000E012020
:06288A00E26EE66A120096
:102890000C0E0301F825E96E000EF921EA6EEECF69
:1028A00001F0EECF02F0000E021802E1500E011806
:1028B00001E01BD2FA6BFB6B000EFB5D02E10A0E1E
:1028C000FA5D15E2430EFA250401036F030E0301BE
:1028D000FB210401046F94EC0CF003C4E1FF04C479
:1028E000E2FF00C0E6FF0301FA4BFB2BE5D7430EE6
:1028F000FA25E16E030EFB21E26EE66AFA6BFB6BD2
:10290000430E0401056F030E066F610E076F000E84
:10291000086F050E096F000E0A6F16EC0DF00050DF
:1029200001100BE0250E0301F825E96E000EF921D8
:10293000EA6EEE50030A01E0D8D100016051000AAE
:1029400028E1010E606F0401056B066B770E076FBF
:10295000000E086F53DC00C0FCF301C0FDF300C0A3
:1029600005F401C006F4700E076F000E086F46DC18
:1029700000C0FEF301C0FFF300C005F401C006F47F
:10298000670E076F000E086F39DC00C001F401C04C
:1029900002F400016051010AD8A4A7D1230E03015B
:1029A000F825E96E000EF921EA6EEECF03F003C0C0
:1029B00000F0000E016E0036009001362F0E00244C
:1029C000E96E030E0120EA6EEECF01F0EECF02F0C9
:1029D0004B50025C02E14A50015CD8B022D1230E78
:1029E000F825E96E000EF921EA6EEECF03F003C080
:1029F00000F0000E016E0036009001362F0E00240C
:102A0000E96E030E0120EA6EEECF01F0EECF02F088
:102A10000250FD1902E1FC51011804E04950010A7D
:102A200001E018D04950010AD8B4496AFCC305F442
:102A3000FDC306F4F8C307F4F9C308F45A0E040101
:102A4000096F000E0A6F6BEC10F04950010A01E1AA
:102A5000E8D0E6D0230E0301F825E96E000EF92137
:102A6000EA6EEECF03F003C000F0000E016E0036F8
:102A7000009001362F0E0024E96E030E0120EA6E4D
:102A8000EECF01F0EECF02F00250FF1902E1FE514D
:102A9000011804E04950010A01E018D04950010A28
:102AA000D8B4496AFEC305F4FFC306F4F8C307F4BB
:102AB000F9C308F4520E0401096F000E0A6F6BECA3
:102AC00010F04950010A01E1ACD0AAD0230E030155
:102AD000F825E96E000EF921EA6EEECF03F003C08F
:102AE00000F0000E016E0036009001362F0E00241B
:102AF000E96E030E0120EA6EEECF01F0EECF02F098
:102B000002500401021902E10151011804E0495088
:102B1000010A01E018D04950010AD8B4496A0401F9
:102B200001C405F402C406F4F8C307F4F9C308F4B9
:102B30004C0E096F000E0A6F6BEC10F04950010A41
:102B400001E16FD06DD0230E0301F825E96E000E70
:102B5000F921EA6EEECF03F003C000F0000E016E23
:102B60000036009001362F0E0024026E030E012065
:102B7000036E02C0D9FF03C0DAFF740EDE24F66EC6
:102B80005B0EDE20F76E000EF86E000EF8220900D4
:102B9000F5CF00F102C0E9FF03C0EAFF010EEE2409
:102BA000006E000EEE20016E02C0E1FF03C0E2FFE6
:102BB00000C0E6FF01C0E6FF00C10CF4F8C30DF44D
:102BC000F9C30EF4AEEC0CF00050000A29E1230E1C
:102BD0000301F825E96E000EF921EA6EEECF03F04D
:102BE00003C000F0000E016E0036009001362F0E7B
:102BF0000024026E030E0120036E02C0E9FF03C031
:102C0000EAFF010EEE5C006E000EEE58016E02C08F
:102C1000E1FF03C0E2FF00C0E6FF01C0E6FF01D014
:102C2000BDD6F8C305F4F9C306F4CAEC0DF00052A2
:102C30005CE0230E0301F825E96E000EF921EA6E2F
:102C4000EECF03F003C000F0000E016E00360090DE
:102C500001362F0E0024E96E030E0120EA6EEECF3E
:102C600001F0EECF02F04B50025C02E14A50015CF1
:102C70003CE3F8C305F4F9C306F45FEC0FF0230E50
:102C80000301F825D96E000EF921DA6EDECF00F0CF
:102C9000000E016E330E046E000E056E09EC01F09D
:102CA000520E0026030E0122250E0024E16E000EB6
:102CB0000120E26EE66A0001606B230E0301F82535
:102CC000E96E000EF921EA6EEECF03F003C000F0CA
:102CD000000E016E0036009001362F0E0024E16ECA
:0C2CE000030E0120E26EE66AE66A1200B4
:102CEC00F8C3E9FFF9C3EAFFEECF05F4CB0E0401FC
:102CFC00066F000E076F90EC0DF02E0E0001CE6FDC
:102D0C00010E0301F825E96E000EF921EA6EEECFF3
:102D1C0005F4CF0E0401066F000E076F90EC0DF05A
:102D2C002E0E0001D26F020E0301F825E96E000E83
:102D3C00F921EA6EEECF05F4D30E0401066F000EF6
:102D4C00076F90EC0DF02E0E0001D66F030E0301F1
:102D5C00F825E96E000EF921EA6EEECF05F4D70ED8
:102D6C000401066F000E076F90EC0DF03A0E000197
:102D7C00DA6F0A0E0301F825E96E000EF921EA6EEE
:102D8C00EECF05F4EECF06F4DB0E0401076F000E58
:102D9C00086F47EC0DF05B0E0001E06F0C0E0301A9
:102DAC00F825E96E000EF921EA6EEECF05F4EECFB0
:102DBC0006F4E10E0401076F000E086F47EC0DF0EE
:102DCC005D0E0001E66FE76B0E0E0301F825D96E60
:102DDC00000EF921DA6E1C0EDE24FA6F000EDE20D6
:102DEC00FB6FCB0E0401386F000E396F1C0E3A6F5F
:102DFC00000E3B6F31EC01F00E0E0301F825046E52
:102E0C00000EF921056E04C0E9FF05C0EAFFEECF04
:102E1C0002F0EECF03F0010E025C006E000E0358C0
:102E2C00016E04C0E1FF05C0E2FF00C0E6FF01C077
:102E3C00E6FF025003100BE094EC0CF000C000F421
:102E4C0060EC10F000C03FF45EEC00F0D5D7FAC394
:082E5C0000F0FBC301F01200BD
:102E6400F8C30CF4F9C30DF4160E04010E6F000E32
:102E74000F6F040E106F000E116FE4EC0AF0000ED9
:102E8400011802E1000E001803E1020E006E19D0D1
:102E9400F8C30CF4F9C30DF4820E04010E6F000E96
:102EA4000F6F040E106F000E116FE4EC0AF0000EA9
:102EB400011802E1000E001803E1010E006E01D0BA
:042EC400006A12008E
:102EC800B3D0C00E0401056F000E066F076B040E29
:102ED800086F000E096F41EC0FF0010E056F066BCD
:102EE80095EC0FF035C001F136C002F137C003F19F
:102EF80038C004F1030E396EA8D0050E0101012572
:102F0800016E000E0221026E000E0321036E000EF8
:102F18000421046E3850045C08E13750035C05E175
:102F28003650025C02E13550015C02E2020E396E55
:102F3800EAEC0DF00050020A03E1040E396E01D0EC
:102F480084D0030E0401056F3CC006F495EC0FF025
:102F580035C001F136C002F137C003F138C004F1C1
:102F6800050E396E72D0EAEC0DF000C0F8F300508F
:102F7800060A03E1040E396E2DD00301F851050A43
:102F880029E135C001F136C002F137C003F138C07C
:102F980004F1060E396EC00E04011A6F000E1B6F85
:102FA800270E1C6F030E1D6F040E1E6F000E1F6F81
:102FB80092EC07F02B0E056F030E066F230E076FBA
:102FC800030E086F1B0E096F030E0A6FDCEC0CF082
:102FD8003C6A3BD03AD0010E01010125016E000E7A
:102FE8000221026E000E0321036E000E0421046EFE
:102FF8000450385C08E10350375C05E10250365C48
:1030080002E10150355C0FE3010E0301055F000E7C
:10301800065B075B085B35C001F136C002F137C0BB
:1030280003F138C004F111D03950020AD8B449D795
:103038003950030AD8B461D73950040A82E03950AC
:0C304800050A91E03950060AC6E01200AB
:103054001F0E04013F6F010E406FCFEC00F01F0EF6
:1030640004013F6F020E406FECEC00F0140E0301FC
:10307400F86F96C3F9F396EC12F041EC12F0160EC9
:10308400F86F98C3F9F396EC12F041EC12F0170EB6
:10309400F86F97C3F9F396EC12F041EC12F01200BA
:1030A4001F0E04013F6F010E406FCFEC00F01F0EA6
:1030B40004013F6F020E406FECEC00F0140E0301AC
:1030C400F86F96C3F9F396EC12F0120E04013F6FF9
:1030D400010E406FECEC00F041EC12F0120E040112
:1030E4003F6F010E406FCFEC00F0160E04013F6FEE
:1030F40098EC00F099C3E1FF9AC3E2FF00C0E6FF39
:10310400170E04013F6F98EC00F097C3E1FF98C3DA
:08311400E2FF00C0E6FF12001B
:10311C000301E46BED6BF26BF36BF46BF56BE90E87
:10312C0004010C6F030E0D6F0E0E030196250401A6
:10313C000E6F000E0301972104010F6F100E0E2766
:10314C00000E0F23040E106F000E116F56EC0CF0D6
:10315C00E50E0C6F030E0D6F0E0E03019625040188
:10316C000E6F000E0301972104010F6F0C0E0E273A
:10317C00000E0F23040E106F000E116F56EC0CF0A6
:10318C009AC33FF49BC340F4B0EC00F000C0A9F329
:10319C0094EC0CF000C0A8F394EC0CF000C0ABF372
:1031AC0094EC0CF000C0AAF30301EE6BEF6B800EF5
:1031BC00EF19006E000E800A005C02E1010EEE5D5C
:1031CC00D8B0C7D0330E006E000E016EEEC304F003
:1031DC00EFC305F009EC01F0520E0026030E01229C
:1031EC00220E0024E96E000E0120EA6EEE50000A59
:1031FC000FE1000EF51902E1000EF41908E1EEC31F
:10320C00F0F3EFC3F1F3010EF46F000EF56F9ED0E7
:10321C00330E006E000E016EEEC304F0EFC305F02A
:10322C0009EC01F0520E0024D96E030E0120DA6E67
:10323C00DECF01F0E5510118D8A488D0330E006E12
:10324C00000E016EEEC304F0EFC305F009EC01F0C3
:10325C00520E0026030E0122010E0024D96E000E20
:10326C000120DA6EE651DE1871E1330E006E000EAD
:10327C00016EEEC304F0EFC305F009EC01F0520E41
:10328C000026030E0122020E0024D96E000E01202E
:10329C00DA6EE751DE185AE1330E006E000E016E45
:1032AC00EEC304F0EFC305F009EC01F0520E00265A
:1032BC00030E0122030E0024D96E000E0120DA6EDB
:1032CC00E851DE1843E1330E006E000E016EEEC3C2
:1032DC0004F0EFC305F009EC01F0520E0026030ECA
:1032EC0001220A0E0024D96E000E0120DA6EDECF08
:1032FC0001F0DECF02F0A951021802E10150A81929
:10330C0025E1330E006E000E016EEEC304F0EFC328
:10331C0005F009EC01F0520E0026030E01220C0EF2
:10332C000024D96E000E0120DA6EDECF01F0DECF64
:10333C0002F0AB51021802E10150AA1907E1EEC3E9
:10334C00EDF3010EF26F000EF36F03D0EE4BEF2B8B
:10335C002ED7000EF31902E1000EF219D8A491D069
:10336C00000EF51902E1010EF419D8A48AD0F0C3AD
:10337C00F8F3B5EC12F0F0C3EDF3330E006E000E63
:10338C00016EF0C304F0000E056E09EC01F0520E54
:10339C000024E16E030E0120E26EE5C3E6FF330E5E
:1033AC00006E000E016EEDC304F0000E056E09EC0C
:1033BC0001F0520E0026030E0122010E0024E16ED4
:1033CC00000E0120E26EE6C3E6FF330E006E000E27
:1033DC00016EEDC304F0000E056E09EC01F0520E07
:1033EC000026030E0122020E0024E16E000E0120C5
:1033FC00E26EE7C3E6FF330E006E000E016EEDC306
:10340C0004F0000E056E09EC01F0520E0026030EBE
:10341C000122030E0024E16E000E0120E26EE8C3CF
:10342C00E6FF330E006E000E016EEDC304F0000ECD
:10343C00056E09EC01F0520E0026030E01220C0E53
:10344C000024E16E000E0120E26EAAC3E6FFABC3BE
:10345C00E6FF330E006E000E016EEDC304F0000E9D
:10346C00056E09EC01F0520E0026030E01220A0E25
:10347C000024E16E000E0120E26EA8C3E6FFA9C392
:10348C00E6FF000EF31902E1000EF2190AE1000E3C
:10349C00F51902E1000EF41904E1060E006E80EF3E
:1034AC0023F0330E006E000E016EEDC304F0000E1F
:1034BC00056E09EC01F0520E0026030E0122240EBB
:1034CC000024F66F000E0120F76FE90EF86F030E63
:1034DC00F96FC2DCF6C3E1FFF7C3E2FF00C0E6FF01
:1034EC00330E006E000E016EEDC304F0000E056E7F
:1034FC0009EC01F0520E002404010C6F030E0120A4
:10350C000D6F040E0C27000E0D23060E03019625DD
:10351C0004010E6F000E0301972104010F6F060EBC
:10352C00106F000E116F56EC0CF0040E03019A256F
:10353C0004013F6F000E03019B210401406FB0ECAE
:10354C0000F000C0AFF394EC0CF000C0AEF394ECC0
:10355C000CF000C0ADF394EC0CF000C0ACF394ECA8
:10356C000CF000C0B3F394EC0CF000C0B2F394EC8C
:10357C000CF000C0B1F394EC0CF000C0B0F30C0EE6
:10358C0003019A2504013F6F000E03019B210401E6
:10359C00406FB0EC00F000C0B4F300C09EF3000E1E
:1035AC0003019F6F9E339E9F9E339E9F000E9F6FC5
:1035BC00FC0E9E17FF0E9F170D0E9A2504013F6FF0
:1035CC00000E03019B210401406FB0EC00F03F0E94
:1035DC00001600C0B5F30E0E03019A2504013F6FCF
:1035EC00000E03019B210401406FB0EC00F000C001
:1035FC00B7F394EC0CF000C0B6F394EC0CF000C0F4
:10360C00B9F394EC0CF000C0B8F394EC0CF000C0DF
:10361C00BBF394EC0CF000C0BAF3330E006E000E4A
:10362C00016EEDC304F0000E056E09EC01F0520EB4
:10363C000026030E01220E0E0024E16E000E012066
:10364C00E26E0E0E0001865D006E000E8759016E53
:10365C0003019851005E9951015A9E51005E9F5191
:10366C00015A00C0E6FF01C0E6FF000E006E9F513C
:10367C00005C02E19E51140820E2EE6BEF6B140E1D
:10368C009E5D016E000E9F59026E0250EF5D02E1CD
:10369C000150EE5D12E2BC0EEE25F66F030EEF212B
:1036AC00F76F94EC0CF0F6C3E1FFF7C3E2FF00C038
:1036BC00E6FF0301EE4BEF2BE2D7B551020AD8A47B
:1036CC005CD1330E006E000E016EEDC304F0000EE3
:1036DC00056E09EC01F0520E0026030E0122250E98
:1036EC000024E96E000E0120EA6EEE50000A1FE184
:1036FC00330E006E000E016EEDC304F0000E056E6D
:10370C0009EC01F0520E0026030E01220E0E0024CD
:10371C00E96E000E0120EA6EEECF01F0EECF02F062
:10372C00000E021802E1000E011801E103D0006A3C
:10373C0080EF23F0BC51020A1FE1330E006E000E25
:10374C00016EEDC304F0000E056E09EC01F0520E93
:10375C000026030E0122100E0024E16E000E012043
:10376C00E26EBEC301F0006ABF510026000E0122BA
:10377C0000C0E6FF01C0E6FF330E006E000E016EC6
:10378C00EDC304F0000E056E09EC01F0520E00269C
:10379C00030E01221A0E0024E16E000E0120E26ECF
:1037AC00010EAC25006E000EAD21016E000EAE2197
:1037BC00026E000EAF21036E00C0E6FF01C0E6FFF3
:1037CC0002C0E6FF03C0E6FF330E006E000E016E72
:1037DC00EDC304F0000E056E09EC01F0520E00264C
:1037EC00030E0122160E0024E16E000E0120E26E83
:1037FC00340EE66E120EE66E000EE66EE66E330EBC
:10380C00006E000E016EEDC304F0000E056E09ECA7
:10381C0001F0520E0026030E0122280E0024E16E48
:10382C00000E0120E26EE66AE66A330E006E000EB0
:10383C00016EEDC304F0000E056E09EC01F0520EA2
:10384C000026030E01222A0E0024E16E000E012038
:10385C00E26EE66AE66A330E006E000E016EEDC390
:10386C0004F0000E056E09EC01F0520E0026030E5A
:10387C0001222C0E0024E16E000E0120E26EE66A9D
:10388C00E66A330E006E000E016EEDC304F0000EFE
:10389C00056E09EC01F0520E0026030E01222E0ECD
:1038AC000024E16E000E0120E26EE66AE66A120E5A
:1038BC000401286FEDC329F46AEC02F0330E006E9C
:1038CC00000E016EEDC304F0000E056E09EC01F064
:1038DC00520E0026030E0122250E0024E16E000E6E
:1038EC000120E26E010EE66E330E006E000E016ECC
:1038FC00EDC304F0000E056E09EC01F0520E00262B
:10390C00030E01221E0E0024E16E000E0120E26E59
:10391C00030EE66E330E006E000E016EEDC304F066
:10392C00000E056E09EC01F0520E0026030E01226A
:10393C00160E0024046E000E0120056E04C0E9FF73
:10394C0005C0EAFF010EEE24006E000EEE20016EA3
:10395C00000EEE20026E000EEE20036E04C0E1FF9E
:10396C0005C0E2FF00C0E6FF01C0E6FF02C0E6FFB3
:10397C0003C0E6FF006A80EF23F00301B551120A81
:10398C00D8A42DD1330E006E000E016EEDC304F0E1
:10399C00000E056E09EC01F0520E0026030E0122FA
:1039AC00250E0024E96E000E0120EA6EEE50040A8A
:1039BC001FE1330E006E000E016EEDC304F0000E1D
:1039CC00056E09EC01F0520E0026030E01220E0EBC
:1039DC000024E96E000E0120EA6EEECF01F0EECF6E
:1039EC0002F0000E021802E1000E011801E103D0F2
:1039FC00006A80EF23F00301BC51020A1FE1330E71
:103A0C00006E000E016EEDC304F0000E056E09ECA5
:103A1C0001F0520E0026030E0122100E0024E16E5E
:103A2C00000E0120E26EBEC301F0006ABF510026F9
:103A3C00000E012200C0E6FF01C0E6FF330E006E4F
:103A4C00000E016EEDC304F0000E056E09EC01F0E2
:103A5C00520E0026030E01221A0E0024E16E000EF7
:103A6C000120E26E010EAC25006E000EAD21016E40
:103A7C00000EAE21026E000EAF21036E00C0E6FFF9
:103A8C0001C0E6FF02C0E6FF03C0E6FF330E006E86
:103A9C00000E016EEDC304F0000E056E09EC01F092
:103AAC00520E0026030E0122160E0024E16E000EAB
:103ABC000120E26EB0C3E6FFB1C3E6FFB2C3E6FF7E
:103ACC00B3C3E6FF330E006E000E016EEDC304F0BF
:103ADC00000E056E09EC01F0520E0026030E0122B9
:103AEC00280E0024E16E000E0120E26EE66AE66A02
:103AFC00330E006E000E016EEDC304F0000E056E69
:103B0C0009EC01F0520E0026030E01222A0E0024AD
:103B1C00E16E000E0120E26EE66AE66A330E006E7C
:103B2C00000E016EEDC304F0000E056E09EC01F001
:103B3C00520E0026030E01222C0E0024E16E000E04
:103B4C000120E26EE66AE66A330E006E000E016E2C
:103B5C00EDC304F0000E056E09EC01F0520E0026C8
:103B6C00030E01222E0E0024E16E000E0120E26EE7
:103B7C00E66AE66A100E0401286FEDC329F46AECBC
:103B8C0002F0330E006E000E016EEDC304F0000E59
:103B9C00056E09EC01F0520E0026030E0122250ED3
:103BAC000024E16E000E0120E26E030EE66E330E71
:103BBC00006E000E016EEDC304F0000E056E09ECF4
:103BCC0001F0520E0026030E01221E0E0024E16E9F
:103BDC00000E0120E26EE66A006A80EF23F0010E0F
:103BEC000301B515016E0150000AD8B4A5D0330EEF
:103BFC00006E000E016EEDC304F0000E056E09ECB4
:103C0C0001F0520E0026030E01221A0E0024E16E62
:103C1C00000E0120E26E010EAC25006E000EAD21EF
:103C2C00016E000EAE21026E000EAF21036E00C0BD
:103C3C00E6FF01C0E6FF02C0E6FF03C0E6FF330E5D
:103C4C00006E000E016EEDC304F0000E056E09EC63
:103C5C0001F0520E0026030E01222E0E0024E16EFE
:103C6C00000E0120E26EE66AE66A100E0401286F6F
:103C7C00EDC329F46AEC02F0330E006E000E016EF7
:103C8C00EDC304F0000E056E09EC01F0520E002697
:103C9C00030E0122250E0024E96E000E0120EA6EAF
:103CAC00EE50060A07E0110E286FEDC329F46AECFA
:103CBC0002F015D0330E006E000E016EEDC304F051
:103CCC00000E056E09EC01F0520E0026030E0122C7
:103CDC001E0E0024E16E000E0120E26EE66A330E29
:103CEC00006E000E016EEDC304F0000E056E09ECC3
:103CFC0001F0520E0026030E0122250E0024E16E67
:103D0C00000E0120E26EE66A330E006E000E016EAC
:103D1C00EDC304F0000E056E09EC01F0520E002606
:103D2C00030E0122220E0024E16E000E0120E26E31
:103D3C00E66A006A80EF23F0040E0301B515016EEC
:103D4C000150000A2DE0330E006E000E016EEDC323
:103D5C0004F0000E056E09EC01F0520E0026030E65
:103D6C000122250E0024E16E000E0120E26EE66AAF
:103D7C00330E006E000E016EEDC304F0000E056EE6
:103D8C0009EC01F0520E0026030E0122220E002433
:103D9C00E16E000E0120E26EE66A006A80EF23F00D
:103DAC00330E006E000E016EEDC304F0000E056EB6
:103DBC0009EC01F0520E0026030E0122250E002400
:103DCC00E96E000E0120EA6EEE50000A18E1330E87
:103DDC00006E000E016EEDC304F0000E056E09ECD2
:103DEC0001F0520E0026030E0122220E0024E16E79
:103DFC00000E0120E26EE66A006A80EF23F0010EED
:103E0C00E46F100EB515016E0150000AD8B4E6D35C
:103E1C00330E006E000E016EEDC304F0000E056E45
:103E2C0009EC01F0520E0026030E0122250E00248F
:103E3C00E96E000E0120EA6EEE50010A56E1330ED7
:103E4C00006E000E016EEDC304F0000E056E09EC61
:103E5C0001F0520E0026030E01221A0E0024D96E18
:103E6C00000E0120DA6EDECF01F0DECF02F0DECFE5
:103E7C0003F0DECF04F0AF51041808E1AE51031883
:103E8C0005E1AD51021802E1AC5101182BE1330EE2
:103E9C00006E000E016EEDC304F0000E056E09EC11
:103EAC0001F0520E0026030E01221E0E0024E16EBC
:103EBC00000E0120E26EE66A330E006E000E016EFB
:103ECC00EDC304F0000E056E09EC01F0520E002655
:103EDC00030E0122250E0024E16E000E0120E26E7D
:103EEC00030EE66E006A80EF23F0330E006E000EB8
:103EFC00016EEDC304F0000E056E09EC01F0520EDC
:103F0C000026030E01221A0E0024D96E000E012089
:103F1C00DA6EDECF01F0DECF02F0DECF03F0DECFC3
:103F2C0004F0AF51041808E1AE51031805E1AD518E
:103F3C00021802E1AC51011802E0006ADBD3330E27
:103F4C00006E000E016EEDC304F0000E056E09EC60
:103F5C0001F0520E0026030E0122250E0024E96EFC
:103F6C00000E0120EA6EEE50050A56E1330E006E8B
:103F7C00000E016EEDC304F0000E056E09EC01F0AD
:103F8C00520E0026030E01221A0E0024D96E000ECA
:103F9C000120DA6EDECF01F0DECF02F0DECF03F0CF
:103FAC00DECF04F0AF51041808E1AE51031805E15F
:103FBC00AD51021802E1AC5101182CE1330E006E28
:103FCC00000E016EEDC304F0000E056E09EC01F05D
:103FDC00520E0026030E01221E0E0024E16E000E6E
:103FEC000120E26E030EE66E330E006E000E016EC3
:103FFC00EDC304F0000E056E09EC01F0520E002624
:10400C00030E0122250E0024E16E000E0120E26E4B
:10401C00060EE66E006A6ED3330E006E000E016E55
:10402C00EDC304F0000E056E09EC01F0520E0026F3
:10403C00030E0122250E0024E96E000E0120EA6E0B
:10404C00EE50060A18E1330E006E000E016EEEC340
:10405C0004F0EFC305F009EC01F0520E0026030E3C
:10406C0001221E0E0024E16E000E0120E26E030EF2
:10407C00E66E006A3FD3330E006E000E016EEDC388
:10408C0004F0000E056E09EC01F0520E0026030E32
:10409C000122250E0024E96E000E0120EA6EEE507E
:1040AC00030A19E0330E006E000E016EEDC304F02E
:1040BC00000E056E09EC01F0520E0026030E0122D3
:1040CC00250E0024E96E000E0120EA6EEE50070A60
:1040DC0002E0006A0FD3330E006E000E016EEDC3CA
:1040EC0004F0000E056E09EC01F0520E0026030ED2
:1040FC000122280E0024E96E000E0120EA6EEECF9C
:10410C0003F0EECF04F02A0E0024D96E000E01202D
:10411C00DA6EDECF01F0DECF02F00450021802E1BD
:10412C0001500318D8B438D2330E006E000E016E55
:10413C00EDC304F0000E056E09EC01F0520E0026E2
:10414C00030E01222A0E0024E96E000E0120EA6EF5
:10415C00EECF03F0EECF04F0280E0024D96E000E43
:10416C000120DA6EDECF01F0DECF02F00250045CEB
:10417C0002E10150035C25E2330E006E000E016E6D
:10418C00EDC304F0000E056E09EC01F0520E002692
:10419C00030E01222A0E0024E96E000E0120EA6EA5
:1041AC00000EEE249C6F020EEE209D6F280E002454
:1041BC00D96E000E0120DA6EDE509C5FDE509D5BE6
:1041CC0020D0330E006E000E016EEDC304F0000E15
:1041DC00056E09EC01F0520E0026030E01222A0E88
:1041EC000024E96E000E0120EA6E280E0024D96E20
:1041FC00000E0120DA6EDE50EE5C9C6FDE50EE5845
:10420C009D6FB0C3A0F3B1C3A1F3B2C3A2F3B3C308
:10421C00A3F3330E006E000E016EEDC304F0000E1E
:10422C00056E09EC01F0520E0026030E0122160E4B
:10423C000024D96E000E0120DA6EDECF01F0DECF45
:10424C0002F0DECF03F0DECF04F0B351045C08E1E2
:10425C00B251035C05E1B151025C02E1B051015C69
:10426C00D8B005D1330E006E000E016EEDC304F014
:10427C00000E056E09EC01F0520E0026030E012211
:10428C00160E0024E96E000E0120EA6E9C51EE24FD
:10429C00016E9D51EE20026E000EEE20036E000E9C
:1042AC00EE20046EA351045C08E1A251035C05E10D
:1042BC00A151025C02E1A051015CD8A0D8D0330E10
:1042CC00006E000E016EEDC304F0000E056E09ECDD
:1042DC0001F0520E0026030E0122250E0024E96E79
:1042EC00000E0120EA6EEE50070A16E1330E006E46
:1042FC00000E016EEDC304F0000E056E09EC01F02A
:10430C00520E0026030E0122250E0024E16E000E33
:10431C000120E26E030EE66E330E006E000E016E8F
:10432C00EDC304F0000E056E09EC01F0520E0026F0
:10433C00030E01221F0E0024E16E000E0120E26E1E
:10434C00E66A330E006E000E016EEDC304F0000E33
:10435C00056E09EC01F0520E0026030E0122160E1A
:10436C000026000E012200C0D9FF01C0DAFFA0C355
:10437C00A4F3A1C3A5F3A2C3A6F3A3C3A7F3DE5072
:10438C00A45FDE50A55BDE50A65BDE50A75B00C0D1
:10439C00E1FF01C0E2FFA0C3E6FFA1C3E6FFA2C399
:1043AC00E6FFA3C3E6FF330E006E000E016EEDC3F5
:1043BC0004F0000E056E09EC01F0520E0026030EFF
:1043CC000122280E0024046E000E0120056E04C08C
:1043DC00E9FF05C0EAFFA451EE24026EA551EE20C0
:1043EC00036E000E006E020E016E010E005E000EDA
:1043FC00015A025000160350011604C0E1FF05C01B
:10440C00E2FF00C0E6FF01C0E6FF330E006E000EB7
:10441C00016EEDC304F0000E056E09EC01F0520EB6
:10442C000026030E01222E0E0024E16E000E012048
:10443C00E26EE66AE66A330E006E000E016EEDC3A4
:10444C0004F0000E056E09EC01F0520E0026030E6E
:10445C000122300E0024E96E000E0120EA6EEE50AF
:10446C00010A03E1010EE46F01D0E46B95D0330E29
:10447C00006E000E016EEDC304F0000E056E09EC2B
:10448C0001F0520E0026030E0122160E0024D96EE6
:10449C00000E0120DA6EDECF01F0DECF02F0DECFAF
:1044AC0003F0DECF04F0A351041808E1A251031865
:1044BC0005E1A151021802E1A051011839E1330EB6
:1044CC00006E000E016EEDC304F0000E056E09ECDB
:1044DC0001F0520E0026030E01222A0E0024E16E7A
:1044EC00000E0120E26E280E0024E96E000E012061
:1044FC00EA6EEECFE6FFEECFE6FF330E006E000E57
:10450C00016EEDC304F0000E056E09EC01F0520EC5
:10451C000026030E01222E0E0024E16E000E012057
:10452C00E26E9CC3E6FF9DC3E6FF010EE46F34D040
:10453C00330E006E000E016EEDC304F0000E056E1E
:10454C0009EC01F0520E0026030E0122160E002477
:10455C00E16E000E0120E26EA0C3E6FFA1C3E6FFF0
:10456C00A2C3E6FFA3C3E6FF330E006E000E016E7E
:10457C00EDC304F0000E056E09EC01F0520E00269E
:10458C00030E01222E0E0024E16E000E0120E26EBD
:10459C00E66AE66A010EE46F330E006E000E016EE1
:1045AC00EDC304F0000E056E09EC01F0520E00266E
:1045BC00030E01220E0E0024E96E000E0120EA6E9D
:1045CC00EECF01F0EECF02F0000E006E0250005C58
:1045DC0002E10150000802E2010EE46F330E006E9E
:1045EC00000E016EEDC304F0000E056E09EC01F037
:1045FC00520E0026030E0122300E0024E16E000E36
:10460C000120E26EE66A330E006E000E016EEDC301
:10461C0004F0000E056E09EC01F0520E0024F86F48
:10462C00030E0120F96F48EC14F0330E006E000EEF
:10463C00016EEDC304F0000E056E09EC01F0520E94
:10464C000026030E01220E0E0024E96E000E01203E
:10465C00EA6EEECF01F0EECF02F0000E006E0250CB
:10466C00005C02E10150000839E2330E006E000ECE
:10467C00016EEDC304F0000E056E09EC01F0520E54
:10468C000026030E01221A0E0024046E000E0120D7
:10469C00056E0E0E0024E96E000E0120EA6EEECFC0
:1046AC0000F0EECF01F0000E026E036E04C0E9FFC5
:1046BC0005C0EAFFEE500026EE500122EE50022219
:1046CC00EE50032204C0E1FF05C0E2FF00C0E6FF8C
:1046DC0001C0E6FF02C0E6FF03C0E6FF0301E4539E
:1046EC0008E004011A6B020E1B6FEDC31CF449ECBD
:0646FC0008F0006A120044
:1047020099C33FF49AC340F4B0EC00F000C0A4F3A4
:1047120094EC0CF000C0A3F394EC0CF000C0A2F3F4
:1047220094EC0CF000C0A1F3000E0301A21902E107
:10473200000EA11901E1D7D094EC0CF000C0A6F351
:1047420094EC0CF000C0A5F3AB0E04010C6F030E49
:104752000D6FCD0E0E6F190E0F6F040E106F000E3F
:10476200116F56EC0CF0A70E0C6F030E0D6FC90EF5
:104772000E6F190E0F6F040E106F000E116F56ECB4
:104782000CF0020E426F080E030199250401436FDB
:10479200000E03019A210401446F36EC00F00E0E64
:1047A20003019625F86F000E9721F96F9851F827AB
:1047B200000EF923080EF827000EF92329EC12F057
:1047C200000E0301A41902E1350EA31903E196ECD0
:1047D20011F089D0000E0301A21902E1440EA119C1
:1047E20003E164EC17F07FD09B0E04010C6F030E03
:1047F2000D6FB50E0E6F190E0F6F060E106F000EB5
:10480200116F56EC0CF00E0E03019625F86F000E98
:104812009721F96F9851F827000EF923080EF8270F
:10482200000EF92329EC12F0090E04011A6F030E8F
:104832001B6FA70E1C6F030E1D6F040E1E6F000E62
:104842001F6F92EC07F00D0E1A6F030E1B6F9B0E7B
:104852001C6F030E1D6F060E1E6F000E1F6F92EC73
:1048620007F0A3C313F3A4C314F3A1C315F3A2C3A4
:1048720016F3080E0301A55D006E000EA659016E27
:1048820000C017F301C018F3AB0EF86F030EF96FF7
:1048920032EC17F000C019F3000E03011A6F090E73
:1048A200F86F030EF96F76EC16F000C0A5F301C0A5
:1048B200A6F30050011017E09B0E04010C6F030ECB
:1048C2000D6FA70E0E6F030E0F6FA1C310F4A2C3DC
:1048D20011F4A3C312F4A4C313F4A5C314F4A6C31E
:0848E20015F415EC0BF01200B7
:1048EA00C40E04013F6F190E406FB0EC00F000C017
:1048FA0096F3E8D0D50E0301F86F190EF96FC00EC2
:10490A00FA6F000EFB6F040EFC6F4DEC12F00050B4
:10491A00000A4BE1C40E04013F6F190E406F020EEC
:10492A00416F77EC00F077EC11F0CB0E1A6F190E8D
:10493A001B6FCF0E1C6F190E1D6FD50E1E6F190E31
:10494A001F6F206BBAEC07F0CB0E1A6F190E1B6F94
:10495A00C00E1C6F000E1D6F040E1E6F000E1F6F1F
:10496A0052EC0AF0C50E1A6F190E1B6FCB0E1C6F94
:10497A00190E1D6FCF0E1E6F190E1F6F206BBAEC2A
:10498A0007F0C50E1A6F190E1B6FBA0E1C6F000EB8
:10499A001D6F060E1E6F000E1F6F52EC0AF03C0EC2
:1049AA00386F000E396F86EC01F095D0AF0E030117
:1049BA00F86F190EF96FBA0EFA6F000EFB6F060E3A
:1049CA00FC6F4DEC12F00050000A7BE1CB0E0301A4
:1049DA00F86F190EF96FB8C0FAF3B9C0FBF3040EF9
:1049EA00FC6F4DEC12F00050000A6BE10F0E006EE6
:1049FA00000E016E1CC004F0000E056E09EC01F0F9
:104A0A008B0E002404010C6F000E01200D6F090E9D
:104A1A000C27000E0D23C50E0E6F190E0F6F060E12
:104A2A00106F000E116F56EC0CF00F0E006E000E98
:104A3A00016E1CC004F0000E056E09EC01F08B0E2D
:104A4A0000241A6F000E01201B6F050E1A27000E94
:104A5A001B23B8C01CF4B9C01DF4040E1E6F000E4F
:104A6A001F6F92EC07F00F0E006E000E016E1CC055
:104A7A0004F0000E056E09EC01F08B0E0024E16EC5
:104A8A00000E0120E26E010EE66E0F0E006E000EA1
:104A9A00016E1CC004F0000E056E09EC01F08B0ECD
:104AAA000026000E0122010E0024E16E000E0120F4
:104ABA00E26E35C0E6FF36C0E6FF37C0E6FF38C013
:104ACA00E6FF09D003019651010AD8B413D79651CB
:084ADA00020AD8B46BD71200E8
:104AE200C90E04011A6F190E1B6FCD0E1C6F190E21
:104AF2001D6FCD0E1E6F190E1F6F206BBAEC07F0E3
:104B0200C90E1A6F190E1B6FC00E1C6F000E1D6F9F
:0E4B1200040E1E6F000E1F6F52EC0AF0120010
:104B20000301F86B8A5303E00D0E8B6F02D0050E64
:104B30008B6F8BC3F9F396EC12F0020E0301F86F42
:104B40008A5303E0310E8C6F02D0300E8C6F8CC311
:104B5000F9F396EC12F00A0E0401426FEE0E436F69
:104B6000050E446F36EC00F0040E0301F86F8A5313
:104B700003E0150E8D6F02D0120E8D6F8DC3F9F309
:104B800096EC12F0060E0301F86F120EF96F96EC18
:104B900012F003018A5306E1070EF86F0C0EF96F4D
:104BA00096EC12F003018A5306E1090EF86F3F0EEE
:104BB000F96F96EC12F01F0E04013F6F010E406F6B
:104BC000ECEC00F01F0E04013F6F020E406FECECA6
:104BD00000F0040E0301F86FBAC0F9F396EC12F07E
:104BE000050E0301F86FBBC0F9F396EC12F0020E4C
:104BF0000301F86FBCC0F9F396EC12F0030E030149
:104C0000F86FBDC0F9F396EC12F00301F86BBEC06B
:104C1000F9F396EC12F0010E0301F86FBFC0F9F33F
:104C200096EC12F0150E0301F86FF96B96EC12F08A
:104C3000120E04013F6F98EC00F000C08AF00301EF
:104C4000966B8F0E976F030E986F900E996F030EF1
:104C50009A6F52EC18F00301966BFE0E8F15976F4A
:104C60008A5303E0010E8E6F01D08E6B8E51971325
:104C700090C398F32AEC18F0100E966F010E976F00
:104C8000986B2AEC18F01F0E04013F6F040E406F62
:104C9000ECEC00F041EC12F08B0E0401056F000EFD
:104CA000066F076B086B096B41EC0FF01F0E3F6F2F
:104CB000010E406FCFEC00F01F0E04013F6F020E9B
:084CC000406FCFEC00F0120080
:104CC8000301936B1F0E04013F6F010E406FCFEC81
:104CD80000F01F0E04013F6F020E406FCFEC00F092
:104CE8000401426B3AC043F43BC044F436EC00F094
:104CF8008998C6C0E1FFC7C0E2FF3A0EE66EC4C09D
:104D080000F0C5C001F02AEC00F0C6C0E1FFC7C042
:104D1800E2FFE66AC4C000F0C5C001F02AEC00F06A
:104D280000C03AF0C6C0E1FFC7C0E2FFE66AC4C0EF
:104D380000F0C5C001F02AEC00F000C03BF0C6C08E
:104D4800E1FFC7C0E2FFE66AC4C000F0C5C001F0D9
:104D58002AEC00F000C086F0C6C0E1FFC7C0E2FF41
:104D6800E66AC4C000F0C5C001F02AEC00F000C03B
:104D780087F0C6C0E1FFC7C0E2FFE66AC4C000F022
:104D8800C5C001F02AEC00F000C091F3C6C0E1FFF5
:104D9800C7C0E2FFE66AC4C000F0C5C001F02AEC53
:104DA80000F000C092F38988040E0001865F000EAF
:104DB800875B3B50190802E13A50AD0810E33AB05E
:104DC8000ED0030192BF0BD000018751050802E104
:104DD8008651EE0804E3030191AF01D003D0010E20
:104DE800006EDAD104013F6B98EC00F000C08FF33D
:104DF800010E04013F6F98EC00F000C090F38FC3E0
:104E08001AF490C31BF40001865103018F25040195
:104E18001C6F000187510301902104011D6FAF0E23
:104E28001E6F190E1F6F010E206FBAEC07F0BB0E34
:104E38003F6F190E406FB0EC00F000C092F394EC95
:104E48000CF000C091F303019251080A02E1060E2A
:104E5800911911E1BD0EF86F190EF96F410EFA6F35
:104E6800000EFB6F070EFC6F4DEC12F00050000AAD
:104E780001E137DD67D103019251080A02E1000E12
:104E88009119D8A45CD1CD0EF86F190EF96FC00E28
:104E9800FA6F000EFB6F040EFC6F4DEC12F000521F
:104EA80022E0CD0E0301F86F190EF96F160EFA6F96
:104EB800000EFB6F040EFC6F4DEC12F0005213E075
:104EC800CD0E0301F86F190EF96F820EFA6F000EFE
:104ED800FB6F040EFC6F4DEC12F0005204E0020E62
:104EE8000301936F2BD1BD0E04013F6F190E406F64
:104EF800B0EC00F0F00E0014016E0150400A04E01E
:104F0800030E0301936F1AD1BD0E04013F6F190EF2
:104F1800406FB0EC00F000C08DF3000E03018E6FFF
:104F28000F0E8D17000E8E178D378D918E378D379A
:104F38008D918E37C30E04013F6F190E406FB0EC90
:104F480000F0BF0E0014016E0150000AD8A4F6D07C
:104F5800C40E04013F6F190E406FB0EC00F0005012
:104F6800000AD8A4EBD0BD0E03018D258B6F190E56
:104F78008E218C6FC60E04013F6F190E406FB0EC86
:104F880000F000C08AF30050010AD8A495D08BC362
:104F98003FF48CC340F4B0EC00F00050080AD8A4E9
:104FA8008AD0010E03018B2504013F6F000E030117
:104FB8008C210401406FB0EC00F00050000A7BE146
:104FC8008BC33FF48CC340F40401416B77EC00F0D1
:104FD80077EC11F082DDC70E386F190E396F3A6B16
:104FE8003B6B5FEC02F0BD0E0401386F190E396F90
:104FF8008DC33AF48EC33BF45EEC01F0160E040147
:105008003F6F98EC00F000C094F3170E04013F6F57
:1050180098EC00F000C03AF4C70E0401386F190E7E
:10502800396F94C33BF45FEC02F0020E03018B2549
:105038000401386F000E03018C210401396F3A6BAB
:105048003B6B5FEC02F08BC338F48CC339F403017B
:105058008D510001865D04013A6F03018E510001F4
:10506800875904013B6F0E0E3A5F000E3B5B5EEC06
:1050780001F0160E04013F6F98EC00F000C094F3A5
:10508800170E04013F6F98EC00F000C03AF4020ECE
:1050980003018B250401386F000E03018C210401E4
:1050A800396F94C33BF45FEC02F086C038F487C0D4
:1050B80039F486EC01F042D003018A51110A0DE15E
:1050C8008FC396F390C397F38DC398F38BC399F36B
:1050D8008CC39AF381EC23F031D003018A51060A7C
:1050E8002DE1100E8F2504013F6F000E0301902162
:1050F8000401406FB0EC00F000C095F30301946B1D
:1051080094EC0CF00050030194250001866F000E0A
:10511800030195210001876F0E0E8627000E872355
:105128008FC396F390C397F38DC398F38EC399F307
:105138008BC39AF38CC39BF38EEC18F003D0040E48
:105148000301936F1E0E04013F6F400E406FECEC9D
:1051580000F0010E3A5C016E000E3B58026E0250E0
:10516800190802E10150AD080AE20C0E0401426F71
:10517800AD0E436F190E446F36EC00F00BD00C0ED9
:105188000401426F010E3A5C436F000E3B58446FB6
:0A51980036EC00F093C300F01200A3
:1051A20003018C6B010E8C5DD8B036D3330E006ECA
:1051B200000E016E8CC304F0000E056E09EC01F0C6
:1051C200520E0026030E0122220E0024E96E000E6A
:1051D2000120EA6EEE50000A01E11BD3330E006E8D
:1051E200000E016E8CC304F0000E056E09EC01F096
:1051F200520E0026030E01221E0E0024E96E000E3E
:105202000120EA6EEE50000A01E1DAD0330E006EA0
:10521200000E016E8CC304F0000E056E09EC01F065
:10522200520E0026030E01221E0E0024026E000EF4
:105232000120036E02C0E9FF03C0EAFFEE04006E24
:1052420002C0E1FF03C0E2FF00C0E6FF330E006EC2
:10525200000E016E8CC304F0000E056E09EC01F025
:10526200520E0026030E01221E0E0024E96E000ECD
:105272000120EA6EEE50000AD8A4A2D0330E006ECE
:10528200000E016E8CC304F0000E056E09EC01F0F5
:10529200520E0026030E0122250E0024E96E000E96
:1052A2000120EA6EEE50010A2FE0330E006E000E6E
:1052B200016E8CC304F0000E056E09EC01F0520E73
:1052C2000026030E0122250E0024E96E000E0120A5
:1052D200EA6EEE50040A18E0330E006E000E016E04
:1052E2008CC304F0000E056E09EC01F0520E00268C
:1052F200030E0122250E0024E96E000E0120EA6E43
:10530200EE50060A01E05CD0330E006E000E016E14
:105312008CC304F0000E056E09EC01F0520E00265B
:10532200030E0122250E0024E16E000E0120E26E22
:10533200E66A330E006E000E016E8CC304F0000E9E
:10534200056E09EC01F0520E0026030E0122220E18
:105352000024E16E000E0120E26EE66A330E006E5A
:10536200000E016E8CC304F0000E056E09EC01F014
:10537200520E0026030E01222E0E0024E16E000EB4
:105382000120E26EE66AE66A040E0401286F330E1B
:10539200006E000E016E8CC304F0000E056E09EC67
:1053A20001F0520E0026030E0122230E0024E96EA4
:1053B200000E0120EA6EEECF29F46AEC02F029D247
:1053C200330E006E000E016E8CC304F0000E056EEB
:1053D20009EC01F0520E0026030E0122250E0024D4
:1053E200E96E000E0120EA6EEE50000A01E111D2D0
:1053F200330E006E000E016E8CC304F0000E056EBB
:1054020009EC01F0520E0026030E01221F0E0024A9
:10541200E96E000E0120EA6EEE50000A01E1F9D1B8
:10542200330E006E000E016E8CC304F0000E056E8A
:1054320009EC01F0520E0026030E01221F0E002479
:10544200026E000E0120036E02C0E9FF03C0EAFFF4
:10545200EE04006E02C0E1FF03C0E2FF00C0E6FFFF
:10546200330E006E000E016E8CC304F0000E056E4A
:1054720009EC01F0520E0026030E01221F0E002439
:10548200E96E000E0120EA6EEE50000AD8A4C1D1E6
:10549200330E006E000E016E8CC304F0000E056E1A
:1054A20009EC01F0520E0026030E01222A0E0024FE
:1054B200E96E000E0120EA6EEECF03F0EECF04F0AB
:1054C200280E0024D96E000E0120DA6EDECF01F024
:1054D200DECF02F00450021802E101500318D8B4E2
:1054E20098D1330E006E000E016E8CC304F0000ED4
:1054F200056E09EC01F0520E0026030E0122260E63
:105502000024E16E000E0120E26E280E0024E96EF6
:10551200000E0120EA6EEECFE6FFEECFE6FF330E7D
:10552200006E000E016E8CC304F0000E056E09ECD5
:1055320001F0520E0026030E01222C0E0024E96E09
:10554200000E0120EA6EEECF03F0EECF04F0280E3B
:105552000024D96E000E0120DA6EDECF01F0DECF1C
:1055620002F00250045C02E10150035C26E2330EB9
:10557200006E000E016E8CC304F0000E056E09EC85
:1055820001F0520E0026030E01222A0E0024E96EBB
:10559200000E0120EA6E000EEE2403018A6F020E55
:1055A200EE208B6F280E0024D96E000E0120DA6ED9
:1055B200DE508A5FDE508B5B21D00301330E006E1A
:1055C200000E016E8CC304F0000E056E09EC01F0B2
:1055D200520E0026030E01222A0E0024E96E000E4E
:1055E2000120EA6E280E0024D96E000E0120DA6E28
:1055F200DE50EE5C8A6FDE50EE588B6F330E006E1B
:10560200000E016E8CC304F0000E056E09EC01F071
:10561200520E0026030E0122100E0024D96E000E37
:105622000120DA6EDECF01F0DECF02F08B51025C98
:1056320002E18A51015C18E2330E006E000E016E27
:105642008CC304F0000E056E09EC01F0520E002628
:10565200030E0122100E0024E96E000E0120EA6EF4
:10566200EECF8AF3EECF8BF3330E006E000E016E97
:105672008CC304F0000E056E09EC01F0520E0026F8
:10568200030E01222E0E0024E16E000E0120E26EB6
:105692008AC3E6FF8BC3E6FF330E006E000E016E77
:1056A2008CC304F0000E056E09EC01F0520E0026C8
:1056B200030E0122250E0024E96E000E0120EA6E7F
:1056C200EE50070A47E1330E006E000E016E8CC3E6
:1056D20004F0000E056E09EC01F0520E0026030ED6
:1056E2000122250E0024E16E000E0120E26EE66A20
:1056F200330E006E000E016E8CC304F0000E056EB8
:1057020009EC01F0520E0026030E0122220E0024A3
:10571200E16E000E0120E26EE66A330E006E000EAC
:10572200016E8CC304F0000E056E09EC01F0520EFE
:105732000026030E01222E0E0024E16E000E01202F
:10574200E26EE66AE66A040E0401286F8CC329F44D
:105752006AEC02F0330E006E000E016E8CC304F090
:10576200000E056E09EC01F0520E0026030E012216
:10577200250E0024E96E000E0120EA6EEE50030AA7
:1057820047E10401330E006E000E016E8CC304F07B
:10579200000E056E09EC01F0520E0026030E0122E6
:1057A200250E0024E16E000E0120E26E070EE66E69
:1057B200330E006E000E016E8CC304F0000E056EF7
:1057C20009EC01F0520E0026030E01221F0E0024E6
:1057D200E16E000E0120E26E030EE66E100E286FDF
:1057E200330E006E000E016E8CC304F0000E056EC7
:1057F20009EC01F0520E0026030E0122230E0024B2
:10580200E96E000E0120EA6EEECF29F46AEC02F096
:0A58120000D003018C2BC6D4120055
:10581C000301856B010E855D45E285C3F8F3B5EC9C
:10582C0012F0330E006E000E016E85C304F0000EF4
:10583C00056E09EC01F0520E0026030E0122220E19
:10584C000024E16E000E0120E26EE66A330E006E5B
:10585C00000E016E85C304F0000E056E09EC01F01C
:10586C00520E0026030E0122310E0024866F000E0C
:10587C000120876F85C300F0000E016E000E046ED0
:10588C00020E056E09EC01F0050E0026010E012238
:10589C0086C3E1FF87C3E2FF00C0E6FF01C0E6FF5D
:0658AC00852BB8D71200A5
:1058B2000001886B896B936AFF0E816E880ED56E2C
:1058C200630ED76EC00ED66EC00EF26EF28A120052
:1058D2000900F5CFE6FF0006FBE10106F9E112003F
:1058E2000301856B1F0E04013F6F010E406FECEC4C
:1058F20000F01F0E04013F6F020E406FCFEC00F06C
:10590200190E04013F6F98EC00F00050000804E209
:1059120064EC26F000C085F31F0E04013F6F010EF8
:10592200406FCFEC00F01F0E04013F6F020E406F7C
:10593200CFEC00F04050381808E13F50371805E12D
:105942003E50361802E13D50351809E035C03DF0B1
:1059520036C03EF037C03FF038C040F021DC85C38E
:0459620000F012003F
:10596600929A898A9298898841EC12F0898A41EC48
:1059760012F0899A41EC12F0898A41EC12F089986A
:10598600C6C0E1FFC7C0E2FFFF0EE66EC4C000F06E
:10599600C5C001F02AEC00F0898841EC12F0BA0E7D
:1059A60004011A6F000E1B6F85C31CF486C31DF419
:1059B600060E1E6F000E1F6F92EC07F0C00E1A6FD8
:1059C600000E1B6F87C31CF488C31DF4040E1E6FE4
:1059D600000E1F6F92EC07F01F0E3F6F010E406F17
:1059E600CFEC00F01F0E04013F6F020E406FCFECAC
:1059F60000F0080E0401426F436B446B36EC00F076
:105A06000A0E0401426FAD0E436F190E446F36EC59
:105A160000F00C0E0401426FAD0E436F190E446F79
:105A260036EC00F00401426B436B446B36EC00F03D
:105A3600040E0401426FAE0E436F190E446F36EC2E
:105A460000F01F0E04013F6F010E406FCFEC00F017
